:100000000C9479020C9452270C947F270C94AC2703
:100010000C94D9270C94A1020C94A1020C940628EC
:100020000C94A1020C94A1020C941F320C94EB309E
:100030000C94A1020C94A1020C94A1020C94A102B4
:100040000C94A1020C94A1020C94A1020C94A102A4
:100050000C94A1020C94A1020C94A1020C943328DC
:100060000C94A1020C94A1020C94A1020C94A10284
:100070000C94A1020C94A1020C94A1020C94A10274
:100080000C94A1020C94A1020C94A1020C94A10264
:100090000C94A1020C94A1020C94A1020C94A10254
:1000A0000C94A1020C94A1020C94A102C20A520B5E
:1000B000D70B620CE10C310DEC0DEC0DEC0D5F0D6E
:1000C000740D2F123712C615C615C615C615811226
:1000D000C615C615C615D612C61581139813C615B2
:1000E000FB1377149A14DB14C615111525154D2929
:1000F00050293F29432949297129712971295429F6
:1001000058295C296229662971296C2954696D6511
:100110002C536574706F696E742C496E7075742CF5
:100120004F757470757400493A204F56454E2D3EF8
:100130004F4E00493A204F56454E2D3E4F4E0052ED
:1001400045534554204F4B00493A205049442D3ED9
:10015000524553455400493A205245464C4F572D7D
:100160003E524553455400493A2053455454494E54
:1001700047532D3E454550524F4D00453A2053457B
:1001800054504F494E542D3E00493A205345545047
:100190004F494E542D3E00453A205245464C4F574C
:1001A0002D3E534554504F494E543F00453A20533D
:1001B0004F414B2D3E00493A20534F414B2D3E00BD
:1001C000493A205049442D3E524553455400453A42
:1001D000205245464C4F572D3E00493A2052454645
:1001E0004C4F572D3E00493A20502D3E00453A20B5
:1001F000505245484541542D3E00493A2050524501
:10020000484541542D3E00453A204F56454E2D3E1F
:100210003F00453A204D4F44452D3E3F00493A208E
:100220004D4F44452D3E54454D5000493A204D4FC9
:1002300044452D3E5245464C4F5700453A205245C5
:10024000464C4F572D3E493F00493A20442D3E0031
:10025000453A205245464C4F572D3E443F00493ABF
:10026000204D4F44452D3E5245464C4F5700493A8C
:10027000204D4F44452D3E54454D500053657474F8
:10028000696E677300453A20556E6B6E6F776E002E
:10029000453A20546865726D6F636F75706C6520A8
:1002A0004572726F7200453A20546865726D6F63D3
:1002B0006F75706C652053686F727400453A2054F6
:1002C0006865726D6F636F75706C65204F70656ED9
:1002D00000493A204F56454E2D3E4F4646000000FD
:1002E000000200090F0000030401000C00000000E0
:1002F00000000000000000000000000004080201EF
:10030000104080401020408040800802040180405E
:100310002010020110801020404004040404040353
:100320000405020202020403020202020606060695
:100330000606040402020204000000002300260056
:1003400029002C002F0000000000250028002B00B1
:100350002E00310000000000240027002A002D009C
:100360003000080B00020202010009040000010233
:1003700002000005240010010524010101042402EB
:100380000605240600010705810310004009040149
:1003900000020A0000000705020240000007058372
:1003A0000240000000C18081C11201000202000071
:1003B00040412336800001010200011201000200C9
:1003C00000004041233680000101020001417264B7
:1003D00075696E6F204C4C430041726475696E6F95
:1003E000204C656F6E6172646F00040309040000A5
:1003F0000000000000002A2B280000000000000080
:1004000000000000000000000000000000002C9E22
:10041000B4A0A1A2A434A6A7A5AE362D3738271EB6
:100420001F20212223242526B333B62EB7B89F845C
:1004300085868788898A8B8C8D8E8F9091929394F4
:1004400095969798999A9B9C9D2F3130A3AD350432
:1004500005060708090A0B0C0D0E0F1011121314D4
:1004600015161718191A1B1C1DAFB1B0B5000904D9
:1004700002000103000000092101010001226500C2
:100480000705840340000105010902A1010901A13A
:10049000008501050919012903150025019503753A
:1004A00001810295017505810305010930093109B2
:1004B000381581257F750895038106C0C00501099F
:1004C00006A1018502050719E029E7150025017538
:1004D0000195088102950175088103950675081537
:1004E0000025650507190029658100C0D310CD2AB4
:1004F000CA3311241FBECFEFDAE0DEBFCDBF12E05A
:10050000A0E0B1E0E4ECFCE602C005900D92AC3A4C
:10051000B107D9F725E0ACEAB2E001C01D92A632DE
:10052000B207E1F714E0C2EFD4E004C02297FE0165
:100530000E941A36CC3ED107C9F70E94EB2A0C94D0
:1005400060360C9400000895FB0195878487DC01D8
:1005500019967C936E93189726853785232B31F453
:100560001E968D919C911F9797878687CF0108953E
:10057000CF92DF92EF92FF920F931F93CF93DF936F
:100580008C01EB01209719F1DC019296ED91FC9121
:1005900093976F017B010088F189E02D309719F066
:1005A000C701B6010995EA89FB89309719F0C7019F
:1005B000B6010995D8019496ED91FC9195973097E5
:1005C00019F0C701B6010995F801D3A3C2A3DF91C1
:1005D000CF911F910F91FF90EF90DF90CF900895F2
:1005E000CF93DF93EC018AA19BA1DC015C96ED9196
:1005F000FC915D97309709F00995EAA1FBA1608510
:1006000071856115710529F0DB011F96FC93EE934E
:100610001E97CE01DF91CF910C94B8028F929F92DA
:10062000AF92BF92CF92DF92EF92FF920E947D280D
:10063000C0908D03D0908E03E0908F03F0909003D4
:10064000C616D706E806F90608F069C0D701C60144
:1006500088519C4FAF4FBF4F80938D0390938E0373
:10066000A0938F03B093900380909F039090A0037A
:10067000A090A103B090A20360E070E08BE093E053
:100680000E94E11C6B017C0160939F037093A003A7
:100690008093A1039093A20320E030E44CE156E460
:1006A0000E943C348823A1F020E034E44CE156E47D
:1006B000C701B6010E943C34882351F020E038E4A1
:1006C0004CE156E4C701B6010E943C34811125C0BB
:1006D0008091A8038F5F8093A8038330A8F08AE0FD
:1006E00090E09093760380937503109274031092B8
:1006F0007303109272031092710381E08093A70339
:1007000083E08093A8030BC080929F039092A00384
:10071000A092A103B092A20302C01092A803FF907E
:10072000EF90DF90CF90BF90AF909F908F90089503
:100730008091770390917803892B09F04BC06EE686
:1007400072E080EC94E00E946E2B81E090E0909348
:1007500078038093770380E090E0A0EAB1E480938F
:10076000A3039093A403A093A503B093A6038EE0E4
:1007700093E00E94151B63E771E08EE093E00E9416
:10078000612B41E060E08EE093E00E941C1B68E773
:1007900071E08EE093E00E94612B22E030E04AE0BD
:1007A00057ED63E170E48EE093E00E94872D60E0F6
:1007B00080913D010E94AB2964EC79E080E090E0FB
:1007C0000E94AC288EE093E00E94151B8EE093E01F
:1007D0000C94321C6EE572E080EC94E00E946E2B6B
:1007E00010927803109277031092A3031092A4033F
:1007F0001092A5031092A6038EE093E00E94151BB1
:100800006DE771E08EE093E00E94612B41E060E0D3
:100810008EE093E00E941C1B68E771E08EE093E09D
:100820000E94612B22E030E04AE057ED63E170E482
:100830008EE093E00E94872D60E080913D010E9450
:10084000AB2964EC79E080E090E00E94AC288EE077
:1008500093E00E94151B8EE093E00C942B1CCF9329
:10086000DF93EC014DE050E060E570E00E94383627
:1008700088818130C1F040E050E060EA70E4498353
:100880005A836B837C834AE057ED63E27CE34D83BC
:100890005E836F83788740E050E060E271E44987CF
:1008A0005A876B877C87DF91CF91089521E0FC0107
:1008B00020834DE050E060E570E00C944836CF9323
:1008C000DF93EC0144E050E064E670E00E943836CB
:1008D0008881813031F086E9898384EB8A8380EFD7
:1008E0008B83DF91CF91089521E0FC01208344E0C8
:1008F00050E064E670E00C944836AF92BF92CF921D
:10090000DF92EF92FF920F931F93CF93DF931F928B
:10091000CDB7DEB727E1A22E21E0B22E3BEAC32EEF
:1009200033E0D32E0AE111E020E0EE24E394F12C31
:10093000D8018D918D0129830E94E129F6018083E0
:10094000D5019C9129818917C9F00E947D28609367
:100950007D0370937E0380937F0390938003F60161
:100960008081D5018C9380916F03909170030397E0
:1009700021F0F0927003E0926F0321E0BFEFCB1AF9
:10098000DB0AEFEFAE1ABE0AF1E00D311F0781F668
:1009900000916F031091700302301105F9F00330DC
:1009A000110509F494C10130110509F0CFC12111DD
:1009B000CDC10E947D28C0907D03D0907E03E09041
:1009C0007F03F09080036C197D098E099F096536BD
:1009D00071058105910508F0D9C1B8C18091AB03BB
:1009E0009091AC038111B7C091117BC00E947D280A
:1009F000C0907903D0907A03E0907B03F0907C0361
:100A00006C197D098E099F09693B7B408105910521
:100A100008F49CC180917703909178030297E9F0E4
:100A200010937803009377038EE093E00E94151BE8
:100A30006CE772E08EE093E00E943C2B8EE093E046
:100A40000E942B1C68EE73E080E090E00E94AC28CE
:100A50008AE394E00E94F00279C18CE593E00E9461
:100A6000740410927803109277031092A3031092EB
:100A7000A4031092A5031092A6038EE093E00E94B7
:100A8000151B6DE771E08EE093E00E94612B41E061
:100A900060E08EE093E00E941C1B68E771E08EE04E
:100AA00093E00E94612B22E030E04AE057ED63E1E1
:100AB00070E48EE093E00E94872D60E080913D011C
:100AC0000E94AB2964EC79E080E090E00E94AC28C1
:100AD0008EE093E00E94151B8EE093E00E942B1C99
:100AE00035C18091AD03811117C00E947D28C0904F
:100AF0007903D0907A03E0907B03F0907C036C192B
:100B00007D098E099F09693B7B408105910508F4A9
:100B10001DC10E949803D4C08091770390917803FF
:100B200097FDCEC08230910544F0029709F0C8C00D
:100B30008AE394E00E94F002C3C080917103909117
:100B40007203892B09F066C081E090E090937203F4
:100B500080937103B5C08091AD0391114CC0811198
:100B60000AC080911601813011F48AE001C081E051
:100B700080931601A5C0809177039091780381300E
:100B8000910529F08230910509F041C021C06091A2
:100B9000160170E080E090E00E94DB342091A30316
:100BA0003091A4034091A5035091A6030E94D8332D
:100BB0006B017C0120E030E048E453E40E948B3577
:100BC00018160CF049C080E090E0A8E4B3E451C0EE
:100BD00080915C0490915D04DC015696ED91FC914E
:100BE0005797309709F00995E0915C04F0915D0406
:100BF0006681778159C0811163C08091770390919C
:100C000078038130910559F082309105D9F1892B13
:100C100009F056C0109272031092710351C0609196
:100C2000160170E080E090E00E94DB349B01AC0193
:100C30006091A3037091A4038091A5039091A603F2
:100C40000E94D7336B017C0120E030E040EA51E4A0
:100C50000E943C3487FD09C0C092A303D092A40334
:100C6000E092A503F092A6032BC080E090E0A0EAFA
:100C7000B1E48093A3039093A403A093A503B0933E
:100C8000A6031EC080915C0490915D04DC0158961F
:100C9000ED91FC915997309709F00995E0915C042A
:100CA000F0915D04628573856115710529F0DB01A2
:100CB0001F96FC93EE931E978AE394E00E94B8027D
:100CC00083E090E09093700380936F033FC087E1CF
:100CD000E82E81E0F82E0BEA13E09AE1A92E91E0CC
:100CE000B92EDD24D394F50181915F010E94E129A1
:100CF000D8018D938D01F70181937F0181110BC084
:100D00000E947D2860937D0370937E0380937F0310
:100D100090938003D12CFDE1AF16F1E0BF0619F7E7
:100D2000DD20A1F00E947D28C0907D03D0907E033D
:100D3000E0907F03F09080036C197D098E099F0974
:100D4000653671058105910508F044C00E947D2833
:100D500000918503109186032091870330918803C9
:100D6000061717072807390708F043C060E080918D
:100D70003D010F90DF91CF911F910F91FF90EF9068
:100D8000DF90CF90BF90AF900C94AB2982E090E0C1
:100D90009093700380936F030E947D286E5C7F4F59
:100DA0008F4F9F4F609385037093860380938703D3
:100DB0009093880361E080913D010E94AB290E94DD
:100DC0007D286093790370937A0380937B039093DB
:100DD0007C03BCCF1092700310926F030E947D2899
:100DE00060937D0370937E0380937F0390938003D1
:100DF000ADCF0F90DF91CF911F910F91FF90EF90AA
:100E0000DF90CF90BF90AF90089586E980935D0307
:100E100084EB80935E0380EF80935F038CE593E027
:100E20000E94740441E060E08EE093E00E941C1B8D
:100E30006FE371E08EE093E00E943C2B60ED77E081
:100E400080E090E00E94AC28109278031092770323
:100E50001092A3031092A4031092A5031092A6036C
:100E60008EE093E00E94151B6DE771E08EE093E049
:100E70000E94612B41E060E08EE093E00E941C1B29
:100E800064E871E08EE093E00E94612B22E030E0A4
:100E90004AE057ED63E170E48EE093E00E94872D15
:100EA00060E080913D010E94AB2964EC79E080E034
:100EB00090E00E94AC288EE093E00E94151B8EE02B
:100EC00093E00C942B1CCF93DF93EC014AE150E0AC
:100ED00060E070E00E94383698859F3FE1F481E041
:100EE0008F832EEF288799879CE39A878B871C86B0
:100EF00083E088838FEF9FEF9A83898380E090E07F
:100F0000FE01E80FF91F20892F3F09F4108A01968E
:100F10008A309105A9F7DF91CF9108954AE150E019
:100F200060E070E00C94483668E174E08AE394E095
:100F30000E94A40266EF73E088E194E00E94A4029C
:100F400064ED73E086EF93E00E94A40262EB73E02D
:100F500084ED93E00E94A40268E174E082EB93E0E8
:100F60000E94A4028DEC95E190932F0480932E04AF
:100F700090930D0480930C049093EB038093EA0309
:100F800025E037E03093C9032093C8038CE296E153
:100F9000909331048093300490930F0480930E0457
:100FA0009093ED038093EC033093CB032093CA031B
:100FB00008958091C302813051F098F0823061F041
:100FC000833079F480E891E5A1E0B0E00EC08CE3D5
:100FD00090E0A0E0B0E009C080E19EE0A0E0B0E0D9
:100FE00004C081E090E0A0E0B0E08093060190931F
:100FF0000701A0930801B09309010895CF92DF92F1
:10100000EF92FF9280910603882309F4F2C01092B8
:1010100006038091D702833449F118F4823441F0F9
:10102000E0C0833509F452C0853509F44FC0D9C0FA
:101030002091D8028091D90290E0982F8827820FC2
:10104000911D2091B8023091B9022F3F3F4F29F0F6
:101050008F3F2FEF920709F0C4C09093B90280939D
:10106000B80287EB92E00E948E07BBC08091D80245
:101070008093BE028091D9028093BF028091DA02F0
:101080008093C0028091DB028093C1028091DC02D8
:101090008093C2029091DD029093C302811103C03C
:1010A00081E08093C20287EB92E00E948E070E944B
:1010B000D9076091BF028CEA92E00E94932260916E
:1010C000C0028CEA92E00E9499228BC08091D802E3
:1010D0008F34F1F08535D1F18D3409F05FC0809106
:1010E000D90281110AC0809177039091780301970A
:1010F00009F054C00E94980351C0813009F04EC0DD
:101100008091770390917803892B09F047C0F2CF43
:101110008091D90281110BC080917103909172036B
:101120000197E1F5109272031092710337C081307C
:10113000A9F58091710390917203892B79F581E073
:1011400090E0909372038093710328C0E090DA02DC
:10115000F12CFE2CEE248091D902E80EF11C4AE01D
:1011600050E0B70180EC94E00E94862C80917703D8
:1011700090917803019791F4C7014497853B9105BD
:1011800068F4B70180E090E00E94D9346093A30333
:101190007093A4038093A5039093A6030E947D28D7
:1011A0006B017C01209106013091070140910801FB
:1011B00050910901A8EEB3E00E941E369B01AC01DC
:1011C000A091C102B0E00E941E36C60ED71EE81ED6
:1011D000F91EC0920703D0920803E0920903F0922F
:1011E0000A038CEA92E0FF90EF90DF90CF900C948E
:1011F0004C21FF90EF90DF90CF900895EF920F93E6
:1012000061E080913F010E94AB2983E08093EB0273
:101210008091B8029091B9029093ED028093EC0214
:101220008091EE028F5F8093EE0283E78093EF025E
:1012300060E08CEA92E00E94CC268093F0026091FC
:10124000A3037091A4038091A5039091A6030E942B
:10125000AD346093F10260919F037091A00380917F
:10126000A1039091A2030E94AD346093F2022DEC91
:101270003CEC4CEC5DE360919B0370919C0380918E
:101280009D0390919E030E948F350E94AD34609320
:10129000F302809173038093F4028091770380932B
:1012A000F502E6EFF2E08FEF819393E0E530F90786
:1012B000D9F774E6E72E00E02AE14BEE52E06091A8
:1012C000BE028CEA92E00E947421809306030E9481
:1012D000FE0760E080913F010F91EF900C94AB29E5
:1012E000CF9361E0809141010E94722960E080917A
:1012F00041010E94AB2961E080913D010E94722969
:1013000060E080913D010E94AB2961E08091AE03D5
:101310000E94722960E08091AE030E94AB2961E0D7
:10132000809127010E94722960E0809127010E942C
:10133000AB2961E0809125010E94722960E08091D3
:1013400025010E94AB2961E0809123010E9472294E
:1013500060E0809123010E94AB295D9861E080915B
:101360003F010E94722960E080913F010E94AB29F9
:1013700062E0809121010E94722962E080911F0148
:101380000E94722962E080911D010E9472298CE501
:1013900093E00E945F0480E693E00E942F0461E0E6
:1013A00080913D010E94AB2920E042E068E08EE0A0
:1013B00093E00E94511B43E451E060E08EE093E033
:1013C0000E943A1C8EE093E00E94151B6DE771E0CD
:1013D0008EE093E00E94612B41E060E08EE093E0BC
:1013E0000E941C1B68E771E08EE093E00E94612B75
:1013F00022E030E04AE057ED63E170E48EE093E0F4
:101400000E94872D60E080913D010E94AB2940E859
:1014100055E260E070E080EC94E00E94C72A44E668
:1014200050E060E070E080EC94E00E94E52D0E94C6
:101430007D2860939103709392038093930390931C
:1014400094030E947D2860938D0370938E03809394
:101450008F03909390030E94940787EB92E00E9481
:1014600063070E94D90761E080913F010E94AB2988
:101470002091C0024091BF026BE28CEA92E00E9490
:10148000AE23C82F64EF71E080E090E00E94AC28AA
:1014900060E080913F010E94AB29CC23D1F081E034
:1014A000809305036AEF70E080E090E00E94AC2832
:1014B00061E080913F010E94AB296AEF70E080E01B
:1014C00090E00E94AC2860E080913F010E94AB292F
:1014D00002C0109205038091050381110E94FE084D
:1014E00060ED77E080E090E00E94AC288EE093E031
:1014F000CF910C94151B81E48093D7028CEA92E083
:101500000E941721882349F161E080913F010E94E8
:10151000AB2980916E048A31D9F481E0809306036F
:101520008AE1E0E7F4E0A1EDB2E001900D928A9546
:10153000E1F78CEA92E00E94C721882339F040E06D
:101540006FE872E08CEA92E00E9432260E94FE0769
:1015500060E080913F010C94AB290895CF92DF9217
:10156000EF92FF920F931F93CF93DF93E091750358
:10157000F0917603EB30F10508F02EC3EA5AFF4FE5
:101580000C9418361092A3031092A4031092A50392
:101590001092A60310929B0310929C0310929D033D
:1015A00010929E0320E030E048E452E460919F03F3
:1015B0007091A0038091A1039091A2030E948B35AA
:1015C00087FD03C089E090E047C2C0917103D091CC
:1015D0007203C130D10509F0FFC263E371E080EC12
:1015E00094E00E946E2B6AE871E080EC94E00E9427
:1015F000802B10926E0310926D0380ED97E0909314
:101600009A03809399030E947D28609395037093B9
:101610009603809397039093980360915D0370E025
:1016200080E090E00E94D9346093A3037093A403F8
:101630008093A5039093A603C12CD12CB0EAEB2E86
:10164000B1E4FB2E0DEC1CEC2CEC3CE340E050E054
:1016500060E272E483E293E00E94691E6091990364
:1016600070919A03882777FD8095982F0E94DB342C
:101670008B019C0140E050E0BA0183E293E00E94BC
:101680006A1F68EE73E083E293E00E941C1F61E032
:1016900070E083E293E00E943020D0937603C09301
:1016A000750375C060E08091A9030E94AB29809109
:1016B000AE039091AF039093AA038093A9030E9475
:1016C0007D28009185031091860320918703309136
:1016D0008803061717072807390728F460E0809168
:1016E0003D010E94AB2981E090E0909374038093C8
:1016F000730360915D0370E080E090E00E94DB3452
:101700009B01AC0160919F037091A0038091A103A4
:101710009091A2030E948B3587FD39C10E947D28DC
:10172000685D7C4D8F4F9F4F6093890370938A0350
:1017300080938B0390938C03C12CD12CAAE7EA2EC3
:10174000A3E4FA2E0DEC1CEC2CE43DE340E050E069
:1017500066E973E483E293E00E94691E60915D0391
:1017600070E06B5F7F4F882777FD8095982F0E94F0
:10177000DB346093A3037093A4038093A503909339
:10178000A60382E090E090937603809375030E9415
:101790007D2866507F4F8F4F9F4F609385037093D6
:1017A0008603809387039093880361E009C260E019
:1017B0008091A9030E94AB29809127019091280173
:1017C0009093AA038093A9030E947D28009185032A
:1017D000109186032091870330918803061717071D
:1017E0002807390728F460E080913D010E94AB2969
:1017F0000E947D280091890310918A0320918B0318
:1018000030918C03061717072807390708F0BFC067
:101810000E947D28685D7C4D8F4F9F4F60938903A8
:1018200070938A0380938B0390938C0320E030E0C5
:1018300040EA50E46091A3037091A4038091A50352
:101840009091A6030E94D8336B017C016093A3039F
:101850007093A4038093A5039093A60360915E0305
:1018600070E080E090E00E94DB349B01AC01C70196
:10187000B6010E948B3518160CF0AEC1C12CD12CCC
:10188000FFEAEF2EF3E4FF2E0DEC1CEC2CE43DE31D
:1018900040E050E066E973E483E293E00E94691E51
:1018A00060915F0370E080E090E00E94D934609323
:1018B000A3037093A4038093A5039093A60383E0EE
:1018C00090E061CF60E08091A9030E94AB298091F4
:1018D0002501909126019093AA038093A9030E9469
:1018E0007D28009185031091860320918703309114
:1018F0008803061717072807390728F460E0809146
:101900003D010E94AB2960915F0370E06550710951
:10191000882777FD8095982F0E94DB349B01AC01CE
:1019200060919F037091A0038091A1039091A20305
:101930000E948B3587FD2BC0C12CD12CEFEAEE2EF7
:10194000E3E4FE2E0DEC1CEC2CE43DE340E050E023
:1019500066E973E483E293E00E94691E80E090E010
:10196000A8ECB2E48093A3039093A403A093A503EF
:10197000B093A60384E090E0909376038093750380
:101980000E947D286854744F8F4F9F4F06CF8091DF
:101990006D0390916E03893691400CF41DC18AE06D
:1019A00090E09093760380937503109274031092E5
:1019B0007303109272031092710381E08093A70366
:1019C000EBC060E08091A9030E94AB2980912301C4
:1019D000909124019093AA038093A9030E947D28EB
:1019E000009185031091860320918703309188032D
:1019F000061717072807390728F460E080913D0192
:101A00000E94AB2920E030E048EC52E460919F0353
:101A10007091A0038091A1039091A2030E943C3495
:101A200018160CF4D9C00E947D2868517C4F8F4F46
:101A30009F4F6093850370938603809387039093F1
:101A4000880361E080913D010E94AB2910927403EC
:101A50001092730385E090E0909376038093750372
:101A6000BBC00E947D2800918503109186032091C0
:101A7000870330918803061717072807390708F0EE
:101A8000ABC060E080913D010E94AB2910927603CB
:101A90001092750310927203109271031092A303B7
:101AA0001092A4031092A5031092A60310929B0318
:101AB00010929C0310929D0310929E038DC020E013
:101AC00030E048E452E460919F037091A00380915C
:101AD000A1039091A2030E943C3487FF7DC0109225
:101AE00076031092750378C00E947D2800918503CB
:101AF00010918603209187033091880306171707FA
:101B00002807390728F460E080913D010E94AB2945
:101B10008091A703813009F05FC0C0909F03D090EF
:101B2000A003E090A103F090A20320E030E44CE198
:101B300056E4C701B6010E943C348823A1F020E09E
:101B400034E44CE156E4C701B6010E943C348823DA
:101B500051F020E038E44CE156E4C701B6010E94A0
:101B60003C34811126C08AE090E090937603809304
:101B700075030E947D2800918503109186032091B2
:101B800087033091880308511C4F2F4F3F4F061792
:101B900017072807390700F50E947D280E94D934CD
:101BA00020E030E84BE354E40E94D8330E94AD3487
:101BB000F4CD10927603109275031092A70360E0A3
:101BC00080913D01DF91CF911F910F91FF90EF9098
:101BD000DF90CF900C94AB29DF91CF911F910F91A3
:101BE000FF90EF90DF90CF900895CF93DF93EC01BB
:101BF00068EA71E080EC94E00E94802B61EB71E078
:101C000080EC94E00E94612B4AE050E0698180EC16
:101C100094E00E94622C65EB71E080EC94E00E94FD
:101C2000612B4AE050E06A8180EC94E00E94622CD3
:101C300065EB71E080EC94E00E94612B4AE050E09B
:101C40006B8180EC94E0DF91CF910C94692CCF9361
:101C5000DF93EC0167EB71E080EC94E00E94802B55
:101C600061EB71E080EC94E00E94612B49815A8124
:101C70006B817C8123E030E080EC94E00E94872D32
:101C800065EB71E080EC94E00E94612B4D815E81F8
:101C90006F81788523E030E080EC94E00E94872D0E
:101CA00065EB71E080EC94E00E94612B49855A85D8
:101CB0006B857C8523E030E080EC94E0DF91CF9170
:101CC0000C94892D8F929F92AF92BF92CF92DF9208
:101CD000EF92FF920F931F9380917503909176037B
:101CE0008730910509F4FFC034F4009771F006972E
:101CF00009F4A3C04DC28930910509F4BDC10CF4AB
:101D000052C10A9709F4D1C143C210929B031092A9
:101D10009C0310929D0310929E0310926E031092EA
:101D20006D032091A3033091A4034091A50350912A
:101D3000A60360919F037091A0038091A1039091ED
:101D4000A2030E948B3587FD0FC089E090E090933D
:101D500076038093750310927403109273031092AC
:101D600072031092710314C28091710390917203F7
:101D7000019709F00DC280ED97E090939A0380934C
:101D8000990367E271E080EC94E00E946E2B80E69C
:101D900093E00E94270E6CE071E080EC94E00E94DA
:101DA0006E2B10926E0310926D030E947D2860933B
:101DB0009503709396038093970390939803C09034
:101DC0006903D0906A03E0906B03F0906C0300917C
:101DD0006503109166032091670330916803409179
:101DE000610350916203609163037091640383E225
:101DF00093E00E94691E6091990370919A0388276D
:101E000077FD8095982F0E94DB348B019C0140E088
:101E100050E0BA0183E293E00E946A1F68EE73E02B
:101E200083E293E00E941C1F61E070E083E293E094
:101E30000E94302086E090E0B1C00E947D28009191
:101E4000850310918603209187033091880306173C
:101E500017072807390728F460E080913D010E94A8
:101E6000AB2981E090E0909374038093730320E0AA
:101E700030E040E050E46091A3037091A4038091AE
:101E8000A5039091A6030E94D7339B01AC016091FA
:101E90009F037091A0038091A1039091A2030E94DF
:101EA0008B3587FD75C187E090E090937603809332
:101EB00075030E947D286093810370938203809351
:101EC0008303909384030E947D2866507F4F8F4F39
:101ED0009F4F60938503709386038093870390934D
:101EE000880361E047C10E947D280091850310911D
:101EF0008603209187033091880306171707280768
:101F0000390728F460E080913D010E94AB29C09020
:101F10009F03D090A003E090A103F090A2038090D3
:101F2000A3039090A403A090A503B090A60320E083
:101F300030E040E050E4C501B4010E94D7339B017A
:101F4000AC01C701B6010E948B3587FD8AC020E035
:101F500030E040E050E4C501B4010E94D8339B0159
:101F6000AC01C701B6010E943C3418160CF479C0CC
:101F70000E947D28009181031091820320918303A8
:101F800030918403601B710B820B930B61367A4E88
:101F90008105910508F4FCC088E090E090937603F9
:101FA0008093750390CF0E947D2800918503109146
:101FB00086032091870330918803061717072807A7
:101FC000390728F460E080913D010E94AB29C09060
:101FD0009F03D090A003E090A103F090A203809013
:101FE000A3039090A403A090A503B090A60320E0C3
:101FF00030E040E050E4C501B4010E94D7339B01BA
:10200000AC01C701B6010E943C3487FD11C020E03D
:1020100030E040E050E4C501B4010E94D8339B0198
:10202000AC01C701B6010E948B3518160CF0B0C088
:1020300087E090E090937603809375030E947D285B
:1020400066507F4F8F4F9F4F609385037093860339
:10205000809387039093880361E080913D010E9403
:10206000AB290E947D286093810370938203809343
:102070008303909384038CC02091A3033091A40325
:102080004091A5035091A60360919F037091A00316
:102090008091A1039091A2030E943C3487FF78C0F5
:1020A000109276031092750373C00E947D280091F0
:1020B00085031091860320918703309188030617CA
:1020C00017072807390728F460E080913D010E9436
:1020D000AB29C0909F03D090A003E090A103F090A3
:1020E000A20320E030E44CE156E4C701B6010E94AF
:1020F0003C348823A1F020E034E44CE156E4C701ED
:10210000B6010E943C34882351F020E038E44CE1D1
:1021100056E4C701B6010E943C34811126C08AE012
:1021200090E090937603809375030E947D28009140
:10213000850310918603209187033091880308510D
:102140001C4F2F4F3F4F061717072807390700F579
:102150000E947D280E94D93420E030E84BE354E40B
:102160000E94D8330E94AD34B4CE10927603109200
:10217000750360E080913D011F910F91FF90EF90FA
:10218000DF90CF90BF90AF909F908F900C94AB2931
:102190001F910F91FF90EF90DF90CF90BF90AF9085
:1021A0009F908F900895AF92BF92CF92DF92EF925F
:1021B000FF920F931F93EAE3F4E080EC91E09183A8
:1021C000808310923C0410924704109246041092AF
:1021D0004504109244041092430410924204109259
:1021E00041041092400410923E0410923D0410925B
:1021F0003F0410925B0410925A04F0935D04E09344
:102200005C048BE896E190935F0480935E0483EA1C
:1022100092E09093610480936004109263041092A2
:102220006204A8E1B4E089EC91E011969C938E934E
:1022300010921A049196FC93EE93909710922504B5
:10224000109224041092230410922204109221046C
:102250001092200410921F0410921E0410921C046D
:1022600010921B0410921D04A6EFB3E081ED91E0E3
:1022700011969C938E931092F8039196FC93EE9393
:10228000909710920304109202041092010410928D
:1022900000041092FF031092FE031092FD031092AF
:1022A000FC031092FA031092F9031092FB03A4EDC1
:1022B000B3E08DE791E011969C938E931092D60334
:1022C0009196FC93EE9390971092E1031092E003A5
:1022D0001092DF031092DE031092DD031092DC03F4
:1022E0001092DB031092DA031092D8031092D703F6
:1022F0001092D903A2EBB3E086ED91E011969C9386
:102300008E931092B4039196FC93EE939097109253
:10231000BF031092BE031092BD031092BC03109233
:10232000BB031092BA031092B9031092B803109233
:10233000B6031092B5031092B703809141019091BA
:1023400042019093B1038093B003A0900E01B0902E
:102350000F01C0901001D0901101E0901201F09097
:10236000130100911401109115011F921F92809189
:102370000D018F9380910C018F9380910B018F93AE
:1023800080910A018F9323EA33E04BE953E06FE930
:1023900073E083E293E00E948220C0902B01E090E2
:1023A0002D0100912F012091310140913301609165
:1023B00035018EE093E00E94051C20913701409189
:1023C000390160913B018BE093E00E947A1C81E629
:1023D00092E09093AD028093AC0281E18093AE02D3
:1023E00083E08093AF021092B00281E080936F048B
:1023F0001092B2028FE18093B3021092B4020F9058
:102400000F900F900F900F900F901F910F91FF90D2
:10241000EF90DF90CF90BF90AF900895CF92DF9272
:10242000EF92FF920F931F9380EC94E00E94342A66
:10243000892B09F4ABC380EC94E00E94442A9927CD
:1024400087FD9095A92FB92FFC01E354F109E631DE
:10245000F10508F09BC3EF59FF4F0C94183680919B
:10246000770390917803892B09F037C203C38091D9
:10247000770390917803892B19F460E572E049C0E5
:1024800080EC94E00E94EC2E6093690370936A03E1
:1024900080936B0390936C030E947D286093950357
:1024A000709396038093970390939803C090690369
:1024B000D0906A03E0906B03F0906C030091650389
:1024C0001091660320916703309168034091610386
:1024D00050916203609163037091640383E293E01F
:1024E0000E94691E69E472E080EC94E00E943C2B3B
:1024F0004091690350916A0360916B0370916C0382
:1025000052C08091770390917803892B61F46BE33B
:1025100072E080EC94E01F910F91FF90EF90DF90BC
:10252000CF900C946E2B80EC94E00E94EC2E609384
:1025300065037093660380936703909368030E941A
:102540007D286093950370939603809397039093EF
:102550009803C0906903D0906A03E0906B03F090F9
:102560006C0300916503109166032091670330911D
:10257000680340916103509162036091630370911D
:10258000640383E293E00E94691E6DED71E080ECCC
:1025900094E00E94612B4091650350916603609125
:1025A00067037091680323E030E0D3C280EC94E0CD
:1025B0000E945A2E6B017C01CB01009709F04BC0A1
:1025C0006BE272E080EC94E00E946E2B1092780334
:1025D000109277031092A3031092A4031092A50304
:1025E0001092A6038EE093E00E94151B6DE771E048
:1025F0008EE093E00E94612B41E060E08EE093E08A
:102600000E941C1B68E771E08EE093E00E94612B42
:1026100022E030E04AE057ED63E170E48EE093E0C1
:102620000E94872D60E080913D010E94AB2964ECFF
:1026300079E080E090E00E94AC288EE093E00E9478
:10264000151B8EE093E01F910F91FF90EF90DF90AC
:10265000CF900C942B1C6130710509F04FC06DE1D7
:1026600072E080EC94E00E946E2BD0927803C092CE
:10267000770380E090E0A0EAB1E48093A303909315
:10268000A403A093A503B093A6038EE093E00E9459
:10269000151B63E771E08EE093E00E94612B41E03F
:1026A00060E08EE093E00E941C1B68E771E08EE022
:1026B00093E00E94612B22E030E04AE057ED63E1B5
:1026C00070E48EE093E00E94872D60E080913D01F0
:1026D0000E94AB2964EC79E080E090E00E94AC2895
:1026E0008EE093E00E94151B8EE093E01F910F9106
:1026F000FF90EF90DF90CF900C94321C62E172E07B
:1027000008CF80EC94E00E945A2E6115710529F4DF
:10271000109272031092710339C26130710529F46D
:10272000709372036093710331C267E072E0F1CE7F
:1027300080917703909178030097C9F480EC94E03E
:102740000E945A2E6B017C01CB0184569109C397DC
:1027500008F0EAC1C0925D036AEF71E080EC94E09A
:102760000E943C2B4AE050E060915D03E3C1019779
:1027700009F00CC280EC94E00E94EC2E609361039F
:102780007093620380936303909364030E947D2897
:1027900060939503709396038093970390939803A7
:1027A000C0906903D0906A03E0906B03F0906C03D3
:1027B00000916503109166032091670330916803CF
:1027C00040916103509162036091630370916403CF
:1027D00083E293E00E94691E66EE71E080EC94E073
:1027E0000E943C2B4091610350916203609163030E
:1027F00070916403D8CE809177039091780300970D
:10280000C9F480EC94E00E945A2E6B017C01CB014C
:10281000885C9109C89708F08AC1C0925F036AED8D
:1028200071E080EC94E00E943C2B4AE050E0609123
:102830005F0380C1019709F0A9C180E090E0A0EAA0
:10284000B0E48093610390936203A0936303B09319
:1028500064038AE097EDA3E2BCE380936503909361
:102860006603A0936703B093680380E090E0A0E262
:10287000B1E48093690390936A03A0936B03B093D0
:102880006C030E947D286093950370939603809358
:10289000970390939803C0906903D0906A03E090E7
:1028A0006B03F0906C030091650310916603209117
:1028B0006703309168034091610350916203609116
:1028C00063037091640383E293E00E94691E60ECED
:1028D00071E080EC94E00E946E2B80E693E01F9103
:1028E0000F91FF90EF90DF90CF900C94270E809186
:1028F0007703909178030097C9F480EC94E00E94EC
:102900005A2E6B017C01CB0186599109C39708F0BF
:102910001BC1C0925E0366EB71E080EC94E00E9404
:102920003C2B4AE050E060915E0304C1019709F03E
:102930002DC1D3CF60916D0370916E034AE050E0DA
:1029400080EC94E00E94352C64EE71E080EC94E021
:102950000E94612B4091A3035091A4036091A503B1
:102960007091A60322E030E080EC94E00E94872D75
:1029700064EE71E080EC94E00E94612B40919F0333
:102980005091A0036091A1037091A20322E030E076
:1029900080EC94E00E94872D64EE71E080EC94E07E
:1029A0000E94612B40919B0350919C0360919D0379
:1029B00070919E03CCC0809177039091780300972B
:1029C00019F467E971E0A5CD019709F0DFC080EC4B
:1029D00094E00E945A2E6B017C01CB014497853B09
:1029E000910508F0C0C0B601882777FD8095982F23
:1029F0000E94DB346093A3037093A4038093A50328
:102A00009093A60369E871E080EC94E00E943C2B6F
:102A10004091A3035091A4036091A5037091A60374
:102A200096C08091770390917803009729F48CE504
:102A300093E00E94740406C0019721F480E693E0BD
:102A40000E94560467E671E064CD8091770390910F
:102A500078030097C9F486E980935D0384EB809343
:102A60005E0380EF80935F0366E571E080EC94E0A5
:102A70000E946E2B8CE593E01F910F91FF90EF90D9
:102A8000DF90CF900C94F50D019709F07FC080E0A6
:102A900090E0A0EAB0E48093610390936203A09376
:102AA0006303B09364038AE097EDA3E2BCE38093F1
:102AB000650390936603A0936703B093680380E077
:102AC00090E0A0E2B1E48093690390936A03A0933D
:102AD0006B03B0936C030E947D2860939503709301
:102AE00096038093970390939803C0906903D090C6
:102AF0006A03E0906B03F0906C0300916503109102
:102B000066032091670330916803409161035091FF
:102B10006203609163037091640383E293E00E9417
:102B2000691E68E471E0D5CE6DEE71E01EC06EECFA
:102B300071E01BC080EC94E01F910F91FF90EF902B
:102B4000DF90CF900C94692C6CEA71E00EC022E00B
:102B500030E080EC94E01F910F91FF90EF90DF90B8
:102B6000CF900C94892D6BE771E080EC94E00E948B
:102B70003C2B4AE050E0B60180EC94E01F910F91AD
:102B8000FF90EF90DF90CF900C943D2C1F910F9110
:102B9000FF90EF90DF90CF9008950F931F93CF9306
:102BA000DF938C01FC0160817181F1E0693C7F075A
:102BB00041F4C0915D03D0E046E950E024E630E006
:102BC00016C081E0613D780741F4C0915E03D0E01A
:102BD00048EC50E026E930E00AC06D57714039F406
:102BE000C0915F03D0E04FEF50E028EC30E0219639
:102BF000C217D3071CF04C175D070CF4E90141E044
:102C000060E08EE093E00E941C1B4AE050E0BE01B1
:102C10008EE093E00E94802C60E08EE093E00E94C2
:102C2000741CF80180819181F1E0893C9F0719F4BF
:102C3000C0935D030CC0E1E0813D9E0719F4C09391
:102C40005E0305C08D57914011F4C0935F03DF917F
:102C5000CF911F910F9108950F931F93CF93DF93FF
:102C60008C01FC0160817181F1E0693C7F0741F4D6
:102C7000C0915D03D0E026E930E044E650E016C0A4
:102C800081E0613D780741F4C0915E03D0E028EC1B
:102C900030E046E950E00AC06D57714039F4C09108
:102CA0005F03D0E02FEF30E048EC50E02197C417ED
:102CB000D5071CF02C173D070CF4E90141E060E05A
:102CC0008EE093E00E941C1B4AE050E0BE018EE0C3
:102CD00093E00E94802C60E08EE093E00E94741CE0
:102CE000F80180819181F1E0893C9F0719F4C0933C
:102CF0005D030CC0E1E0813D9E0719F4C0935E03C3
:102D000005C08D57914011F4C0935F03DF91CF91BF
:102D10001F910F910895CF93DF93EC018EE093E024
:102D20000E94151B688179818EE093E00E94612BDF
:102D300041E060E08EE093E00E941C1B8881998155
:102D400021E0893C920729F44AE050E060915D035C
:102D500010C021E0813D920729F44AE050E06091E3
:102D60005E0307C08D57914041F44AE050E0609106
:102D70005F038EE093E00E94622C88819981865DDA
:102D8000914039F060E08EE093E0DF91CF910C94B8
:102D9000741CDF91CF910895CF92DF92EF92FF9252
:102DA00041E060E08EE093E00E941C1BC090A30312
:102DB000D090A403E090A503F090A60320E030E0BB
:102DC00040E251E4C701B6010E943C3487FF03C0D2
:102DD00066EE71E00CC020E030E047EC52E4C70141
:102DE000B6010E943C3487FF06C067EE71E08EE0BA
:102DF00093E00E94612B4091A3035091A403609142
:102E0000A5037091A60320E030E08EE093E00E94DD
:102E1000872D60E08EE093E00E94741CC0909F03B9
:102E2000D090A003E090A103F090A20320E030E056
:102E300040E251E4C701B6010E943C3487FF03C061
:102E400066EE71E00CC020E030E047EC52E4C701D0
:102E5000B6010E943C3487FF06C067EE71E08EE049
:102E600093E00E94612B40919F035091A0036091D9
:102E7000A1037091A20320E030E08EE093E00E9475
:102E8000872D60E08EE093E0FF90EF90DF90CF9091
:102E90000C94741CCF92DF92EF92FF9241E060E0BD
:102EA0008EE093E00E941C1BC090A303D090A4036B
:102EB000E090A503F090A60320E030E040E251E46A
:102EC000C701B6010E943C3487FF03C066EE71E083
:102ED0000CC020E030E047EC52E4C701B6010E948C
:102EE0003C3487FF06C067EE71E08EE093E00E94FD
:102EF000612B4091A3035091A4036091A5037091AD
:102F0000A60320E030E08EE093E00E94872D60E091
:102F10008EE093E00E94741CC0909F03D090A003A9
:102F2000E090A103F090A20320E030E040E251E401
:102F3000C701B6010E943C3487FF03C066EE71E012
:102F40000CC020E030E047EC52E4C701B6010E941B
:102F50003C3487FF06C067EE71E08EE093E00E948C
:102F6000612B40919F035091A0036091A103709148
:102F7000A20320E030E08EE093E00E94872D60E025
:102F80008EE093E00E94741C8EE093E00E94321C5D
:102F90008091160141E08A3010F462E001C061E0E6
:102FA0008EE093E00E941C1B20E030E048E452E4F5
:102FB00060919F037091A0038091A1039091A2035F
:102FC0000E9440346B017C0120E030E040E850E496
:102FD0000E948B35181654F460E08091A9030E947A
:102FE000AB29809123019091240144C020E030E07E
:102FF00040E450E4C701B6010E948B35181654F422
:1030000060E08091A9030E94AB29809125019091F5
:10301000260130C020E030E040E050E4C701B601B6
:103020000E948B35181654F460E08091A9030E9429
:10303000AB2980912701909128011CC020E030E04D
:1030400040E85FE3C701B6010E948B3560E01816C7
:103050004CF48091A9030E94AB298091AE0390911A
:10306000AF0308C08091A9030E94AB298091290178
:1030700090912A019093AA038093A903FF90EF9067
:10308000DF90CF900895CF92DF92EF92FF920E944F
:103090007D28C0909103D0909203E0909303F0902C
:1030A0009403C616D706E806F90608F0FEC0D70155
:1030B000C60188519C4FAF4FBF4F809391039093AF
:1030C0009203A0939303B093940380917303909120
:1030D0007403019709F058C08091A9030E94E12967
:1030E00061E0892B09F060E08091A9030E94AB297F
:1030F00060916D0370916E036F5F7F4F70936E03ED
:1031000060936D034AE050E080EC94E00E94352C1F
:1031100064EE71E080EC94E00E94612B4091A30387
:103120005091A4036091A5037091A60322E030E0C2
:1031300080EC94E00E94872D64EE71E080EC94E0D6
:103140000E94612B40919F035091A0036091A103C5
:103150007091A20322E030E080EC94E00E94872D81
:1031600064EE71E080EC94E00E94612B40919B033F
:1031700050919C0360919D0370919E0322E030E08A
:1031800080EC94E00E94892D8EE093E00E94151B54
:10319000E0917503F0917603EE0FFF1FE55BFE4FA4
:1031A000608171818EE093E00E94612B41E060E0DC
:1031B0008EE093E00E941C1B809175039091760332
:1031C0000A97A9F08091770390917803009749F0CE
:1031D000019709F06AC0FF90EF90DF90CF900C94B8
:1031E0004A17FF90EF90DF90CF900C94CC1680910F
:1031F000A703813009F045C08EE093E00E942B1CAC
:10320000C0909F03D090A003E090A103F090A20390
:1032100020E030E44CE156E4C701B6010E943C34A2
:10322000811109C069EE71E08EE093E00E94612B8C
:103230006CEB72E032C020E034E44CE156E4C701AC
:10324000B6010E943C34882351F020E038E44CE180
:1032500056E4C701B6010E943C34811109C061EFF8
:1032600071E08EE093E00E94612B66EA72E015C087
:103270006AEF71E08EE093E00E94612B60E972E0FA
:103280000CC08EE093E00E942B1C63E072E08EE0A5
:1032900093E00E94612B65E872E080EC94E0FF907F
:1032A000EF90DF90CF900C946E2BFF90EF90DF901B
:1032B000CF900895CF92DF92EF92FF920F931F93DA
:1032C0008091770390917803029731F00E940E036A
:1032D0000E9443180E940E120E947D0480916F0389
:1032E00090917003892B09F088C0809177039091A9
:1032F0007803009729F0019729F40E94620E02C01A
:103300000E94AE0A8091710390917203892BC1F4DF
:103310008091730390917403019791F41092740358
:1033200010927303109276031092750361ED72E0B0
:1033300080EC94E00E946E2B10926E0310926D034D
:103340008091730390917403019709F051C00E941A
:103350007D286B017C0183E293E00E94491D8091EE
:10336000950390919603A0919703B0919803409193
:10337000990350919A03662757FD6095762F970120
:103380008601081B190B2A0B3B0B401751076207DC
:10339000730760F4840F951FA61FB71F80939503D2
:1033A00090939603A0939703B0939803809195030D
:1033B00090919603A0919703B0919803A70196016D
:1033C000281B390B4A0B5B0BCA01B9010E94D93487
:1033D0009B01AC0160919B0370919C0380919D03C4
:1033E00090919E030E948B35181614F461E001C081
:1033F00060E0809141010E94AB2980910503882300
:1034000009F463C08091730390917403019709F5E7
:103410000E947D286B017C01809107039091080335
:10342000A0910903B0910A03C81AD90AEA0AFB0A53
:103430002091060130910701409108015091090146
:10344000A8EEB3E00E941E369B01AC01A091C2021F
:1034500020C00E947D286B017C0180910703909120
:103460000803A0910903B0910A03C81AD90AEA0A0D
:10347000FB0A20910601309107014091080150910B
:103480000901A8EEB3E00E941E369B01AC01A09199
:10349000C102B0E00E941E366C157D058E059F05A9
:1034A00060F40E94FE080E947D28609307037093D9
:1034B00008038093090390930A031F910F91FF90D3
:1034C000EF90DF90CF900C947B0A1F910F91FF90AB
:1034D000EF90DF90CF900895CF93DF93EC0160E001
:1034E0008E810E94AB2981E090E00E94D42861E0A7
:1034F0008E810E94AB2981E090E00E94D42860E098
:103500008E810E94AB2984E690E0DF91CF910C94EC
:10351000D428CF92DF92EF92FF920F931F93CF9315
:10352000DF937C01C0E0D0E0C62ED12C87010C0FC8
:103530001D1F61E0F80187810E947229B6010C2EDF
:1035400002C0759567950A94E2F76170F80187816A
:103550000E94AB292196C430D10541F7C701DF9104
:10356000CF911F910F91FF90EF90DF90CF900C942F
:103570006C1ACF92DF92EF92FF920F931F93CF932B
:10358000DF937C01C0E0D0E0C62ED12C87010C0F68
:103590001D1F61E0F80187810E947229B6010C2E7F
:1035A00002C0759567950A94E2F76170F80187810A
:1035B0000E94AB292196C830D10541F7C701DF91A0
:1035C000CF911F910F91FF90EF90DF90CF900C94CF
:1035D0006C1A1F93CF93DF93EC01162F642F8C810D
:1035E0000E94AB298D818F3F19F060E00E94AB29CA
:1035F0008F85612F84FF06C0CE01DF91CF911F918F
:103600000C94B91A70E084E0759567958A95E1F796
:10361000CE010E94891A612FCE01DF91CF911F91B7
:103620000C94891A40E00C94E91A61E00E94121B84
:1036300080ED97E00C94D428CF93DF93CDB7DEB71D
:1036400028970FB6F894DEBF0FBECDBF28E0EBE69B
:10365000F1E0DE01119601900D922A95E1F7FC014F
:103660002389421710F04FEF420FFE013196E40F0D
:10367000F11DE40FF11D2081260F2068622F28968E
:103680000FB6F894DEBF0FBECDBFDF91CF910C9483
:10369000121BFC016089262F2460208B6C600C9427
:1036A000121BCF93DF93EC01423018F08F858860B6
:1036B0008F874B8B1C8A222329F0413019F48F8588
:1036C00084608F8780E593EC0E94D42860E08C8131
:1036D0000E94AB2960E08E810E94AB298D818F3FD3
:1036E00019F060E00E94AB296F8564FD1DC063E0A6
:1036F000CE010E94891A84E991E10E94D42863E0F6
:10370000CE010E94891A84E991E10E94D42863E0E5
:10371000CE010E94891A86E990E00E94D42862E0D6
:10372000CE010E94891A16C06062CE010E94121B4F
:1037300084E991E10E94D4286F856062CE010E94E5
:10374000121B86E990E00E94D4286F856062CE014A
:103750000E94121B6F856062CE010E94121B84E0E2
:10376000888BCE010E94491BCE010E94151B82E06E
:10377000898B66E0CE01DF91CF910C94121B6F9282
:103780007F928F92AF92CF92EF920F931F93CF932E
:10379000DF93CDB7DEB73C01162F842F5D854E85B4
:1037A0003F859889F301848325830683E782C08659
:1037B000A1868286538744873587968761E00E9479
:1037C0007229F30185818F3F19F061E00E9472290F
:1037D00061E0F30186810E947229112319F0F3013F
:1037E000178603C080E1F301878720E041E060E1B4
:1037F000C301DF91CF911F910F91EF90CF90AF90C8
:103800008F907F906F900C94511B8F92AF92CF92BC
:10381000EF920F93DC0113961C921E921297E9E42B
:10382000F2E0ED93FC931F921F921F921F928C2C3B
:10383000AE2CC02EE22E042F2FEF462F61E00E9407
:10384000BF1B0F900F900F900F900F91EF90CF90A4
:10385000AF908F900895FC0160896D7F608B6860E8
:103860000C94121BFC016089262F2260208B6A6059
:103870000C94121BCF92DF92EF92FF920F931F9343
:10388000CF93DF9300D0CDB7DEB78C01677088E0AF
:10389000689FB00111246064C80149835A830E9463
:1038A000121B4981C42E5A81D52EE12CF12CD60150
:1038B0006D916D01D801ED91FC910190F081E02DA9
:1038C000C8010995BFEFEB1AFB0AE8E0EE16F10418
:1038D00071F70F900F90DF91CF911F910F91FF9093
:1038E000EF90DF90CF90089541E00E94E91A81E0C7
:1038F00090E00895CF93DF93EC01862F688349838E
:103900002A8360E00E94722961E089810E94722905
:1039100061E08A810E94722961E089810E94AB295D
:1039200060E08A81DF91CF910C94AB298F929F92B6
:10393000AF92BF92CF92DF92EF92FF920F931F93BD
:10394000CF93DF93EC0160E089810E94AB29C12C09
:10395000D12C76010FE110E0812C912C540183943D
:1039600061E08A810E94AB2988810E94E129892B2C
:1039700071F0D501C401002E04C0880F991FAA1F41
:10398000BB1F0A94D2F7C82AD92AEA2AFB2A60E088
:103990008A810E94AB290150110910F761E08981E9
:1039A0000E94AB29C701B601DF91CF911F910F9102
:1039B000FF90EF90DF90CF90BF90AF909F908F904F
:1039C0000895CF93DF93EB010E94961C80FF1BC0EC
:1039D000DC01CB0187709927AA27BB270197A10992
:1039E000B10984309105A105B10508F04CC0FC0176
:1039F000EE0FFF1FEE0FFF1FE35BFD4F6081718134
:103A00008281938143C0DC01CB0122E1B695A79569
:103A1000979587952A95D1F795FD08C0BC01CD01F2
:103A20007F71882799270E94D93412C0BC01CD012B
:103A300060957095809590957F71882799270E9451
:103A4000D93420E030E040E85FE30E94D83390585A
:103A500020E030E040E85EE30E948F352197B1F42A
:103A600020E030E040E151E40E948F3520E030E07A
:103A700040EA50E40E94403420E030E040E052E46C
:103A80000E94D83303C060E070E0CB01DF91CF919A
:103A900008952F923F924F925F926F927F928F92F2
:103AA0009F92AF92BF92CF92DF92EF92FF920F93CD
:103AB0001F93CF93DF93CDB7DEB72B970FB6F89454
:103AC000DEBF0FBECDBF9B878A87DC01D896BC9135
:103AD000B983B11102C01982E2C00E947D286A83B5
:103AE0007B838C839D83EA85FB8580A191A1A2A124
:103AF000B3A14A815B816C817D81481B590B6A0BA4
:103B00007B0B84A595A5A6A5B7A5481759076A07F5
:103B10007B0708F3028CF38DE02D80809180A280DA
:103B2000B380AA85BB855E96ED91FC915F97A50158
:103B3000940160817181828193810E94D7332B012E
:103B40003C01EA85FB8520893189428953890E949D
:103B50008F35AA85BB8594962D913D914D915C91B1
:103B600097970E94D8336B017C01EA85FB8564A39B
:103B700075A386A397A324A835A806A917A9910120
:103B8000A8010E948B3518161CF4C101D80118C079
:103B9000AA85BB85D0968D919D910D90BC91A02D4D
:103BA0008E839F83A887B9879C01AD01C701B601A9
:103BB0000E943C3487FF0AC08E819F81A885B98509
:103BC000EA85FB8584A395A3A6A3B7A3AA85BB8595
:103BD0001C962D913D914D915C911F97C301B201AF
:103BE0000E948F35EA85FB8524A135A146A157A106
:103BF0000E94D8336B017C01AA85BB8598962D91D4
:103C00003D914D915C919B97C501B4010E94D733C2
:103C1000EA85FB8524893589468957890E948F3535
:103C20009B01AC01C701B6010E94D7336B017C0137
:103C30009101A8010E948B351816BCF0AA85BB859E
:103C4000D0962C90D097D1963C90D197D2960C914B
:103C5000D297D3961C919101A801B601C7010E9489
:103C60003C3487FD02C016018701AA85BB855C969E
:103C7000ED91FC915D97C101D80180839183A2836E
:103C8000B383EA85FB8580A691A6A2A6B3A68A8106
:103C90009B81AC81BD8180A391A3A2A3B3A38981A1
:103CA0002B960FB6F894DEBF0FBECDBFDF91CF913C
:103CB0001F910F91FF90EF90DF90CF90BF90AF904A
:103CC0009F908F907F906F905F904F903F902F903C
:103CD00008952F923F924F925F926F927F928F92B0
:103CE0009F92AF92BF92CF92DF92EF92FF920F938B
:103CF0001F93CF93DF9300D000D0CDB7DEB71C0168
:103D00002A013B014801590120E030E0A901C3012B
:103D1000B2010E943C3487FD78C020E030E0A90168
:103D2000C501B4010E943C3487FD6FC020E030E043
:103D3000A901C701B6010E943C3487FD66C0F101AC
:103D4000408251826282738284829582A682B78287
:103D5000C086D186E286F38664A575A586A597A55B
:103D60000E94D93420E030E04AE754E40E94403415
:103D700069837A838B839C83F101448655866686AA
:103D800077869B01AC01C501B4010E948F354B01C0
:103D90005C01F101608B718B828B938B29813A815D
:103DA0004B815C81C701B6010E9440346B017C01EC
:103DB000F101648B758B868B978B808D918D01972C
:103DC00021F5A301920160E070E0CB010E94D7339E
:103DD000F1016487758786879787A501940160E064
:103DE00070E0CB010E94D733F101608B718B828B25
:103DF000938BA701960160E070E0CB010E94D7335E
:103E0000F101648B758B868B978B0F900F900F90C1
:103E10000F90DF91CF911F910F91FF90EF90DF9066
:103E2000CF90BF90AF909F908F907F906F905F905A
:103E30004F903F902F9008958F929F92AF92BF9294
:103E4000CF92DF92EF92FF92CF93DF93EC011616A1
:103E50001706ACF56B01EE24D7FCE094FE2CC701ED
:103E6000B6010E94DB344B015C016CA57DA58EA5DB
:103E70009FA50E94D9349B01AC01C501B4010E94E9
:103E800040344B015C019B01AC01688979898A89C6
:103E90009B890E948F35688B798B8A8B9B8BA501C0
:103EA00094016C897D898E899F890E9440346C8B36
:103EB0007D8B8E8B9F8BCCA6DDA6EEA6FFA6DF9119
:103EC000CF91FF90EF90DF90CF90BF90AF909F90F9
:103ED0008F9008952F923F924F925F926F927F92B0
:103EE0008F929F92AF92BF92CF92DF92EF92FF920A
:103EF0000F931F93CF93DF93EC016A017B0148017D
:103F00005901A9019801C701B6010E948B3587FFAD
:103F10004EC0C8AAD9AAEAAAFBAA8CAA9DAAAEAA90
:103F2000BFAA88AD882309F442C02C8C3D8CF101D6
:103F30004080518062807380A5019401C301B20169
:103F40000E948B35181634F4F10180829182A2828E
:103F5000B3820DC0A7019601C301B2010E943C3497
:103F600087FF05C0F101C082D182E282F3828CA07A
:103F70009DA0AEA0BFA0CCA8DDA8EEA8FFA8A70179
:103F80009601C501B4010E948B35181664F0C8A8CB
:103F9000D9A8EAA8FBA8A7019601C501B4010E940F
:103FA0003C3487FF04C0CCA2DDA2EEA2FFA2DF91C9
:103FB000CF911F910F91FF90EF90DF90CF90BF9026
:103FC000AF909F908F907F906F905F904F903F90B9
:103FD0002F9008958F929F92AF92BF92CF92DF92CF
:103FE000EF92FF92CF93DF93EC01EC8DFD8DC080BB
:103FF000D180E280F380CCA2DDA2EEA2FFA2EA8D06
:10400000FB8D80819181A281B38188A799A7AAA7FE
:10401000BBA78CA89DA8AEA8BFA8A5019401C70105
:10402000B6010E948B35181664F088A899A8AAA832
:10403000BBA8A5019401C701B6010E943C3487FFCB
:1040400004C08CA29DA2AEA2BFA2DF91CF91FF902F
:10405000EF90DF90CF90BF90AF909F908F9008959A
:104060001F93CF93DF93EC0111E06130710509F0EC
:1040700010E088AD91E08927181303C0CE010E949B
:10408000EA1F18AFDF91CF911F9108950F931F93EF
:10409000CF93DF93EC018B0188AD882361F1888D8C
:1040A000998D6817790739F12C853D854E855F8597
:1040B00060E070E0CB010E94D7336C877D878E87EC
:1040C0009F87288939894A895B8960E070E0CB0144
:1040D0000E94D733688B798B8A8B9B8B2C893D8987
:1040E0004E895F8960E070E0CB010E94D7336C8B12
:1040F0007D8B8E8B9F8B198F088FDF91CF911F91B6
:104100000F9108954F925F926F927F928F929F923C
:10411000AF92BF92CF92DF92EF92FF920F931F93D5
:10412000CF93DF9300D000D0CDB7DEB74C0127018D
:104130003801A982BA82CB82DC82FC01558F448F80
:10414000738F628F378F268F10AE10AA11AA12AA12
:1041500013AA80E090E0AFE7B3E484AB95ABA6ABE5
:10416000B7AB84E690E0A0E0B0E084A795A7A6A74F
:10417000B7A76B8D7C8DC4010E944620CF88D88C58
:10418000E98CFA8C09811A812B813C81B301A2014F
:10419000C4010E94691E0E947D28F40144A455A414
:1041A00066A477A4641975098609970960A371A3A9
:1041B00082A393A30F900F900F900F90DF91CF9158
:1041C0001F910F91FF90EF90DF90CF90BF90AF9035
:1041D0009F908F907F906F905F904F90089508957B
:1041E00081E0809366048091640490916504DC0111
:1041F000ED91FC910484F585E02D099510926604FB
:104200000895FC01F8948CB581878DB582878CB5B3
:10421000837F8CBD8CB58F7D8CBD8CB58C7F8CBD28
:104220008DB58E7F8DBD60E082810C94AB29F894B2
:1042300020916F04233021F420916B0421110FC0D1
:1042400020916F04233011F4789407C0DC01ED91C4
:10425000FC910288F389E02D099580E00895DC0146
:10426000ED91FC910488F589E02D61E0099581E0EC
:104270000895CF93DF93EC0161E08A810E94AB291E
:1042800089858CBD8A858DBD80916604811101C0B0
:104290007894DF91CF910895DC01ED91FC91048831
:1042A000F589E02D60E00994CF93DF931F92CDB79D
:1042B000DEB7DC01ED91FC910480F581E02D69838E
:1042C00009956981882359F080916D04861711F052
:1042D0006F3F29F49091690481E0911101C080E061
:1042E0000F90DF91CF9108952F923F924F925F925E
:1042F0007F928F929F92AF92BF92CF92DF92EF9276
:10430000FF920F931F93CF93DF93EC01962E5A01E8
:10431000722E802E10E0CE2CD12CE12CF12CE881D5
:10432000F9810190F081E02D01E0272DA501692D93
:10433000CE0109950E947D281B012C010E947D2839
:1043400062197309840995096C157D058E059F0511
:1043500040F4692DCE010E945421882379F381E035
:1043600004C01F5F8116D8F680E0DF91CF911F91C6
:104370000F91FF90EF90DF90CF90BF90AF909F9004
:104380008F907F905F904F903F902F9008958091F5
:104390006A04882329F090916C0481E09F3F09F41E
:1043A00080E00895EF92FF921F93CF93DF931F92C7
:1043B000CDB7DEB77C01DC01ED91FC91008CF18D75
:1043C000E02D698309956981862F8F770E94FC26ED
:1043D00080E00E94FC26182FD701ED91FC91028C01
:1043E000F38DE02DC7010995812F0F90DF91CF91BB
:1043F0001F91FF90EF9008950F931F93CF93DF933A
:1044000000D0CDB7DEB78C01DC01ED91FC91008CC2
:10441000F18DE02D4A83698309956981862F806833
:104420000E94FC264A81842F0E94FC26D801ED912F
:10443000FC91028CF38DE02DC8010F900F90DF915D
:10444000CF911F910F9109941F93CF93DF93EC01AC
:10445000162F80916F04681709F461C0623009F467
:1044600040C070F4662309F444C0613009F057C0BD
:1044700061E0CE010E94D221482F437E44603FC0BC
:104480006330C1F0643009F04AC061E0CE010E949F
:10449000D221482F437E4C6061E0CE010E94FC2176
:1044A0008885882381F1E881F9810688F789E02DE4
:1044B00061E014C061E0CE010E94D221482F437E0A
:1044C000406161E0CE010E94FC2188858823D9F0FB
:1044D000E881F9810688F789E02D60E0CE01099531
:1044E00012C061E0CE010E94D221482F437E486075
:1044F00006C061E0CE010E94D221482F437E61E0D8
:10450000CE010E94FC2180916F04811106C067E2F8
:10451000CE010E94D22187FFF6CF10936F04DF9166
:10452000CF911F910895462FFC01658369E30C9498
:10453000FC21462F60E30C94FC21CF93DF93EC0128
:10454000603208F06FE16F838885882311F06695EB
:104550006F8361E1CE010E94D221482F407E8F817E
:10456000482B61E1CE01DF91CF910C94FC21CF92D9
:10457000DF92EF92FF920F931F93CF93DF93EC01A3
:10458000F62ED42EC52E122FE881F9810488F589E4
:10459000E02D61E0099567E2CE010E94D22187FFFC
:1045A000FACF40E065E2CE010E94FC211E3308F004
:1045B0001DE3E11004C0002319F000E401C000E88D
:1045C000E881F981008CF18DE02DCE01099580E81C
:1045D0000E94FC2683E0810F0E94FC268F2D0E9402
:1045E000FC268D810E94FC26802F0E94FC260D2D2A
:1045F000ED2CFC2C8E2D801B811730F4F70181915E
:104600007F010E94FC26F6CFE881F981028CF38DB0
:10461000E02DCE010995E881F9810488F589E02D26
:1046200064E0CE0109950E947D286B017C018B819D
:104630000E94E129892B81F0E881F9810488F589BC
:10464000E02D61E0CE01DF91CF911F910F91FF909E
:10465000EF90DF90CF9009940E947D286C197D091E
:104660008E099F09683E73408105910528F7DFCFC9
:10467000CF93DF93EC0110926E0410926D041092B0
:104680006C0410926B0410926A04109269041092E8
:1046900068041092670468E20E94D22182FF0AC077
:1046A0006DE3CE010E94D221482F44606DE3CE011C
:1046B0000E94FC2140E465E2CE010E94FC21E881D9
:1046C000F9810488F589E02D63E0CE01DF91CF9177
:1046D0000994DF92EF92FF920F931F93CF93DF9392
:1046E000EC018B01E881F9810488F589E02D61E016
:1046F000099501151105E1F0E881F981008CF18D32
:10470000E02DCE0109958EEB0E94FC267801D12C7C
:10471000F70181917F010E94FC26D394F0E1DF1222
:10472000F7CFE881F981028CF38DE02DCE01099558
:104730006DE3CE010E94D2218E7F91E0012B09F41E
:1047400090E0482F492B6DE3CE01DF91CF911F916F
:104750000F91FF90EF90DF900C94FC218F929F922D
:10476000AF92BF92DF92EF92FF920F931F93CF937E
:10477000DF93CDB7DEB7AE970FB6F894DEBF0FBEAE
:10478000CDBF7C01D42E8EE28E010F5F1F4FD8016A
:10479000E82F1D92EA95E9F791E0998334E03A8396
:1047A00042E04B8393E09D834E833F8340E4488700
:1047B00035E039879A8796E09B8793E39C8737E0BB
:1047C0003D8798E09F8799E0998B99E19B8B92E4D4
:1047D0009C8B55E25D8B4E8B46E24F8B388F38E2D7
:1047E000398F30E13A8F39E23B8F3CED3C8F8D8F32
:1047F00088E88E8F8FE28F8F8DE288A380E389A374
:1048000037E33BA330E93CA338E33DA39EA39CE3FD
:104810009FA39FE898A79DE399A792E19AA79FE697
:104820009BA78CA78FEF8DA76F3131F06B3231F0E2
:10483000663531F489ED05C08EE403C08CE601C015
:1048400084EE8E876F3141F06B3221F0663521F4B2
:1048500080E003C080E401C080EC888B2AA361E083
:10486000D70112968C910E94AB2961E0F7018281F9
:104870000E9472290E94EE260E947D284B015C0155
:104880004AEA6FE2C7010E94FC216FE2C7010E9461
:10489000D2218A3A59F00E947D28681979098A093B
:1048A0009B09623371058105910550F30E947D28B3
:1048B000681979098A099B09623371058105910597
:1048C000D8F40E947D284B015C0145E56FE2C701E9
:1048D0000E94FC216FE2C7010E94D221853571F050
:1048E0000E947D28681979098A099B09623371053C
:1048F0008105910518F4E9CF80E066C00E947D280B
:10490000681979098A099B09623371058105910546
:1049100098F7B12CF801EB0DF11DEB0DF11D608145
:104920006F3F31F04181C7010E94FC21B394F2CF67
:1049300060E070E0C7010E946923D701ED91FC910E
:1049400011970084F185E02D18966C91C7010995A7
:10495000D701ED91FC910488F589E02D61E0C70154
:1049600009950E947D284B015C0167E2C7010E9406
:10497000D22187FD0BC00E947D28681979098A0918
:104980009B09623371058105910578F30E947D28AA
:10499000681979098A099B096233710581059105B6
:1049A00008F0AACF1092660443E050E060EF70E296
:1049B000F70184810E940227F0926504E09264046A
:1049C000D7011596DC9281E0AE960FB6F894DEBF63
:1049D0000FBECDBFDF91CF911F910F91FF90EF9050
:1049E000DF90BF90AF909F908F900895CF93DF930B
:1049F000EC0161110DC064E2CE010E94D22190E071
:104A000091958195910995958795DF91CF9108951D
:104A100041E063E20E94FC2163E2CE010E94D221C8
:104A200081FFFACFE8CFCF93DF93EC0180916F0441
:104A30008330A9F480916B04811111C060E0CE0134
:104A40000E94F624863A9F4F54F4E881F981048845
:104A5000F589E02D61E0CE01099581E001C080E09B
:104A6000DF91CF910895FF920F931F93CF93DF9320
:104A7000EC0180916F04833001F568E2CE010E9461
:104A8000D22182FD28C019C080916E048D3330F48C
:104A9000E0916E04F0E0E059FB4F1082E881F9816B
:104AA000028CF38DE02DCE010995E881F98104880F
:104AB000F589E02D63E0CE01099560E0CE010E940A
:104AC000F6249093680480936704DF91CF911F913F
:104AD0000F91FF900895E881F9810488F589E02D10
:104AE00061E0CE010995E881F981008CF18DE02D1E
:104AF000CE01099580E00E94FC2680E00E94FC2601
:104B000080936B0480916B048334D0F480916B04A8
:104B100080936B0480E00E94FC2680936C048E815D
:104B2000811109C090916C048D81981721F08091BA
:104B30006C048F3F39F480916B04833018F017C0F8
:104B400082E4E6CF10926B04E881F981028CF38D48
:104B5000E02DCE010995E881F9810288F389E02DE5
:104B6000CE01DF91CF911F910F91FF900994809119
:104B70006B04835080936E0480E00E94FC26809337
:104B80006D0480E00E94FC26982F90789093690431
:104B9000982F907490936A04E881F9810684F785D0
:104BA000E02D682FCE010995F12C80916E04F81646
:104BB00008F06ACF0F2D10E080E00E94FC26F8017B
:104BC000E059FB4F8083F394F0CF4F925F926F9246
:104BD0007F929F92AF92BF92EF920F931F93CF93CA
:104BE000DF93EC01162F5A01922E6DE30E94D22121
:104BF000482F44606DE3CE010E94FC210E947D2875
:104C00002B013C01CE010E9413258823C1F0E881CD
:104C1000F9810088F189E02DE12C292DA501612F72
:104C2000CE010995DF91CF911F910F91EF90BF9029
:104C3000AF909F907F906F905F904F9008950E94EB
:104C40007D286419750986099709683E73408105B6
:104C50009105E8F6E881F9810480F581E02DCE0127
:104C60000995D0CF4F925F926F927F929F92AF92B1
:104C7000BF92CF92DF92EF92FF920F93CF93DF9389
:104C8000EC015B01942E10926A04F0906D04C090C8
:104C90006704D09068046DE30E94D221482F4460DD
:104CA0006DE3CE010E94FC210E947D282B013C0176
:104CB000CE010E941325882311F1F0926D04E88142
:104CC000F9810088F189E02DEE24E39400E0292D9C
:104CD000A5016F2DCE010995D0926804C09267049A
:104CE000DF91CF910F91FF90EF90DF90CF90BF9029
:104CF000AF909F907F906F905F904F9008950E942B
:104D00007D286419750986099709683E73408105F5
:104D1000910598F6E881F9810480F581E02DCE01B6
:104D20000995C6CFCF93DF93EC016887662311F016
:104D30004FE001C04AE163E1CE010E94FC21888579
:104D4000882341F061E1CE010E94D221482F4F71AA
:104D5000406602C04F81406861E1CE01DF91CF9192
:104D60000C94FC211F93CF93DF93EC01162F662345
:104D700011F04DE501C045E56AE5CE010E94FC2138
:104D8000112311F04CE701C040E76CE5CE01DF9143
:104D9000CF911F910C94FC211F93CF93DF93EC01D3
:104DA000162FE881F9810488F589E02D61E00995E5
:104DB00048E06EE4CE010E94FC216EE4CE010E9428
:104DC000D22182FDFACF6FE4CE010E94D2211B5581
:104DD000181B812FDF91CF911F9108958CB58061B1
:104DE0008CBD8CB580648CBD61E08FE00E9472291F
:104DF00061E080E10C9472298EBD0DB407FEFDCFF9
:104E00008EB50895853008F04CC0E82FF0E0EE0F25
:104E1000FF1FE355FB4F718360838230E1F018F48C
:104E2000813069F004C0833019F1843071F18091D0
:104E300069008C7F842B80936900E89A08958091A3
:104E40006900440F551F440F551F837F842B8093A7
:104E50006900E99A08958091690034E0440F551F74
:104E60003A95E1F78F7C842B80936900EA9A089544
:104E70008091690026E0440F551F2A95E1F78F7352
:104E8000842B80936900EB9A089580916A0094E0E6
:104E9000440F551F9A95E1F78F7C842B80936A000D
:104EA000EE9A08951F920F920FB60F9211242F932E
:104EB0003F934F935F936F937F938F939F93AF93A2
:104EC000BF93EF93FF938091AD049091AE04892B33
:104ED00029F0E091AD04F091AE040995FF91EF91B6
:104EE000BF91AF919F918F917F916F915F914F9102
:104EF0003F912F910F900FBE0F901F9018951F920A
:104F00000F920FB60F9211242F933F934F935F93FD
:104F10006F937F938F939F93AF93BF93EF93FF9381
:104F20008091AF049091B004892B29F0E091AF04F7
:104F3000F091B0040995FF91EF91BF91AF919F91CE
:104F40008F917F916F915F914F913F912F910F9032
:104F50000FBE0F901F9018951F920F920FB60F92D1
:104F600011242F933F934F935F936F937F938F936E
:104F70009F93AF93BF93EF93FF938091B104909170
:104F8000B204892B29F0E091B104F091B2040995A3
:104F9000FF91EF91BF91AF919F918F917F916F9111
:104FA0005F914F913F912F910F900FBE0F901F90E7
:104FB00018951F920F920FB60F9211242F933F93C3
:104FC0004F935F936F937F938F939F93AF93BF9311
:104FD000EF93FF938091B3049091B404892B29F04F
:104FE000E091B304F091B4040995FF91EF91BF9162
:104FF000AF919F918F917F916F915F914F913F9171
:105000002F910F900FBE0F901F9018951F920F9227
:105010000FB60F9211242F933F934F935F936F938B
:105020007F938F939F93AF93BF93EF93FF93809161
:10503000B5049091B604892B29F0E091B504F09164
:10504000B6040995FF91EF91BF91AF919F918F9118
:105050007F916F915F914F913F912F910F900FBE74
:105060000F901F9018951F920F920FB60F92112458
:105070002F933F938F939F93AF93BF938091B804E7
:105080009091B904A091BA04B091BB043091B704D7
:1050900023E0230F2D3720F40196A11DB11D05C07B
:1050A00026E8230F0296A11DB11D2093B70480931B
:1050B000B8049093B904A093BA04B093BB04809150
:1050C000BC049091BD04A091BE04B091BF040196B0
:1050D000A11DB11D8093BC049093BD04A093BE0498
:1050E000B093BF04BF91AF919F918F913F912F914A
:1050F0000F900FBE0F901F9018952FB7F8946091E6
:10510000B8047091B9048091BA049091BB042FBF88
:1051100008953FB7F8948091BC049091BD04A0918C
:10512000BE04B091BF0426B5A89B05C02F3F19F05F
:105130000196A11DB11D3FBF6627782F892F9A2F99
:10514000620F711D811D911D42E0660F771F881F40
:10515000991F4A95D1F70895CF92DF92EF92FF926F
:10516000CF93DF936B017C010E948928EB01C1146E
:10517000D104E104F10489F00E9493320E9489284D
:105180006C1B7D0B683E734090F381E0C81AD10818
:10519000E108F108C851DC4FEACFDF91CF91FF90D1
:1051A000EF90DF90CF9008958230910538F0880F0E
:1051B000991F880F991F05970197F1F70895789423
:1051C00084B5826084BD84B5816084BD85B582600C
:1051D00085BD85B5816085BDEEE6F0E080818160AA
:1051E0008083E1E8F0E010828081826080838081AA
:1051F00081608083E0E8F0E0808181608083E1E984
:10520000F0E0808182608083808181608083E0E93A
:10521000F0E0808181608083E1ECF0E08081846057
:105220008083808182608083808181608083E3ECE1
:10523000F0E0808181608083E0ECF0E0808182603A
:105240008083E2ECF0E0808181608083EAE7F0E037
:10525000808184608083808182608083808181609E
:105260008083808180688083089590E0FC0131977D
:10527000EF30F105B0F5E958FF4F0C9418368091E6
:1052800080008F7703C0809180008F7D80938000A5
:10529000089580918000877FF9CF84B58F7702C011
:1052A00084B58F7D84BD0895809190008F7707C06D
:1052B000809190008F7D03C080919000877F8093C4
:1052C000900008958091C0008F7703C08091C00046
:1052D0008F7D8093C00008958091C200877F809366
:1052E000C2000895CF93DF9390E0FC01E450FD4F9E
:1052F0002491FC01E65EFC4F8491882349F190E003
:10530000880F991FFC01EC5AFC4FA591B4918A5B60
:105310009C4FFC01C591D4919FB7611108C0F894CE
:105320008C91209582238C93888182230AC06230DD
:1053300051F4F8948C91322F309583238C9388818B
:10534000822B888304C0F8948C91822B8C939FBF0E
:10535000DF91CF9108950F931F93CF93DF931F9207
:10536000CDB7DEB7282F30E0F901E252FD4F84912E
:10537000F901E450FD4F1491F901E65EFC4F0491F0
:105380000023C9F0882321F069830E9435296981AF
:10539000E02FF0E0EE0FFF1FEA5BFC4FA591B49108
:1053A0009FB7F8948C91611103C01095812301C0BF
:1053B000812B8C939FBF0F90DF91CF911F910F9105
:1053C0000895CF93DF93282F30E0F901E252FD4F8B
:1053D0008491F901E450FD4FD491F901E65EFC4F50
:1053E000C491CC2391F081110E943529EC2FF0E07B
:1053F000EE0FFF1FE85CFC4FA591B4912C912D237B
:1054000081E090E021F480E002C080E090E0DF9154
:10541000CF910895CF93DF931F92CDB7DEB7698305
:10542000DC01ED91FC910280F381E02D41E050E040
:10543000BE016F5F7F4F09950F90DF91CF91089567
:10544000CF93DF93EC018C859D8597FF05C082E0AB
:105450000E94C02F9D878C878C859D85DF91CF9181
:10546000089583E00C941532FC018485958597FDA1
:1054700006C082E00E94682F90E00196089582E0C5
:105480000E94682F90E00895FC018485958597FD22
:1054900005C02FEF3FEF35872487089582E00C94F5
:1054A000C02FCF93DF93EC0180916801882331F006
:1054B00083E00E94F12F1816190634F081E090E085
:1054C0009B838A8380E090E0DF91CF910895FC0177
:1054D00020812E5F208342E450E062E673E080E8A2
:1054E0000C948C30FC0181819081913A59F4813285
:1054F00009F03CC047E050E061E671E080E00E94C6
:105500008C3043C0913291F5803239F467E070E01D
:1055100081E691E00E94BD3006C0823209F035C0BC
:105520008281809368018091610190916201A091D4
:105530006301B0916401803B9440A105B105C1F4C1
:105540008091680180FD14C087E797E79093010878
:10555000809300082BE088E190E00FB6F894A895BE
:10556000809360000FBE209360000FC080E008951C
:1055700088E10FB6F89480936000109260000FBE2F
:10558000A895109201081092000881E008952FEF6D
:105590003FEFFC013587248708951092C3041092D1
:1055A000C20488EE93E0A0E0B0E08093C40490933E
:1055B000C504A093C604B093C70481E892E0909319
:1055C000C1048093C0048FEF9FEF9093CD0480932C
:1055D000CC04089508950E94DF280E94EA2A80E101
:1055E00095E00E9475320E947009C0E0D0E00E94F0
:1055F0005A192097E1F30E940000F9CFCF92DF9271
:10560000EF92FF920F931F93CF93DF936C017A0178
:10561000EB01E60EF71E00E010E0CE15DF0561F0AD
:105620006991D601ED91FC910190F081E02DC601C8
:105630000995080F191FF1CFC801DF91CF911F9174
:105640000F91FF90EF90DF90CF9008956115710555
:1056500081F0DB010D900020E9F7AD0141505109C7
:10566000461B570BDC01ED91FC910280F381E02D8C
:10567000099480E090E00895EF92FF920F931F93BA
:10568000CF93DF938C01FB01C0E0D0E064917F01F8
:105690008FEFE81AF80A662361F0D801ED91FC91CA
:1056A0000190F081E02DC8010995C80FD91FF701BD
:1056B000EDCFCE01DF91CF911F910F91FF90EF9031
:1056C00008950C94262BDC01ED91FC910190F08162
:1056D000E02D09946DE872E00C94262B0F931F9334
:1056E000CF93DF93EC010E943C2B8C01CE010E94F2
:1056F0006A2B800F911FDF91CF911F910F91089519
:105700000F931F93CF93DF93EC010E94262B8C0104
:10571000CE010E946A2B800F911FDF91CF911F91C4
:105720000F9108958F929F92AF92BF92CF92DF9286
:10573000EF92FF920F931F93CF93DF93CDB7DEB716
:10574000A1970FB6F894DEBF0FBECDBF7C01C42E6B
:10575000E52FCB01D22E19A221E02D1510F02AE061
:10576000D22E8E010F5D1F4F8D2C912CA12CB12CB0
:105770006C2D7E2FA50194010E94F6358C2DD29EB2
:1057800080191124015011098A3014F4805D01C080
:10579000895CF8018083211531054105510521F00F
:1057A000C22EE32FCA01E4CFB801C7010E94262B05
:1057B000A1960FB6F894DEBF0FBECDBFDF91CF919B
:1057C0001F910F91FF90EF90DF90CF90BF90AF901F
:1057D0009F908F900895CF92DF92EF92FF920F9358
:1057E0001F93CF93DF93EC016A017B0121153105F3
:1057F00079F4E881F9810190F081E02D642FDF9147
:10580000CF911F910F91FF90EF90DF90CF9009946F
:105810002A303105E9F477FF1AC06DE20E94632B4C
:105820008C0144275527BA014C195D096E097F097F
:105830002AE0CE010E94922B800F911FDF91CF9121
:105840001F910F91FF90EF90DF90CF9008952AE085
:10585000B701A601CE01DF91CF911F910F91FF906B
:10586000EF90DF90CF900C94922B9A01AB016627BA
:1058700057FD6095762F0C94EB2B0F931F93CF93CE
:10588000DF93EC019A01AB01662757FD6095762FF7
:105890000E94EB2B8C01CE010E946A2B800F911F7E
:1058A000DF91CF911F910F9108952115310541F49A
:1058B000DC01ED91FC910190F081E02D642F0994C1
:1058C0000C94922B9A01462F50E060E070E00C940B
:1058D000552C0F931F93CF93DF93EC019A01462F22
:1058E00050E060E070E00E94552C8C01CE010E94D7
:1058F0006A2B800F911FDF91CF911F910F91089517
:105900009A01AB0160E070E00C94552C0F931F934B
:10591000CF93DF93EC019A01AB0160E070E00E944D
:10592000552C8C01CE010E946A2B800F911FDF91B4
:10593000CF911F910F9108954F925F926F927F9236
:105940008F929F92AF92BF92CF92DF92EF92FF928F
:105950000F931F93CF93DF93EC016A017B01B22E6B
:105960009A01AB01C701B6010E94F235882319F0F4
:1059700060E972E027C026013701E89477F82FEF3D
:105980003FEF4FE75FE7C301B2010E94F23581119B
:105990000DC02FEF3FEF4FE75FE7C301B2010E9459
:1059A0003C3418161CF464E972E00CC02FEF3FEF92
:1059B0004FE75FE4C701B6010E948B351816ACF4BF
:1059C00068E972E0CE01DF91CF911F910F91FF90B6
:1059D000EF90DF90CF90BF90AF909F908F907F908F
:1059E0006F905F904F900C94262B2FEF3FEF4FE777
:1059F0005FECC701B6010E943C3487FDE1CF20E097
:105A000030E0A901C701B6010E943C3487FF0AC0FB
:105A10006DE2CE010E94632B8C01F7FAF094F7F847
:105A2000F09402C000E010E0A12C60E070E080E0A3
:105A30009FE3AB1441F020E030E040E251E40E94EB
:105A40004034A394F6CF9B01AC01C701B6010E947C
:105A5000D8336B017C010E94AD342B013C010E94C4
:105A6000D9349B01AC01C701B6010E94D7336B0149
:105A70007C012AE0B301A201CE010E94922B080F03
:105A8000191FBB2039F06CE972E0CE010E94262B71
:105A9000080F191F7B2C772041F120E030E040E215
:105AA00051E4C701B6010E948F356B017C010E9451
:105AB000A8344B01AA2497FCA094BA2C2AE030E029
:105AC000B501A401CE010E94EB2B080F191FC501DF
:105AD000B4010E94DB349B01AC01C701B6010E94F6
