:100000000C9404020C9486060C945F060C9438063B
:100010000C9411060C942C020C942C020C94EA05FE
:100020000C942C020C942C020C9431140C94A314F8
:100030000C942C020C942C020C942C020C942C0288
:100040000C942C020C942C020C942C020C942C0278
:100050000C942C020C942C020C942C020C94A005F1
:100060000C942C020C942C020C942C020C942C0258
:100070000C942C020C942C020C942C020C942C0248
:100080000C942C020C942C020C942C020C942C0238
:100090000C942C020C942C020C942C020C942C0228
:1000A0000C942C020C942C020C942C025E1F661FE4
:1000B0002722AE1F27222722BD1F272227222722E1
:1000C000092027222A203F2027229E2003212421A5
:1000D00070212722A521BE2161242D25A1253226AC
:1000E000D5261D270C2B0C2B0C2B54277B27AC0261
:1000F000AF029E02A202A802D002D002D002B30236
:10010000B702BB02C102C502D002CB02453A20555C
:100110006E6B6E6F776E00453A2054696D656F7532
:100120007420746F205265666C6F7700453A2054D6
:100130006865726D6F636F75706C65204572726F64
:100140007200453A20546865726D6F636F75706C0C
:10015000652053686F727400453A20546865726D6B
:100160006F636F75706C65204F70656E00493A2043
:100170005049442D3E524553455400493A2052457A
:10018000464C4F572D3E524553455400493A205353
:10019000455454494E47532D3E454550524F4D000E
:1001A000453A20534554504F494E542D3E00493A4C
:1001B00020534554504F494E542D3E00453A20524D
:1001C00045464C4F572D3E534554504F494E543F92
:1001D00000453A20534F414B2D3E00493A20534FA2
:1001E000414B2D3E00493A205049442D3E52455343
:1001F000455400453A205245464C4F572D3E004944
:100200003A205245464C4F572D3E00493A20502D3A
:100210003E00453A20505245484541542D3E004944
:100220003A20505245484541542D3E00453A204F12
:1002300056454E2D3E3F00453A204D4F44452D3EFC
:100240003F00453A205245464C4F572D3E493F000E
:1002500046573A2000493A20442D3E00453A205264
:1002600045464C4F572D3E443F0053657474696EAC
:10027000677300493A2000493A2000493A20004972
:100280003A2000493A2000493A2000493A200049E2
:100290003A2000493A2000493A204F56454E2D3E1B
:1002A0004F4E00493A2000493A2000493A2000497F
:1002B0003A2000493A2000493A200054696D652CE3
:1002C000536574706F696E742C496E7075742C4F21
:1002D000757470757400493A204F56454E2D3E4F47
:1002E0004E00493A204F56454E2D3E4F464600009F
:1002F000000000240027002A002D0030000000002C
:1003000000250028002B002E0031000000000023F3
:1003100000260029002C002F000404040404030418
:100320000502020202040302020202060606060693
:100330000604040202020404040802011040804082
:1003400010204080408008020401804020100201FB
:10035000108010204040200000000200090F000023
:10036000030401000C000000000000000000000079
:100370000000000000005245534554204F4B000838
:100380000B00020202010009040000010202000049
:10039000052400100105240101010424020605249E
:1003A0000600010705810310004009040100020A4C
:1003B000000000070502024000000705830240001C
:1003C000000403090441726475696E6F204C4C434C
:1003D0000041726475696E6F204C656F6E61726466
:1003E0006F0012010002000000404123368000012E
:1003F0000102030112010002EF0201404123368095
:10040000000101020301FC2D11241FBECFEFDAE031
:10041000DEBFCDBF12E0A0E0B1E0ECE5F5E602C042
:1004200005900D92A838B107D9F724E0A8E8B2E00A
:1004300001C01D92A93FB207E1F712E0C4E0D2E08B
:1004400004C02197FE010E942330C330D107C9F7B1
:100450000E9410180C94AC320C940000CF92DF92E2
:10046000EF92FF920F931F93CF93DF936C017A016A
:100470008B01C0E0D0E0CE15DF0589F0D8016D9189
:100480008D01D601ED91FC910190F081E02DC60126
:100490000995892B11F47E0102C02196ECCFC7018A
:1004A000DF91CF911F910F91FF90EF90DF90CF9050
:1004B0000895CF93DF931F92CDB7DEB76983DC0138
:1004C000ED91FC910280F381E02D41E050E0BE010E
:1004D0006F5F7F4F09950F90DF91CF91089583E073
:1004E0008093E9008091F200882319F08AE38093D9
:1004F000E8000895FC018485958597FD0BC09FB7A2
:10050000F89482E08093E9008091F2009FBF90E030
:10051000019608959FB7F89482E08093E900809156
:10052000F2009FBF90E0089590E0FC013197EF301A
:10053000F105B0F5E958FF4F0C942330809180000D
:100540008F7703C0809180008F7D80938000089515
:1005500080918000877FF9CF84B58F7702C084B502
:100560008F7D84BD0895809190008F7707C0809122
:1005700090008F7D03C080919000877F80939000D2
:1005800008958091C0008F7703C08091C0008F7D57
:100590008093C00008958091C200877F8093C2003D
:1005A00008953FB7F8948091480390914903A09132
:1005B0004A03B0914B0326B5A89B05C02F3F19F005
:1005C0000196A11DB11D3FBFBA2FA92F982F8827D3
:1005D000820F911DA11DB11DBC01CD0142E0660F2E
:1005E000771F881F991F4A95D1F7089508958EBDEA
:1005F0000DB407FEFDCF8EB50895F8942091AF039A
:10060000233021F420913E0321110FC02091AF032C
:10061000233011F4789407C0DC01ED91FC9102883D
:10062000F389E02D099580E00895DC01ED91FC91BE
:100630000488F589E02D61E0099581E0089581E065
:1006400080938D0280918B0290918C02DC01ED9160
:10065000FC910484F585E02D099510928D02089592
:10066000CF93DF931F92CDB7DEB7FC0184859585CC
:1006700097FD05C02FEF3FEF358724870BC0CE01D4
:1006800001960E94470C019719F4898190E002C0FD
:100690008FEF9FEF0F90DF91CF9108950F931F93EE
:1006A000CF93DF931F92CDB7DEB78C01FC01848519
:1006B000958597FF0EC0CE0101960E94470C0197C9
:1006C00019F4298130E002C02FEF3FEFF8013587A0
:1006D0002487F801848595850F90DF91CF911F9134
:1006E0000F9108950C942917EF92FF920F931F9387
:1006F000CF93DF938C017B01C0E0D0E0F701EC0FDA
:10070000FD1F6491662361F0D801ED91FC91019089
:10071000F081E02DC8010995892B11F02196EECFCB
:10072000CE01DF91CF911F910F91FF90EF9008952F
:100730006115710579F0FB0101900020E9F731970F
:10074000AF01461B570BDC01ED91FC910280F38158
:10075000E02D099480E090E008950C949803CF93E5
:10076000DF93282F30E0F901E95AFC4F8491F90119
:10077000E85CFC4FD491F901E75EFC4FC491CC23B7
:1007800091F081110E949402EC2FF0E0EE0FFF1F18
:10079000E55FFC4FA591B491EC91ED2381E090E0F1
:1007A00021F480E002C080E090E0DF91CF910895D5
:1007B0001F93CF93DF93282F30E0F901E95AFC4FC4
:1007C0008491F901E85CFC4FD491F901E75EFC4F9C
:1007D000C491CC23C9F0162F81110E949402EC2FF2
:1007E000F0E0EE0FFF1FE350FD4FA591B4918FB7DE
:1007F000F894111105C09C91ED2FE095E92302C0FA
:10080000EC91ED2BEC938FBFDF91CF911F91089569
:10081000CF93DF93EC0161E08A810E94D803898540
:100820008CBD8A858DBD80918D02811101C0789427
:10083000DF91CF910895FC01F8948CB581878DB537
:1008400082878CB5837F8CBD8CB58F7D8CBD8CB53C
:100850008C7F8CBD8DB58E7F8DBD60E082810C94C8
:10086000D803CF93DF9390E0FC01E85CFC4F249128
:10087000FC01E75EFC4F8491882361F190E0880FD2
:10088000991FFC01E151FD4FC591D491FC01E3504A
:10089000FD4FA591B491611109C09FB7F89488816B
:1008A000209582238883EC912E230BC0623061F463
:1008B0009FB7F8943881822F809583238883EC91A9
:1008C0002E2B2C939FBF06C08FB7F894E8812E2B58
:1008D00028838FBFDF91CF9108958F929F92AF921F
:1008E000BF92CF92DF92EF92FF926B017C010E9448
:1008F000D1024B015C01C114D104E104F104F1F017
:100900000E94D102DC01CB0188199909AA09BB090F
:10091000883E9340A105B10570F321E0C21AD108C9
:10092000E108F10888EE880E83E0981EA11CB11C36
:10093000C114D104E104F10419F7DDCFFF90EF9069
:10094000DF90CF90BF90AF909F908F9008958F923F
:100950009F92AF92BF92CF92DF92EF92FF920F934E
:100960001F93CF93DF935C016B018A018091250176
:10097000882309F45EC080914D03882309F459C08F
:100980008091890280FF05C08091E00082608093A1
:10099000E000E8018AEFF82E93E0E92E2FE3822EA3
:1009A0003AE3932E209709F43DC08FB7F894E09274
:1009B000E9009091E80095FF06C09091F200282D83
:1009C000291B922F01C090E08FBF91110AC0FA94A9
:1009D000FF2079F161E070E080E090E00E946D041A
:1009E000E1CF292F30E0C217D3070CF49C2F8FB72B
:1009F000F894E092E9002091E80025FF11C0292F2A
:100A000030E0C21BD30BF601915020F0419140938E
:100A1000F100FACFC20ED31E9091E80095FF13C0EB
:100A20008FBFC0CF5D9884E68093F3041016110643
:100A300044F081E090E0F5019383828380E090E0D0
:100A400005C0C80103C09092E800EACFDF91CF91C2
:100A50001F910F91FF90EF90DF90CF90BF90AF90DC
:100A60009F908F9008952FB7F894609144037091F0
:100A7000450380914603909147032FBF08953F920D
:100A80004F925F926F927F928F929F92AF92BF929E
:100A9000CF92DF92EF92FF920F931F93CF93DF934A
:100AA000EC01162F5A01922E302E812CCE2CD12CF7
:100AB000E12CF12CE881F9810190F081E02D01E039
:100AC000292DA501612FCE0109950E9433052B0127
:100AD0003C010E943305DC01CB0184199509A6096C
:100AE000B7098C159D05AE05BF05A0F4E881F98115
:100AF0000480F581E02DCE010995882351F3909172
:100B00004203911711F01F3F21F79091410391117A
:100B100005C0DFCF8394381468F680E0DF91CF9171
:100B20001F910F91FF90EF90DF90CF90BF90AF900B
:100B30009F908F907F906F905F904F903F9008951F
:100B40001F920F920FB60F9211242F933F938F9302
:100B50009F93AF93BF938091440390914503A091DD
:100B60004603B09147033091430323E0230F2D3711
:100B700020F40196A11DB11D05C026E8230F0296A1
:100B8000A11DB11D2093430380934403909345031B
:100B9000A0934603B0934703809148039091490383
:100BA000A0914A03B0914B030196A11DB11D809302
:100BB000480390934903A0934A03B0934B03BF911A
:100BC000AF919F918F913F912F910F900FBE0F90FA
:100BD0001F9018951F920F920FB60F9211242F930A
:100BE0003F934F935F936F937F938F939F93AF93B5
:100BF000BF93EF93FF93E0910801F09109010995EC
:100C0000FF91EF91BF91AF919F918F917F916F91E4
:100C10005F914F913F912F910F900FBE0F901F90BA
:100C200018951F920F920FB60F9211242F933F9396
:100C30004F935F936F937F938F939F93AF93BF93E4
:100C4000EF93FF93E0910601F09107010995FF9161
:100C5000EF91BF91AF919F918F917F916F915F9134
:100C60004F913F912F910F900FBE0F901F901895AD
:100C70001F920F920FB60F9211242F933F934F9311
:100C80005F936F937F938F939F93AF93BF93EF93F4
:100C9000FF93E0910401F09105010995FF91EF9117
:100CA000BF91AF919F918F917F916F915F914F9184
:100CB0003F912F910F900FBE0F901F9018951F928C
:100CC0000F920FB60F9211242F933F934F935F9380
:100CD0006F937F938F939F93AF93BF93EF93FF9304
:100CE000E0910201F09103010995FF91EF91BF910D
:100CF000AF919F918F917F916F915F914F913F91B4
:100D00002F910F900FBE0F901F9018951F920F926A
:100D10000FB60F9211242F933F934F935F936F93CE
:100D20007F938F939F93AF93BF93EF93FF93E09144
:100D30000001F09101010995FF91EF91BF91AF91F1
:100D40009F918F917F916F915F914F913F912F91E3
:100D50000F900FBE0F901F9018950F931F93CF9376
:100D6000DF9300D0CDB7DEB78C01DC01ED91FC91B3
:100D7000008CF18DE02D4A83698309956981862F66
:100D800080680E94F7024A81842F0E94F702D801EE
:100D9000ED91FC91028CF38DE02DC8010F900F9026
:100DA000DF91CF911F910F9109941F93CF93DF9300
:100DB000EC01162F611102C045E501C04DE56AE561
:100DC000CE010E94AD06111102C040E701C04CE700
:100DD0006CE5CE01DF91CF911F910C94AD06EF929F
:100DE000FF921F93CF93DF931F92CDB7DEB77C01A5
:100DF000DC01ED91FC91008CF18DE02D698309956A
:100E00006981862F8F770E94F70280E00E94F702A7
:100E1000182FD701ED91FC91028CF38DE02DC701C5
:100E20000995812F0F90DF91CF911F91FF90EF9047
:100E30000895CF93DF93EC016887611102C04AE106
:100E400001C04FE063E1CE010E94AD068885882392
:100E500041F061E1CE010E94EF068F71482F40669C
:100E600002C04F81406861E1CE01DF91CF910C94C7
:100E7000AD06CF93DF93EC011092CE0210924203A5
:100E800010928E0210923E0310928F021092410334
:100E90001092400310923F0368E20E94EF0682FF27
:100EA0000AC06DE3CE010E94EF06482F44606DE357
:100EB000CE010E94AD0640E465E2CE010E94AD067F
:100EC000E881F9810488F589E02D63E0CE01DF91A6
:100ED000CF910994EF92FF921F93CF93DF93EC0190
:100EE0008091AF03833001F568E2CE010E94EF06E6
:100EF00082FD2EC019C08091CE028D3330F4E09176
:100F0000CE02F0E0E057FD4F1082E881F981028CBB
:100F1000F38DE02DCE010995E881F9810488F589EA
:100F2000E02D63E0CE01099564E2CE010E94EF0658
:100F300090E09195819591099595879590934003BF
:100F400080933F03DF91CF911F91FF90EF90089521
:100F5000E881F9810488F589E02D61E0CE010995E9
:100F6000E881F981008CF18DE02DCE01099580E0BA
:100F70000E94F70280E00E94F70280933E03809176
:100F80003E038334D0F480913E0380933E0380E09F
:100F90000E94F70280938E028E81811109C0909188
:100FA0008E028D81981721F080918E028F3F39F447
:100FB00080913E03833018F017C082E4E6CF109290
:100FC0003E03E881F981028CF38DE02DCE01099575
:100FD000E881F9810288F389E02DCE01DF91CF917C
:100FE0001F91FF90EF90099480913E03835080936E
:100FF000CE0280E00E94F7028093420380E00E94CC
:10100000F702982F907890934103982F90749093C3
:101010008F02E881F9810684F785E02D682FCE01E3
:10102000099510E08091CE02181708F064CFE12EE8
:10103000F12C80E00E94F702F701E057FD4F80831A
:101040001F5FF0CFCF92DF92EF92FF920F931F932B
:10105000CF93DF93EC01F62ED42EC52E122FE8810C
:10106000F9810488F589E02D61E0099567E2CE01F8
:101070000E94EF0687FFFACF40E065E2CE010E94B2
:10108000AD061E3308F01DE3E11004C0002321F07B
:1010900000E403C000E801C000E0E881F981008CB1
:1010A000F18DE02DCE01099580E80E94F70283E0E2
:1010B000810F0E94F7028F2D0E94F7028D810E94FE
:1010C000F702802F0E94F7020D2DED2CFC2C8E2DA7
:1010D000801B811730F4F70181917F010E94F70294
:1010E000F6CFE881F981028CF38DE02DCE010995D0
:1010F000E881F9810488F589E02D64E0CE01099545
:101100000E9433056B017C018B810E94AF03892B08
:1011100081F0E881F9810488F589E02D61E0CE0154
:10112000DF91CF911F910F91FF90EF90DF90CF90C3
:1011300009940E943305DC01CB018C199D09AE098D
:10114000BF09883E9340A105B105F0F2E2CF4F926E
:101150005F926F927F92AF92BF92CF92DF92EF92A7
:10116000FF920F931F93CF93DF93EC015B01F42E5B
:1011700010928F0210914203C0903F03D090400321
:101180006DE30E94EF06482F44606DE3CE010E949C
:10119000AD060E9433052B013C01CE010E94620E78
:1011A000882311F110934203E881F9810088F189C5
:1011B000E02DEE24E39400E02F2DA501612FCE0158
:1011C0000995D0924003C0923F03DF91CF911F91C8
:1011D0000F91FF90EF90DF90CF90BF90AF907F90F6
:1011E0006F905F904F9008950E943305DC01CB0112
:1011F00084199509A609B709883E9340A105B10550
:1012000088F6E881F9810480F581E02DCE01099509
:10121000C4CF8F929F92AF92BF92CF92DF92EF9204
:10122000FF920F931F93CF93DF93EC01162F6A0168
:10123000F22E6DE30E94EF06482F44606DE3CE016D
:101240000E94AD060E9433054B015C01CE010E9455
:10125000620E8823C1F0E881F9810088F189E02DD0
:10126000E12C2F2DA601612FCE010995DF91CF91A1
:101270001F910F91FF90EF90DF90CF90BF90AF90B4
:101280009F908F9008950E943305DC01CB0188194F
:101290009909AA09BB09883E9340A105B105D8F672
:1012A000E881F9810480F581E02DCE010995CECF4A
:1012B0000F931F930E943305609367037093680335
:1012C0008093690390936A03E0915F03F091600358
:1012D0000084F185E02D8FE593E0099597FF1FC00D
:1012E0000E94330500916703109168032091690300
:1012F00030916A03DC01CB01801B910BA20BB30B75
:10130000009163031091640320916503309166039B
:1013100080179107A207B307B8F28FEF9FEF1F91D5
:101320000F910895CF93C82F0E94580997FD19C0B7
:101330008D329105B1F09C01205331092A303105DD
:1013400080F0CC2319F08E32910559F0E0915F03C3
:10135000F09160030680F781E02D8FE593E0099519
:10136000E3CFCF9108958F929F92AF92BF92CF9289
:10137000DF92EF92FF920F931F93CF93DF93EC01D5
:101380006A017B0120E030E0A901C701B6010E949B
:10139000463118160CF04FC018AA19AA1AAA1BAA8F
:1013A000CCAADDAAEEAAFFAA88AD882309F443C01F
:1013B0000C8D1D8DF80180809180A280B380A701E3
:1013C0009601C501B4010E943731181634F4F801B2
:1013D000C082D182E282F3820EC020E030E0A90117
:1013E000C501B4010E94463187FF05C0F801108293
:1013F0001182128213828CA09DA0AEA0BFA0CCA8A7
:10140000DDA8EEA8FFA8A7019601C501B4010E94BE
:101410003731181664F0C8A8D9A8EAA8FBA8A70114
:101420009601C501B4010E94463187FF04C0CCA2D9
:10143000DDA2EEA2FFA2DF91CF911F910F91FF904D
:10144000EF90DF90CF90BF90AF909F908F900895D6
:101450000F931F93CF93DF93EC01623018F08F85C9
:1014600088608F876B8B1C8A8BE39DE00197F1F777
:1014700060E08C810E94D80360E08E810E94D803D6
:101480008D818F3F19F060E00E94D8036F8564FD65
:101490001DC063E0CE010E94650F0BE416E4C80195
:1014A0000197F1F763E0CE010E94650FC801019733
:1014B000F1F763E0CE010E94650F83E592E00197AA
:1014C000F1F762E0CE010E94650F16C06062CE01A6
:1014D0000E94BB108BE496E40197F1F76F85606280
:1014E000CE010E94BB1083E592E00197F1F76F8572
:1014F0006062CE010E94BB106F856062CE010E94C7
:10150000BB1084E0888B6CE0CE010E94BB10CE0142
:101510000E94BE1082E0898B66E0CE01DF91CF9100
:101520001F910F910C94BB10CF93DF93CDB7DEB713
:1015300028970FB6F894DEBF0FBECDBF98E0E3E565
:10154000F1E0DE01119601900D929A95E1F79091EC
:10155000D103923010F4915001C091E0FE01319618
:10156000E90FF11DE90FF11D9081682F690F606887
:101570008EEB93E028960FB6F894DEBF0FBECDBF7A
:10158000DF91CF910C94BB10CF92DF92EF92FF923C
:10159000CF93DF93009719F1EC01E091C204F09131
:1015A000C3046F017C010088F189E02D309719F0A8
:1015B000C701B6010995EA89FB89309719F0C7017F
:1015C000B6010995E091C404F091C504309719F073
:1015D000C701B6010995D093C304C093C204DF913B
:1015E000CF91FF90EF90DF90CF9008958091C2044B
:1015F0009091C304DC015C96ED91FC915D9730976E
:1016000009F00995E091C204F091C30480859185A9
:10161000009729F0DC011F96FC93EE931E970C9423
:10162000C40A81E080935B0344E050E064E670E02C
:101630008BE593E00C947A32EEEBF3E060896D7FFA
:10164000608B6860CF010C94BB10CF93DF93BC011B
:101650008FE593E00E949803EC0168E572E08FE566
:1016600093E00E9498038C0F9D1FDF91CF91089506
:101670008F929F92AF92BF92CF92DF92EF92FF92A2
:10168000CF93C1E0019709F0C0E09091170481E089
:101690008927C81348C0E091FB03F091FC03C08088
:1016A000D180E280F380C0920304D0920404E092DF
:1016B0000504F0920604E091F903F091FA038081A9
:1016C0009181A281B3818093070490930804A09331
:1016D0000904B0930A048090130490901404A0901D
:1016E0001504B0901604A5019401C701B6010E942B
:1016F0003731181684F080900F0490901004A09059
:101700001104B0901204A5019401C701B6010E9412
:10171000463187FF08C08092030490920404A0928F
:101720000504B0920604C0931704CF91FF90EF9088
:10173000DF90CF90BF90AF909F908F900895CF9300
:10174000DF93BC018FE593E00E947403EC0168E530
:1017500072E08FE593E00E9498038C0F9D1FDF914C
:10176000CF910895CF93DF93482F50E060E070E071
:101770002AE08FE593E00E94E016EC0168E572E054
:101780008FE593E00E9498038C0F9D1FDF91CF910E
:101790000895CF93DF938BE592E00E94250B64E6DA
:1017A00072E08FE593E00E94AD03CBE5D3E0498181
:1017B00050E060E070E02AE08FE593E00E94E016E0
:1017C00068E672E08FE593E00E94AD034A8150E045
:1017D00060E070E02AE08FE593E00E94E01668E6A2
:1017E00072E08FE593E00E94AD038B81DF91CF9192
:1017F0000C94B20BCF93DF93242FAB01BC018FE588
:1018000093E00E942917EC0168E572E08FE593E010
:101810000E9498038C0F9D1FDF91CF910895CF9365
:10182000DF938AE692E00E94250B64E672E08FE582
:1018300093E00E94AD03CEE4D3E049815A816B81ED
:101840007C8123E030E08FE593E00E94720368E63C
:1018500072E08FE593E00E94AD034D815E816F8160
:10186000788523E030E08FE593E00E94720368E61C
:1018700072E08FE593E00E94AD0369857A858B85E0
:101880009C8543E050E0DF91CF910C94FA0BFC0172
:1018900080914D03811103C08FEF9FEF08959FB793
:1018A000F89482E08093E9002091F20030E0121673
:1018B000130614F421E030E02115310559F0289881
:1018C00084E680934C038091F10080838091F20044
:1018D000882319F09FBFC90108958BE68093E80023
:1018E000F9CF8F929F92AF92BF92CF92DF92EF92F9
:1018F000FF92CF93DF9381E00E949209FC0197FD54
:1019000070C0812C912C80E8A82E8FE3B82EC12CBA
:10191000D12C7601C0E0D0E0E130F10569F1ED3283
:10192000F10539F1EE32F10531F1CF01C0970A9797
:1019300018F5AAE0B0E0A70196010E9492326F016B
:10194000FF0FEE08FF08C60ED71EE81EF91E80E343
:10195000C81AD108E108F108CC2371F02DEC3CEC59
:101960004CEC5DE3C501B4010E94AC314B015C015C
:1019700003C0D1E001C0C1E0E0915F03F0916003DA
:101980000680F781E02D8FE593E009950E945809C4
:10199000FC01C0970A9708F4BFCFEE32F10519F4A5
:1019A000C11123C0B9CFE130F10509F4B5CFDD2372
:1019B00041F0F094E094D094C094C11CD11CE11C7F
:1019C000F11CCC2349F0C701B6010E944D31A5019D
:1019D00094010E94AC310CC0C701B6010E944D3188
:1019E00007C060E070E0CB0103C0D111E2CFEBCFC4
:1019F000DF91CF91FF90EF90DF90CF90BF90AF90AD
:101A00009F908F900895FF920F931F93CF93DF9332
:101A100000D000D0CDB7DEB780E00E949209FC0173
:101A200097FD4AC020E030E0A901F12CE130F1053A
:101A3000F1F0ED32F105C9F0CF01C0970A97B8F483
:101A4000AAE0B0E00E9492328F01FF0F220B330B0D
:101A5000DC01CB01800F911FA21FB31F9C01AD01C0
:101A6000205331094109510902C0FF24F394E09148
:101A70005F03F09160030680F781E02D8FE593E02E
:101A800029833A834B835C8309950E945809FC01A2
:101A9000C09729813A814B815C810A9738F2E13005
:101AA000F10521F2FF2061F066277727CB01621B49
:101AB000730B840B950B06C060E070E0CB0102C095
:101AC000CA01B9010F900F900F900F90DF91CF9145
:101AD0001F910F91FF900895CF92DF92EF92FF92A6
:101AE000CF93DF936B017C01E0915F03F091600382
:101AF0000190F081E02D6DE28FE593E00995EC0116
:101B000044275527BA014C195D096E097F092AE05F
:101B10008FE593E00E94E0168C0F9D1FDF91CF911F
:101B2000FF90EF90DF90CF900895CF93DF93AC01BB
:101B3000990F660B770B77FF05C0CB01BA010E94A6
:101B40006C0D05C02AE08FE593E00E94E016EC01E1
:101B500068E572E08FE593E00E9498038C0F9D1F6B
:101B6000DF91CF9108958091CE0481110DC082E064
:101B70008093CA0484E08093CB041092CD04109229
:101B8000CC0481E08093CE048AEC94E0089508951B
:101B90000895CF93DF93EC01603208F06FE16F831B
:101BA0008885882311F066956F8361E1CE010E94DC
:101BB000EF06807E9F81482F492B61E1CE01DF91A6
:101BC000CF910C94AD061F93CF93DF932091AF0379
:101BD000621709F45DC0162FEC016230E9F168F478
:101BE000662309F440C0613009F052C061E00E94F0
:101BF000EF06837E482F44603BC06330B9F0643009
:101C000009F046C061E00E94EF06837E482F4C60D9
:101C100061E0CE010E94AD068885882369F1E881E4
:101C2000F9810688F789E02D61E013C061E00E9428
:101C3000EF06837E482F406161E0CE010E94AD0631
:101C400088858823C9F0E881F9810688F789E02D25
:101C500060E0CE01099510C061E00E94EF06837E2E
:101C6000482F486005C061E00E94EF06482F437E80
:101C700061E0CE010E94AD068091AF03811106C0E4
:101C800067E2CE010E94EF0687FFF6CF1093AF0305
:101C9000DF91CF911F910895CF93DF93EC0160E026
:101CA0008E810E94D80361E08E810E94D80360E09B
:101CB0008E810E94D8038BE891E00197F1F7DF91C4
:101CC000CF910895CF93DF932091AF032330C9F4D0
:101CD00020913E03211115C0EC0164E20E94EF0641
:101CE00090E09195819591098C349F4F54F4E8814F
:101CF000F9810488F589E02D61E0CE01099581E044
:101D000001C080E0DF91CF9108952F923F924F92D2
:101D10005F926F927F928F929F92AF92BF92CF927B
:101D2000DF92EF92FF920F931F93CF93DF9300D038
:101D300000D0CDB7DEB71C014A015B012801390193
:101D4000FC0140835183628373830483158326835C
:101D50003783C086D186E286F38664A575A586A5FD
:101D600097A50E944B3120E030E04AE754E40E94FE
:101D7000963069837A838B839C83F1018486958670
:101D8000A686B7869B01AC01C301B2010E94AC31AB
:101D90002B013C01F101608B718B828B938B29812C
:101DA0003A814B815C81C701B6010E9496306B017C
:101DB0007C01F101648B758B868B978B808D918D67
:101DC000019721F5A501940160E070E0CB010E942C
:101DD0002930F1016487758786879787A30192016F
:101DE00060E070E0CB010E942930F101608B718BC3
:101DF000828B938BA701960160E070E0CB010E947B
:101E00002930F101648B758B868B978B0F900F9027
:101E10000F900F90DF91CF911F910F91FF90EF9056
:101E2000DF90CF90BF90AF909F908F907F906F90FA
:101E30005F904F903F902F9008954F925F926F92D6
:101E40007F928F929F92AF92BF92CF92DF92EF924A
:101E5000FF920F931F93CF93DF93EC014A015B0135
:101E60002801390120E030E0A901C501B4010E9438
:101E7000463187FD19C020E030E0A901C301B2015D
:101E80000E94463187FD10C020E030E0A901C70163
:101E9000B6010E94463187FD07C093018201B5015A
:101EA000A401CE010E94850EDF91CF911F910F9169
:101EB000FF90EF90DF90CF90BF90AF909F908F906A
:101EC0007F906F905F904F900895AF92BF92CF92A6
:101ED000DF92EF92FF920F931F93CF93DF935C01FA
:101EE0007C0187E0E80EF11CC0E0D0E0062F10E096
:101EF000670161E0F70181917F010E943104B8011F
:101F00000C2E02C0759567950A94E2F76170F60190
:101F100080810E94D8032196C430D10549F7C501BC
:101F2000DF91CF911F910F91FF90EF90DF90CF90B5
:101F3000BF90AF900C944C0EAF92BF92CF92DF92B5
:101F4000EF92FF920F931F93CF93DF93EC01F62E46
:101F5000642F8C810E94D8038D818F3F19F060E03F
:101F60000E94D8038F850F2D10E084FF2DC05E01E5
:101F700087E0A80EB11CE12CF12C650161E0F501B0
:101F800081915F010E943104B8010E2C02C0759549
:101F900067950A94E2F76170F60180810E94D80388
:101FA000FFEFEF1AFF0A88E0E816F10431F7CE01DF
:101FB000DF91CF911F910F91FF90EF90DF90CF9025
:101FC000BF90AF900C944C0EB80184E07595679566
:101FD0008A95E1F7CE010E94650F6F2DCE01DF914A
:101FE000CF911F910F91FF90EF90DF90CF90BF9016
:101FF000AF900C94650F41E00E949C0F81E090E04F
:1020000008950F931F93CF93DF938C01FC01808180
:102010009181F2E086309F0741F4C0915C03D0E0EB
:1020200026E930E044E650E016C062E08E309607C4
:1020300041F4C0915D03D0E028EC30E046E950E087
:102040000AC08C59914039F4C0915E03D0E02FEF63
:1020500030E048EC50E02197C417D5071CF02C174E
:102060003D070CF4E90180E00E94940AAE0160E0B3
:1020700070E02AE08EEB93E00E94E01660E08EEBC9
:1020800093E00E94FB0FF80180819181F2E086309D
:102090009F0719F4C0935C030CC062E08E30960772
:1020A00019F4C0935D0305C08C59914011F4C0939D
:1020B0005E03DF91CF911F910F9108950F931F93AE
:1020C000CF93DF938C01FC0180819181F2E0863017
:1020D0009F0741F4C0915C03D0E046E950E024E65C
:1020E00030E016C062E08E30960741F4C0915D0387
:1020F000D0E048EC50E026E930E00AC08C5991402D
:1021000039F4C0915E03D0E04FEF50E028EC30E0AE
:102110002196C217D3071CF04C175D070CF4E90198
:1021200080E00E94940AAE0160E070E02AE08EEB4D
:1021300093E00E94E01660E08EEB93E00E94FB0FBC
:10214000F80180819181F2E086309F0719F4C093F5
:102150005C030CC062E08E30960719F4C0935D03F7
:1021600005C08C59914011F4C0935E03DF91CF916B
:102170001F910F91089540E00C949C0F61E00E9424
:10218000BB108BE39FE10197F1F70895CF93DF93A5
:10219000EC018EEB93E00E94BE10688179818EEB9A
:1021A00093E00E94AD0380E00E94940A88819981A7
:1021B00022E08630920719F440915C030CC022E0C3
:1021C0008E30920719F440915D0305C08C599140FF
:1021D00051F440915E0350E060E070E02AE08EEB45
:1021E00093E00E94E016888199818155924039F0F0
:1021F00060E08EEB93E0DF91CF910C94FB0FDF91C9
:10220000CF910895EBE5F3E086E9818384EB828347
:1022100080EF83830E94110B80E00E94940A66E79E
:1022200073E08EEB93E00E94740360ED77E080E052
:1022300090E00E946D0410920C0310920B03109218
:10224000D3031092D4031092D5031092D6038EEBD1
:1022500093E00E94BE106CE971E08EEB93E00E9467
:10226000AD0380E00E94940A63E772E08EEB93E096
:102270000E94AD0322E030E04AE959E969E170E4E7
:102280008EEB93E00E94720360E086E00E94D80328
:1022900064EC79E080E090E00E946D048EEB93E0C6
:1022A0000E94BE100C941C0B8091F502813051F0FD
:1022B00098F0823061F0833079F480E891E5A1E014
:1022C000B0E00EC08CE390E0A0E0B0E009C080E197
:1022D0009EE0A0E0B0E004C081E090E0A0E0B0E0CB
:1022E0008093160190931701A0931801B0931901E0
:1022F000089580910B0390910C03892B09F04AC03B
:1023000081E090E090930C0380930B0380E090E0D9
:10231000A0E2B2E48093D3039093D403A093D503B7
:10232000B093D6038EEB93E00E94BE1063EA71E097
:102330008EEB93E00E94AD0380E00E94940A68EA6D
:1023400071E08EEB93E00E94AD0322E030E04AE9B9
:1023500059E969E170E48EEB93E00E94720360E05A
:1023600086E00E94D80364EC79E080E090E00E946F
:102370006D048EEB93E00E94BE106091CE03862F19
:1023800082608093CE036A608EEB93E00E94BB1064
:102390000C940F0C10920C0310920B031092D303A9
:1023A0001092D4031092D5031092D6038EEB93E0D3
:1023B0000E94BE106CE971E08EEB93E00E94AD03C9
:1023C00080E00E94940A68EA71E08EEB93E00E943C
:1023D000AD0322E030E04AE959E969E170E48EEBAF
:1023E00093E00E94720360E086E00E94D80364ECF0
:1023F00079E080E090E00E946D048EEB93E00E9413
:10240000BE100E941C0B0C94C90BCF92DF92EF926E
:10241000FF92CF93DF931092CD028091D502833447
:1024200069F118F4823441F0F6C0833509F45EC0D6
:10243000853509F45BC0EFC02091D6028091D702A8
:1024400090E0982F8827820F911D2091EA02309109
:10245000EB022F3F3F4F29F08F3F2FEF920709F0FC
:10246000DAC09093EB028093EA024AE150E060E028
:1024700070E089EE92E00E947A32CDC08091D6025F
:102480008093F0028091D7028093F1028091D8026C
:102490008093F2028091D9028093F3028091DA0254
:1024A0008093F4029091DB029093F502811103C0B6
:1024B00081E08093F4024AE150E060E070E089EE50
:1024C00092E00E947A320E9454114091F1024093AE
:1024D000B50369E380EB93E00E94AD064091F20200
:1024E00060E380EB93E00E94AD0695C08091D60238
:1024F0008F34F1F08535D9F18D3409F067C08091C2
:10250000D70281110AC080910B0390910C030197AF
:1025100009F05CC00E94791159C0813009F056C0A1
:1025200080910B0390910C03892B09F04FC0F2CFDF
:102530008091D70281110CC08091090390910A0308
:10254000019709F043C010920A03109209033EC09C
:102550008130E1F58091090390910A03892BB1F54F
:1025600081E090E090930A03809309032FC0C0910B
:10257000D802D0E0DC2FCC278091D702C80FD11D24
:102580006E01E12CF12C2AE0B701A6018FE593E062
:102590000E94E01668E572E08FE593E00E949803E0
:1025A00080910B0390910C03019781F46497C53BD4
:1025B000D10560F4C701B6010E944B316093D3038B
:1025C0007093D4038093D5039093D6030E94330570
:1025D0006B017C0120911601309117014091180187
:1025E00050911901A8EEB3E00E9492329B01AC0118
:1025F000A091F302B0E00E949232DC01CB018C0D7D
:102600009D1DAE1DBF1D8093030390930403A093F3
:102610000503B093060360E080EB93E0DF91CF9178
:10262000FF90EF90DF90CF900C94E30DEF920F931B
:1026300061E082E00E94D80383E08093D904809116
:10264000EA029091EB029093DB048093DA0480918C
:10265000DC048F5F8093DC0483E78093DD0461E01A
:1026600080EB93E00E94E30D48E06EE480EB93E0A2
:102670000E94AD066EE480EB93E00E94EF0682FDBF
:10268000F9CF6FE480EB93E00E94EF0695EA981B88
:102690009093DE046091D3037091D4038091D503AD
:1026A0009091D6030E9408316093DF046091DB03B0
:1026B0007091DC038091DD039091DE030E9408316C
:1026C0006093E0042DEC3CEC4CEC5DE36091D703AF
:1026D0007091D8038091D9039091DA030E94AC31B4
:1026E0000E9408316093E104809107038093E20423
:1026F00080910B038093E304E4EEF4E09FEF8FE01E
:102700008E0F91938E13FDCF84E6E82E00E02AE130
:1027100049ED54E06091F00280EB93E00E943F05A8
:102720008093CD0281110E94051260E082E00F913A
:10273000EF900C94D8034091F7045091F804209145
:10274000F5043091F60442175307B4F49091E80071
:102750009570E1F39091E80092FD19C08093F1002B
:102760008091F7049091F80401968F739927892B33
:1027700019F48EEF8093E8008091F7049091F804AB
:1027800001969093F8048093F70481E0089580E027
:102790000895DF92EF92FF920F931F93CF93DF93F1
:1027A000D82E8A017B01E40EF51EEB01CE15DF0564
:1027B00071F0D7FE03C0FE01849101C088810E94A0
:1027C0009B1321968111F2CF8FEF9FEF01C0C801BB
:1027D000DF91CF911F910F91FF90EF90DF900895BF
:1027E000615030F02091F100FC0120830196F8CF78
:1027F000289884E680934C0308950E9441310F93FA
:102800001F93CF93DF931F92CDB7DEB782E089830A
:1028100042E450E06FE773E080E80E94C9130E9431
:10282000B30DDC0112960D911C9113970115110542
:1028300069F0D801ED91FC910280F381E02DBE0199
:102840006F5F7F4FC801099597FF07C089810F907F
:10285000DF91CF911F910F910895F80100851185A7
:10286000E5CF1F920F920FB60F9211248F939F9373
:102870008091E1009091E100937F9093E10083FFCC
:102880000FC01092E90091E09093EB001092EC00E1
:1028900092E39093ED0010924D0398E09093F00036
:1028A00082FF20C093E09093E9009091F200992379
:1028B00019F09AE39093E8009091F304992339F08A
:1028C0009091F30491509093F304992389F190919E
:1028D0004C03992339F090914C03915090934C0301
:1028E000992341F184FF10C08091E2008E7E8160C7
:1028F0008093E2008091E1008F7E8093E1008091DF
:1029000089028E7E806111C080FF16C08091E20036
:102910008E7E80618093E2008091E1008E7E8093C4
:10292000E100809189028E7E81608093890204C0DB
:102930005D9ACDCF289AD6CF9F918F910F900FBEE1
:102940000F901F9018951F920F920FB60F9211249F
:10295000CF92DF92EF92FF920F931F932F933F93AB
:102960004F935F936F937F938F939F93AF93BF9397
:10297000EF93FF93CF93DF93CDB7DEB76C97DEBFB6
:10298000CDBF1092E9008091E80083FFFAC168E0B2
:10299000CE0145960E94F01382EF8093E8008D8966
:1029A00087FF05C09091E80090FFFCCF03C09EEF29
:1029B0009093E800982F907609F0C6C09E892F89E1
:1029C000188D91110CC0803829F480918A0280936F
:1029D000F10002C01092F1001092F10047C1422FA5
:1029E00050E0512B913051F4811140C141305105DB
:1029F00009F03CC180918A028D7F0BC0933061F455
:102A0000811134C14130510509F030C180918A02F1
:102A1000826080938A022AC1953041F48091E80057
:102A200080FFFCCF20682093E30020C1963009F09E
:102A30005FC0EB8CFC8C1092E9001092F8041092AD
:102A4000F704123091F51092F6041092F5040E94EA
:102A5000FF1399E0BE016F5F7F4FDB01E92F1D92ED
:102A6000EA95E9F799831A8391E09E8390EA988723
:102A70009AEF99872091F7043091F804275F3F4F30
:102A80003C832B838D831092E9001092F8041092FE
:102A9000F704F092F604E092F50449E050E080E09B
:102AA0000E94C9130E94FF13E1C0F092F604E09265
:102AB000F5040E94B30DDC011296ED90FC90139783
:102AC000E114F10409F4C0C0D701ED91FC91048038
:102AD000F581E02DBE016B5E7F4FC7010995009720
:102AE00019F00CF0C3C0C6C0F701E084F184E8CF50
:102AF000973009F4BFC0983021F481E08093F10051
:102B0000B5C0993009F0B2C0837009F0B3C0E6E9EE
:102B1000F1E081E021E036E39081992361F0809338
:102B2000E9002093EB0091919093EC003093ED003D
:102B30008F5F873089F78EE78093EA001092EA0072
:102B40008F8980934D0392C08B8D9C8D1092E900EC
:102B50001092F8041092F7049093F6048093F50411
:102B6000898D811156C08E899D89913A59F481329F
:102B700009F080C047E050E06EE171E080E00E9423
:102B8000C91374C0913209F075C0833289F4888DFD
:102B900090E0982F88272F89822BA0E0B0E08093C7
:102BA0001A0190931B01A0931C01B0931D015EC0FC
:102BB000803269F48091E80082FFFCCF67E08EE10B
:102BC00091E00E94F0138BEF8093E80006C0823200
:102BD00009F04CC08F898093250180918802882359
:102BE00019F0EEEFFAE002C0E0E0F8E080911E019B
:102BF00090911F01A0912001B0912101803B944050
:102C0000A105B10509F088C08091250180FFA0C011
:102C100083C00E94B30DDC0112960D911C91139795
:102C20000115110539F1D801ED91FC910190F08168
:102C3000E02DBE016B5E7F4FC8010995811116C062
:102C4000F80100851185ECCF1130C1F0133091F4FB
:102C50008F89882309F455C08230E9F440E860E1A7
:102C600081ED93E00E94C42F882321F08EEF8093A2
:102C7000E80087C081E28093EB0083C08B8D9C8D40
:102C8000089711F41093F4048091F404811136C074
:102C900062EE73E038C0813029F440E86BE085ECE7
:102CA00093E0E0CF833031F70E94B30DDC01129640
:102CB000ED90FC9013978E010F5F1F4F6801E11498
:102CC000F10479F0D701ED91FC910680F781E02DB8
:102CD000B801C7010995080F111DF701E084F184BF
:102CE000EECFD8011C92F60101900020E9F7319750
:102CF000BF016C197D0940E0C601B4CF64EF73E0F9
:102D000002C061EC73E06115710509F4B3CFFB01FA
:102D1000449150E080E833CF0FB6F894A8958091A5
:102D20006000886180936000109260000FBEA895DB
:102D3000EE3F2AE0F20739F08091FE0A9091FF0AF7
:102D40009183808393CF1092FF0A1092FE0A8ECF58
:102D5000EE3F8AE0F80731F0808191819093FF0A7D
:102D60008093FE0A87E797E7918380839BE088E161
:102D70000FB6F894A895809360000FBE9093600002
:102D800075CF6C960FB6F894DEBF0FBECDBFDF9146
:102D9000CF91FF91EF91BF91AF919F918F917F91D3
:102DA0006F915F914F913F912F911F910F91FF90E4
:102DB000EF90DF90CF900F900FBE0F901F9018955F
:102DC0004F925F926F927F92EF92FF920F931F93B9
:102DD000CF93DF93CDB7DEB7A1970FB6F894DEBFE0
:102DE0000FBECDBF7C01FA01CB0119A2223008F43D
:102DF0002AE08E010F5D1F4F422E512C612C712C49
:102E0000BF01A30192010E940130F901CA010150E2
:102E100011096A3014F4605D01C0695CD8016C93DB
:102E2000232B242B252B61F7B801C7010E9498039F
:102E3000A1960FB6F894DEBF0FBECDBFDF91CF9144
:102E40001F910F91FF90EF907F906F905F904F9048
:102E500008954F925F926F927F928F929F92AF925E
:102E6000BF92CF92DF92EF92FF92CF93DF93EC016C
:102E70006A017B01B22E9A01AB01C701B6010E9423
:102E80003C31882319F069E772E027C02601370139
:102E9000E89477F82FEF3FEF4FE75FE7C301B20108
:102EA0000E943C3181110DC02FEF3FEF4FE75FE7EC
:102EB000C301B2010E94463118161CF46DE772E09E
:102EC0000CC02FEF3FEF4FE75FE4C701B6010E9450
:102ED000373118169CF461E872E0CE01DF91CF9192
:102EE000FF90EF90DF90CF90BF90AF909F908F902A
:102EF0007F906F905F904F900C9498032FEF3FEF6F
:102F00004FE75FECC701B6010E94463187FDE3CF72
:102F100020E030E0A901C701B6010E94463187FFD9
:102F20000EC0E881F9810190F081E02D6DE2CE01C3
:102F300009954C01F7FAF094F7F8F09402C0812C4F
:102F4000912CA12C60E070E080E09FE3AB1441F095
:102F500020E030E040E251E40E949630A394F6CFA6
:102F60009B01AC01C701B6010E942A302B013C0134
:102F70000E9408316B017C010E944B319B01AC0126
:102F8000C301B2010E9429302B013C012AE0B701A4
:102F9000A601CE010E94E0167C01E80CF91CBB20C2
:102FA00039F065E872E0CE010E949803E80EF91E40
:102FB000DB2CDD2029F120E030E040E251E4C301C8
:102FC000B2010E94AC312B013C010E9408314B013F
:102FD000A12CB12C2AE0B501A401CE010E94E0167B
:102FE000E80EF91EC501B4010E944B319B01AC01F2
:102FF000C301B2010E9429302B013C01DA94D9CFE0
:10300000C701DF91CF91FF90EF90DF90CF90BF90FD
:10301000AF909F908F907F906F905F904F900895AA
:10302000CF93DF93CDB7DEB7C054D1090FB6F89474
:10303000DEBF0FBECDBF789484B5826084BD84B5F9
:10304000816084BD85B5826085BD85B5816085BDA3
:1030500080916E00816080936E001092810080915B
:1030600081008260809381008091810081608093E3
:103070008100809180008160809380008091910028
:103080008260809391008091910081608093910093
:10309000809190008160809390008091C100846055
:1030A0008093C1008091C10082608093C1008091B3
:1030B000C10081608093C1008091C30081608093D2
:1030C000C3008091C00082608093C0008091C200E4
:1030D00081608093C20080917A00846080937A003E
:1030E00080917A00826080937A0080917A0081607A
:1030F00080937A0080917A00806880937A001092A1
:103100004D0310928A02109289028091D70081604B
:103110008093D70080EA8093D80089B5806189BD0B
:1031200089B5826089BD09B400FEFDCF61E070E021
:1031300080E090E00E946D048091D8008F7C8061D7
:103140008093D8008091E000807F8093E0008091A0
:10315000E1008E7E8093E1008DE08093E200559A3D
:10316000209AEEEFFFE7859194918B3F9C4D19F4E7
:1031700081E08093880261E085E00E94310460E094
:1031800085E00E94D80361E086E00E94310460E09F
:1031900086E00E94D80361E080E00E94310460E094
:1031A00080E00E94D80361E084E00E94310460E086
:1031B00084E00E94D80361E081E00E94310460E075
:1031C00081E00E94D80361E087E00E94310460E062
:1031D00087E00E94D8035D9861E082E00E9431049C
:1031E00060E082E00E94D80362E086E10E94310440
:1031F00062E085E10E94310462E087E10E943104CF
:1032000044E050E064E670E08BE593E00E946A32AF
:1032100080915B03813049F086E980935C0384EB05
:1032200080935D0380EF80935E034DE050E060E5A6
:1032300070E08EE493E00E946A3280914E03813008
:1032400021F180E090E0A0EAB0E480934F039093F6
:103250005003A0935103B09352038AE097EDA3E289
:10326000BCE38093530390935403A0935503B0930E
:10327000560380E090E0A0E2B1E48093570390937E
:103280005803A0935903B0935A0361E086E00E946B
:10329000D80362E08EEB93E00E94280A60E48EEB94
:1032A00093E00E94BB100AE011E0D8016D918D01FE
:1032B0008EEB93E00E94FB0FB1E002311B07A9F7F0
:1032C0008EEB93E00E94BE1080910B0390910C0353
:1032D0000097C9F0019799F463EA71E08EEB93E0EF
:1032E0000E94AD0380E090E0A0E2B2E48093D303BB
:1032F0009093D403A093D503B093D60312C0109239
:103300000C0310920B036CE971E08EEB93E00E94CA
:10331000AD031092D3031092D4031092D5031092F0
:10332000D60380E00E94940A68EA71E08EEB93E095
:103330000E94AD0322E030E04AE959E969E170E416
:103340008EEB93E00E94720360E086E00E94D80357
:103350008FEF9FEF90936C0380936B0384E690E074
:10336000A0E0B0E08093630390936403A0936503AF
:10337000B09366030E94330560931D0370931E0390
:1033800080931F03909320030E94330560930E03E4
:1033900070930F0380931003909311038EE794E0D2
:1033A0009093A9048093A80480918C0490918D043B
:1033B000892B41F48091AE049091AF0490938D04D9
:1033C00080938C048EE794E0909369048093680462
:1033D0008CE594E0909387048093860420916A049E
:1033E00030916B0480918C0490918D04232B21F4F7
:1033F00090936B0480936A042CE534E03093470487
:10340000209346042AE334E0309365042093640457
:103410002091480430914904232B41F420916A04FF
:1034200030916B0430934904209348042AE334E03C
:10343000309325042093240428E134E0309343049E
:10344000209342042091260430912704232B41F439
:103450002091480430914904309327042093260496
:1034600028E134E030938B0420938A042EE734E083
:103470003093210420932004892B41F48091260469
:103480009091270490938D0480938C048EE590E1B5
:1034900090939504809394049093730480937204A2
:1034A000909351048093500422E031E130932F0433
:1034B00020932E0481E090E19093970480939604EA
:1034C00090937504809374049093530480935204F2
:1034D00030933104209330044AE150E060E070E022
:1034E00089EE92E00E946A329091F1029F3F09F4C6
:1034F0007CC00E94541161E082E00E94D803409198
:10350000F2020091F1029EE2FE0131967F01DF019D
:10351000E92F1D92EA95E9F781E0898384E08A83A7
:1035200032E03B8323E02D833E838F8380E48887D2
:1035300035E039872A8726E02B8723E32C8737E07D
:103540003D8728E02F8729E0298B29E12B8B22E476
:103550002C8B55E25D8B8E8B56E25F8B388F38E279
:10356000398F30E13A8F39E23B8F3CED3C8F9D8FB4
:1035700098E89E8F9FE29F8F9DE298A390E399A386
:1035800037E33BA330E93CA338E33DA32EA32CE370
:103590002FA32FE828A72DE329A722E12AA72FE6AA
:1035A0002BA79CA79FEF9DA79CE69E87888B4AA38D
:1035B00061E08091B2030E94D80361E08091B20380
:1035C0000E9431048CB580618CBD8CB580648CBD4B
:1035D00061E08FE00E94310461E080E10E943104EB
:1035E0000E9433054B015C0130C081E08093F00202
:1035F0002EEF2093F1029093F2029CE39093F3025A
:103600008093F4021092F50283E08093E9028FEF39
:103610009FEF9093EB028093EA02E9EFF2E08AE0F9
:103620008E0F90819F3F09F4108231968E13F9CF4F
:1036300060CF0E943305DC01CB0188199909AA09E2
:10364000BB09C297A105B10568F44AEA6FE280EBB5
:1036500093E00E94AD066FE280EB93E00E94EF06DC
:103660008A3A39F70E943305DC01CB0188199909A0
:10367000AA09BB09C297A105B10508F058C00E946C
:1036800033054B015C0145E56FE280EB93E00E945E
:10369000AD066FE280EB93E00E94EF06853511F4F2
:1036A0000C94252D0E943305DC01CB018819990962
:1036B000AA09BB09C297A105B10528F30C94252DD1
:1036C00061E080EB93E00E94E30D6DE380EB93E01B
:1036D0000E94EF06482F4E7F6DE380EB93E00E943F
:1036E000AD066091B80380EB93E00E94190761E09A
:1036F00080EB93E00E94E30D0E9433054B015C01D7
:1037000067E280EB93E00E94EF0687FD02C00C9415
:10371000452D0E943305DC01CB0188199909AA09BE
:10372000BB09C297A105B10510F40C94552D10E00A
:1037300064EF71E080E090E00E946D0460E082E060
:103740000E94D8031123C1F081E0809331036AEF16
:1037500070E080E090E00E946D0461E082E00E94F1
:10376000D8036AEF70E080E090E00E946D0460E0B2
:1037700082E00E94D80302C010923103809131038D
:1037800081110E94161360ED77E080E090E00E94C6
:103790006D048EEB93E00E94BE1086E391E0F3E0AF
:1037A000F80FFFAF22242394312C80910B039091CA
:1037B0000C03029709F44BC60E94330500910E03D7
:1037C00010910F0320911003309111030617170772
:1037D0002807390708F0E4C0D901C80188519C4F77
:1037E000AF4FBF4F80930E0390930F03A09310032E
:1037F000B09311038090DB039090DC03A090DD0375
:10380000B090DE0360E08091BC030E94D803412C9D
:10381000512C32010FE110E061E08091BD030E9464
:10382000D8038091BB030E94AF03892B81F081E014
:1038300090E0A0E0B0E0002E04C0880F991FAA1FFE
:10384000BB1F0A94D2F7482A592A6A2A7B2A60E0C9
:103850008091BD030E94D80301501109E8F661E090
:103860008091BC030E94D80360FE1DC037E0432254
:1038700055246624772441E0441A510861087108F0
:1038800054E04516510461047104C8F5C201880F63
:10389000991F880F991FFC01EA5DFE4F40805180FF
:1038A000628073802FC022E1769467945794479486
:1038B0002A95D1F755FC08C0C301B2017F71882752
:1038C00099270E944B3112C0409450946094709498
:1038D000C301B2017F71882799270E944B3120E0F4
:1038E00030E040E85FE30E942A30905820E030E06A
:1038F00040E85EE30E94AC312B013C0103C0412C47
:10390000512C32014092DB035092DC036092DD03C4
:103910007092DE0320E030E44CE156E4C301B201D2
:103920000E9446318823A1F020E034E44CE156E4C3
:10393000C301B2010E944631882351F020E038E4EF
:103940004CE156E4C301B2010E944631811126C008
:1039500080910D038F5F80930D038330B0F08AE078
:1039600090E090933B0380933A03109208031092E7
:10397000070310920A031092090330922803209241
:10398000270383E080930D030BC08092DB039092AA
:10399000DC03A092DD03B092DE0302C010920D039F
:1039A0000E94330500911D0310911E0320911F03F7
:1039B00030912003061717072807390708F063C25C
:1039C000D901C80188519C4FAF4FBF4F80931D0351
:1039D00090931E03A0931F03B093200380910703CD
:1039E00090910803019709F060C010912503812F81
:1039F0000E94AF0361E0892B09F060E0812F0E94F3
:103A0000D80340913803509139034F5F5F4F509373
:103A1000390340933803052E000C660B770B77FFB4
:103A200005C0CB01BA010E946C0D05C02AE08FE5EC
:103A300093E00E94E0166DEA71E08FE593E00E944A
:103A4000AD034091D3035091D4036091D50370919D
:103A5000D60322E030E08FE593E00E9472036DEA26
:103A600071E08FE593E00E94AD034091DB0350913C
:103A7000DC036091DD037091DE0322E030E08FE52E
:103A800093E00E9472036DEA71E08FE593E00E947B
:103A9000AD036091D7037091D8038091D9039091C1
:103AA000DA0342E050E00E94FA0B8EEB93E00E94B2
:103AB000BE10E0913A03F0913B03EE0FFF1FE55C6F
:103AC000FE4F608171818EEB93E00E94AD0380E038
:103AD0000E94940A80913A0390913B030A9709F45B
:103AE0006EC180910B0390910C03009721F0019718
:103AF00009F475C0C8C180E00E94940A8090D30385
:103B00009090D403A090D503B090D60320E030E08D
:103B100040E251E4C501B4010E94463187FF03C071
:103B20006FEA71E00CC020E030E047EC52E4C501E0
:103B3000B4010E94463187FF06C060EB71E08EEB56
:103B400093E00E94AD034091D3035091D403609160
:103B5000D5037091D60320E030E08EEB93E00E9415
:103B6000720360E08EEB93E00E94FB0F8090DB031A
:103B70009090DC03A090DD03B090DE0320E030E005
:103B800040E251E4C501B4010E94463187FF03C001
:103B90006FEA71E00CC020E030E047EC52E4C50170
:103BA000B4010E94463187FF06C060EB71E08EEBE6
:103BB00093E00E94AD034091DB035091DC036091E0
:103BC000DD037091DE0320E030E08EEB93E00E9495
:103BD000720360E08EEB93E00E94FB0F54C180E023
:103BE0000E94940A8090D3039090D403A090D503B0
:103BF000B090D60320E030E040E251E4C501B401CA
:103C00000E94463187FF03C06FEA71E00CC020E0DC
:103C100030E047EC52E4C501B4010E94463187FF11
:103C200006C060EB71E08EEB93E00E94AD03409123
:103C3000D3035091D4036091D5037091D60320E053
:103C400030E08EEB93E00E94720360E08EEB93E035
:103C50000E94FB0F8090DB039090DC03A090DD03BB
:103C6000B090DE0320E030E040E251E4C501B40151
:103C70000E94463187FF03C06FEA71E00CC020E06C
:103C800030E047EC52E4C501B4010E94463187FFA1
:103C900006C060EB71E08EEB93E00E94AD034091B3
:103CA000DB035091DC036091DD037091DE0320E0C3
:103CB00030E08EEB93E00E94720360E08EEB93E0C5
:103CC0000E94FB0F6091CE03862F82608093CE030B
:103CD0006A608EEB93E00E94BB10809112018A30E3
:103CE00010F482E001C081E00E94940A20E030E0FC
:103CF00048E452E46091DB037091DC038091DD03C2
:103D00009091DE030E9496304B015C0120E030E090
:103D100040E850E40E943731181644F460E0809186
:103D200025030E94D80387E090E044C020E030E003
:103D300040E450E4C501B4010E943731181654F430
:103D400060E0809125030E94D803309226032092E0
:103D5000250399C020E030E040E050E4C501B40103
:103D60000E943731181664F460E0809125030E94A8
:103D7000D803A4E0B0E0B0932603A093250383C04A
:103D800020E030E040E85FE3C501B4010E94373134
:103D900060E018164CF4809125030E94D80310921D
:103DA0002603109225036FC0809125030E94D8033B
:103DB00083E090E0909326038093250364C0809174
:103DC0002703909128038130910571F0029709F043
:103DD0004EC00E941C0B6CEC71E08EEB93E00E94D5
:103DE000AD0387E191E04DC00E941C0B8090DB0386
:103DF0009090DC03A090DD03B090DE0320E030E47F
:103E00004CE156E4C501B4010E944631811109C05C
:103E100062EB71E08EEB93E00E94AD0388E591E0E8
:103E200030C020E034E44CE156E4C501B4010E9406
:103E30004631882351F020E038E44CE156E4C501D6
:103E4000B4010E944631811109C06AEB71E08EEB2A
:103E500093E00E94AD0382E491E013C063EC71E053
:103E60008EEB93E00E94AD038CE291E00AC00E94C9
:103E70001C0B64ED71E08EEB93E00E94AD038CE0CF
:103E800091E00E949F0B8FE593E00E947A02892BBC
:103E900009F4DDC28FE593E00E943003082E000C88
:103EA000990BAA0BBB0BFC01E354F109E631F105B8
:103EB00008F0CDC2EA5AFF4F0C94233080910B03D7
:103EC00090910C03892B09F0C0C26BC280910B0347
:103ED00090910C03892B19F48CE592E056C00E9456
:103EE000710C609357037093580380935903909318
:103EF0005A030E9433056093340370933503809313
:103F0000360390933703C0905703D0905803E09046
:103F10005903F0905A0300915303109154032091D8
:103F200055033091560340914F03509150036091D7
:103F30005103709152038FED93E00E941D0F65E5D0
:103F400072E08FE593E00E947403609157037091D3
:103F500058038091590390915A0358C060E572E06C
:103F60008FE593E00E94740342E050E06AE979E94A
:103F700089E190E40E94FA0B6AC280910B03909150
:103F80000C03892B29F482E492E00E949F0B5FC20C
:103F90000E94710C609353037093540380935503F4
:103FA000909356030E943305609334037093350356
:103FB0008093360390933703C0905703D0905803F3
:103FC000E0905903F0905A03009153031091540369
:103FD000209155033091560340914F035091500367
:103FE00060915103709152038FED93E00E941D0F79
:103FF0006CED71E08FE593E00E94AD036091530397
:1040000070915403809155039091560343E050E022
:10401000B1CF0E94030D6115710541F480910B032E
:1040200090910C03019709F012C20EC06130710526
:1040300071F480910B0390910C03892B09F007C256
:1040400010920C0310920B030E94791100C287E3B7
:1040500092E09BCF0E94030D6115710529F4109227
:104060000A0310920903F3C16130710529F47093BA
:104070000A0360930903EBC18CE292E086CF809142
:104080000B0390910C030097B9F40E94030D4B01B0
:104090005C01CB0184569109C39710F00C949C2DC0
:1040A00080925C036FE172E08FE593E00E947403FD
:1040B00080915C030C94A92D019709F0C8C10E945E
:1040C000710C60934F03709350038093510390934E
:1040D00052030E9433056093340370933503809339
:1040E000360390933703C0905703D0905803E09065
:1040F0005903F0905A0300915303109154032091F7
:1041000055033091560340914F03509150036091F5
:104110005103709152038FED93E00E941D0F6BE0ED
:1041200072E08FE593E00E94740360914F037091F9
:104130005003809151039091520368CF80910B03FB
:1041400090910C03009779F40E94030D4B015C01E0
:10415000CB01885C9109C89710F40C949F2D63EFF4
:1041600071E00C94B62D019709F071C120E030E0A8
:1041700040EA50E420934F0330935003409351039F
:10418000509352038AE097EDA3E2BCE3809353037C
:1041900090935403A0935503B093560320E030E06E
:1041A00040E251E42093570330935803409359035E
:1041B00050935A030E943305609334037093350380
:1041C0008093360390933703C0905703D0905803E1
:1041D000E0905903F0905A03009153031091540357
:1041E000209155033091560340914F035091500355
:1041F00060915103709152038FED93E00E941D0F67
:1042000085EE91E020C180910B0390910C03009703
:10421000B9F40E94030D4B015C01CB018659910951
:10422000C39710F00C94AD2D80925D036BED71E09F
:104230008FE593E00E94740380915D030C94A92D97
:10424000019709F004C101C140913803509139032D
:10425000052E000C660B770B77FF05C0CB01BA016A
:104260000E946C0D05C02AE08FE593E00E94E016E5
:104270006DEA71E08FE593E00E94AD034091D303B6
:104280005091D4036091D5037091D60322E030E0C1
:104290008FE593E00E9472036DEA71E08FE593E091
:1042A0000E94AD034091DB035091DC036091DD037C
:1042B0007091DE0322E030E08FE593E00E9472030C
:1042C0006DEA71E08FE593E00E94AD036091D70342
:1042D0007091D8038091D9039091DA030C94B02D9A
:1042E00080910B0390910C03009719F48CEB91E0F3
:1042F0004CCE019709F0ABC00E94030D4B015C014D
:10430000CB014497853B910510F00C94B42DB4017A
:10431000990C880B990B0E944D316093D3037093D5
:10432000D4038093D5039093D6036EEA71E08FE5B2
:1043300093E00E9474036091D3037091D403809141
:10434000D5039091D6030C94B02D80910B039091DE
:104350000C03009719F40E94110B0DC0019759F43A
:1043600081E080934E034DE050E060E570E08EE424
:1043700093E00E947A328CE891E007CE80910B03A3
:1043800090910C03009781F486E980935C0384EBA1
:1043900080935D0380EF80935E038BE791E00E9442
:1043A0009F0B0E94C90B53C0019709F050C080E0D9
:1043B00090E0A0EAB0E480934F0390935003A09361
:1043C0005103B09352032AE037ED43E25CE32093BC
:1043D000530330935403409355035093560380E0A6
:1043E00090E0A0E2B1E48093570390935803A09328
:1043F0005903B0935A030E943305609334037093BA
:1044000035038093360390933703C0905703D090C1
:104410005803E0905903F0905A0300915303109110
:104420005403209155033091560340914F0350910E
:10443000500360915103709152038FED93E00E94FD
:104440001D0F8DE691E00E949F0B0E940F0C06E36A
:1044500011E0BAE18B2EB3E09B2E83E1A82E81E020
:10446000B82E25013401780120E0D7018D917D011E
:1044700021962FAF21970E94AF03D82EF30181938D
:104480003F01D2018C9121962FAD2197D816B9F01A
:104490000E943305609316037093170380931803EB
:1044A00090931903F201D08280913C0390913D03D7
:1044B000039721F030923D0320923C0321E0FFEF6F
:1044C0004F1A5F0A3FAD3E11D0CFE0903C03F09011
:1044D0003D0342E0E416F10419F153E0E516F1045E
:1044E00009F488C1EA94EF2809F0BAC12111B8C1D2
:1044F0000E943305009116031091170320911803B1
:1045000030911903DC01CB01801B910BA20BB30B83
:1045100085369105A105B10510F00C94BF2DA0C101
:1045200080911A0390911B038111ABC0911171C04E
:104530000E9433050091120310911303209114037C
:1045400030911503DC01CB01801B910BA20BB30B47
:10455000893B9B40A105B10508F482C180910B0302
:1045600090910C030297C9F0F0920C03E0920B03B8
:104570008EEB93E00E94BE106AE672E08EEB93E051
:104580000E9474030E941C0B68EE73E080E090E0D0
:104590000E946D040E94F60A63C10E94110B1092E2
:1045A0000C0310920B031092D3031092D4031092B9
:1045B000D5031092D6038EEB93E00E94BE106CE9F7
:1045C00071E08EEB93E00E94AD0380E00E94940ABC
:1045D00068EA71E08EEB93E00E94AD0322E030E0E8
:1045E0004AE959E969E170E48EEB93E00E947203B5
:1045F00060E086E00E94D80364EC79E080E090E01F
:104600000E946D048EEB93E00E94BE100E941C0B72
:1046100027C180911C03811119C00E9433050091AC
:104620001203109113032091140330911503DC0140
:10463000CB01801B910BA20BB30B893B9B40A105C7
:10464000B10508F40DC10E947911CDC080910B0312
:1046500090910C0397FDC7C08230910534F002970A
:1046600009F0C1C00E94F60ABEC080910903909172
:104670000A03892B09F064C030920A0320920903CF
:10468000B2C080911C0391114CC081110AC080916D
:104690001201813011F48AE001C081E0809312019F
:1046A000A2C080910B0390910C038130910529F0F9
:1046B0008230910509F041C021C06091120170E083
:1046C00080E090E00E944D312091D3033091D403DB
:1046D0004091D5035091D6030E942A304B015C01D2
:1046E00020E030E048E453E40E94373118160CF023
:1046F00049C080E090E0A8E4B3E451C08091C204D6
:104700009091C304DC015696ED91FC915797309738
:1047100009F00995E091C204F091C3048681978164
:1047200059C0811160C080910B0390910C038130BE
:10473000910559F082309105D9F1892B09F053C0C8
:1047400010920A03109209034EC06091120170E0AA
:1047500080E090E00E944D319B01AC016091D30359
:104760007091D4038091D5039091D6030E94293093
:104770004B015C0120E030E040EA51E40E94463108
:1047800087FD09C08092D3039092D403A092D503F1
:10479000B092D60328C080E090E0A0EAB1E4809314
:1047A000D3039093D403A093D503B093D6031BC037
:1047B0008091C2049091C304DC015896ED91FC9164
:1047C0005997309709F00995E091C204F091C3041C
:1047D00082859385009729F0DC011F96FC93EE9368
:1047E0001E970E94C40A83E090E090933D0380935B
:1047F0003C0336C0FF24F394F80181918F010E949D
:10480000AF03D4018D934D01F50181935F018111B7
:104810000BC00E94330560931603709317038093B7
:10482000180390931903F12CFFADF013E5CFFF208F
:10483000B9F00E94330500911603109117032091DF
:10484000180330911903DC01CB01801B910BA20BE3
:10485000B30B85369105A105B10510F00C94E42D3C
:104860000E94330580902D0390902E03A0902F037B
:10487000B090300386169706A806B90620F460E0CB
:1048800086E00E94D80380913C0390913D03892BE0
:1048900011F00C948C2C80910B0390910C030097D9
:1048A00021F0019709F4B6C3B7C6E0913A03F0913D
:1048B0003B03EB30F10508F0AFC6E459FF4F0C9411
:1048C00023301092D3031092D4031092D503109288
:1048D000D6031092D7031092D8031092D9031092E6
:1048E000DA0320E030E048E452E46091DB037091A9
:1048F000DC038091DD039091DE030E94373187FD58
:1049000007C089E090E090933B0380933A0384C60C
:10491000A0900903B0900A0321E0A216B10409F0A7
:104920007BC687E992E00E949F0B83EE91E00E9494
:10493000250B109239031092380380ED97E0909385
:104940003303809332030E943305609334037093E2
:104950003503809336039093370360915C0370E0D6
:1049600080E090E00E944B316093D3037093D403B6
:104970008093D5039093D60380E090E00E94380B9B
:10498000C12CD12CA0EAEA2EA1E4FA2E0DEC1CECED
:104990002CEC3CE340E050E060E272E48FED93E009
:1049A0000E94850E40E050E06AEF74E48FED93E0E2
:1049B0000E94B30960910B0470910C0480910D0466
:1049C00090910E040E944B319B01AC0160E070E0BD
:1049D0008AE794E40E9496302B013C019B01AC01D4
:1049E0006091EF037091F0038091F1039091F203D5
:1049F0000E94AC316093EF037093F0038093F10356
:104A00009093F203A30192016091F3037091F40378
:104A10008091F5039091F6030E9496306093F30322
:104A20007093F4038093F5039093F60388EE93E07C
:104A3000A0E0B0E080930B0490930C04A0930D04CD
:104A4000B0930E0481E090E00E94380BB0923B03DB
:104A5000A0923A0363E972E073C460E08091250399
:104A60000E94D80310922603109225030E9433055A
:104A700086169706A806B90620F460E086E00E9434
:104A8000D803309208032092070360915C0370E022
:104A900080E090E00E944D319B01AC016091DB030E
:104AA0007091DC038091DD039091DE030E94373129
:104AB00087FD3EC00E943305DC01CB01885D9C4D23
:104AC000AF4FBF4F8093210390932203A093230302
:104AD000B0932403C12CD12CFAE7EF2EF3E4FF2E80
:104AE0000DEC1CEC2CE43DE340E050E066E973E49F
:104AF0008FED93E00E94850E60915C0370E06B5F28
:104B00007F4F072E000C880B990B0E944D3160934C
:104B1000D3037093D4038093D5039093D60382E09C
:104B200090E090933B0380933A036FE872E008C4EF
:104B30008091380390913903893691400CF46CC50B
:104B400005C160E0809125030E94D80344E050E055
:104B500050932603409325030E943305861697063B
:104B6000A806B90620F460E086E00E94D8030E94FF
:104B700033050091210310912203209123033091EA
:104B80002403061717072807390708F062C00E9498
:104B90003305DC01CB01885D9C4DAF4FBF4F809347
:104BA000210390932203A0932303B093240320E0D6
:104BB00030E040EA50E46091D3037091D4038091D7
:104BC000D5039091D6030E942A304B015C0160937B
:104BD000D3037093D4038093D5039093D60360914D
:104BE0005D0370E080E090E00E944D319B01AC01DC
:104BF000C501B4010E94373118160CF00DC5C12C47
:104C0000D12CEFEAEE2EE3E4FE2E0DEC1CEC2CE4AE
:104C10003DE340E050E066E973E48FED93E00E94ED
:104C2000850E60915E0370E080E090E00E944B3161
:104C30006093D3037093D4038093D5039093D603EA
:104C400083E090E090933B0380933A036BE872E03B
:104C500077C38091380390913903893691400CF4E1
:104C6000DBC474C060E0809125030E94D8033092B9
:104C70002603209225030E94330586169706A80670
:104C8000B90620F460E086E00E94D80360915E03DC
:104C900070E065507109072E000C880B990B0E947B
:104CA0004D319B01AC016091DB037091DC0380917D
:104CB000DD039091DE030E94373187FD3FC0C12C98
:104CC000D12C6FEAE62E63E4F62E0DEC1CEC2CE4FE
:104CD0003DE340E050E066E973E48FED93E00E942D
:104CE000850E80E090E0A8ECB2E48093D30390932B
:104CF000D403A093D503B093D60384E090E09093BF
:104D00003B0380933A0367E872E08FE593E00E94EB
:104D10007403E0913A03F0913B03EE0FFF1FE55C53
:104D2000FE4F808191810E94250B0E943305DC019A
:104D3000CB018854944FAF4FBF4F1AC380913803B3
:104D400090913903893691400CF466C48AE090E072
:104D500090933B0380933A03109208031092070349
:104D600010920A031092090382E090E090932803C6
:104D7000809327030E943305DC01CB0188519C4FAF
:104D8000AF4FBF4F80932D0390932E03A0932F031B
:104D9000B09330030E94330560931D0370931E038C
:104DA00080931F0390932003EBC260E08091250362
:104DB0000E94D803E7E0F0E0F0932603E093250398
:104DC0000E94330586169706A806B90620F460E00F
:104DD00086E00E94D80320E030E048EC52E4609185
:104DE000DB037091DC038091DD039091DE030E9470
:104DF000463118160CF410C40E943305DC01CB01B7
:104E000088519C4FAF4FBF4F80932D0390932E033B
:104E1000A0932F03B093300361E086E00E94D80393
:104E2000109208031092070385E090E090933B03F3
:104E300080933A0363E872E0DFC30E94330586166D
:104E40009706A806B90608F0E7C360E086E00E946E
:104E5000D80310923B0310923A036FE772E08FE59C
:104E600093E00E947403E0913A03F0913B03EE0F4C
:104E7000FF1FE55CFE4F808191810E94250B1092FF
:104E80000A03109209031092D3031092D4031092D4
:104E9000D5031092D6031092D7031092D803109224
:104EA000D9031092DA03B8C320E030E048E452E4BA
:104EB0006091DB037091DC038091DD039091DE0350
:104EC0000E94463187FFA8C310923B0310923A0319
:104ED0006BE772E08FE593E00E947403E0913A0380
:104EE000F0913B03EE0FFF1FE55CFE4F8081918147
:104EF0000E94250BD5C20E94330586169706A80688
:104F0000B90620F460E086E00E94D8038091270370
:104F1000909128038130910521F0029709F45CC03B
:104F20007BC34090DB035090DC036090DD03709006
:104F3000DE0320E030E44CE156E4C301B2010E94FC
:104F400046318823A1F020E034E44CE156E4C3016B
:104F5000B2010E944631882351F020E038E44CE150
:104F600056E4C301B2010E944631811117C010926C
:104F70000803109207038AE090E090933B0380932C
:104F80003A0310920A03109209030E943305F8EEC7
:104F90008F0EF3E09F1EA11CB11CD9C280910903A2
:104FA00090910A03019709F037C3109208031092F9
:104FB000070310923B0310923A03109228031092B9
:104FC000270310920A031092090360E086E00E9412
:104FD000D80367E772E010C38091090390910A0338
:104FE000019709F019C31092080310920703109259
:104FF0003B0310923A031092280310922703109259
:105000000A031092090360E086E00E94D80363E778
:1050100072E0F2C280913A0390913B038730910590
:1050200009F434C134F4009771F0069709F4E0C034
:10503000F3C28930910509F41BC20CF4A6C10A978A
:1050400009F433C2E9C21092D7031092D803109228
:10505000D9031092DA031092390310923803209189
:10506000D3033091D4034091D5035091D60360917E
:10507000DB037091DC038091DD039091DE030E94DD
:10508000373187FD0BC089E090E090933B0380931C
:105090003A03109208031092070302C28091090399
:1050A00090910A03019709F0B7C280ED97E09093C1
:1050B00033038093320386ED92E00E949F0B0E949F
:1050C0000F0C8BEB92E00E949F0B10923903109211
:1050D00038030E9433056093340370933503809343
:1050E00036039093370380E090E00E94380BC09025
:1050F0005703D0905803E0905903F0905A03009161
:10510000530310915403209155033091560340915D
:105110004F035091500360915103709152038FEDF2
:1051200093E00E941D0F6091320370913303072EAC
:10513000000C880B990B0E944D31AB01BC018FED27
:1051400093E00E94B30960910B0470910C0480916C
:105150000D0490910E040E944B319B01AC0160E064
:1051600070E08AE794E40E9496304B015C019B0159
:10517000AC016091EF037091F0038091F103909185
:10518000F2030E94AC316093EF037093F0038093BD
:10519000F1039093F203A50194016091F3037091E0
:1051A000F4038091F5039091F6030E94963060938A
:1051B000F3037093F4038093F5039093F60388EE62
:1051C00093E0A0E0B0E080930B0490930C04A093D4
:1051D0000D04B0930E0481E090E00E94380B86E04D
:1051E00090E090933B0380933A0367EB72E0A8C092
:1051F0000E94330586169706A806B90620F460E0DB
:1052000086E00E94D803309208032092070320E032
:1052100030E040E050E46091D3037091D40380917A
:10522000D5039091D6030E9429309B01AC01609177
:10523000DB037091DC038091DD039091DE030E941B
:10524000373187FDE9C127E030E030933B032093FD
:105250003A0363EB72E08FE593E00E947403E09100
:105260003A03F0913B03EE0FFF1FE55CFE4F808198
:1052700091810E94250B0E9433056093290370934E
:105280002A0380932B0390932C036AC00E9433055A
:1052900086169706A806B90620F460E086E00E940C
:1052A000D8038090DB039090DC03A090DD03B090E6
:1052B000DE034090D3035090D4036090D5037090E8
:1052C000D60320E030E040E050E4C301B2010E9488
:1052D00029309B01AC01C501B4010E94373187FD23
:1052E000BCC020E030E040E050E4C301B2010E94C5
:1052F0002A309B01AC01C501B4010E944631181649
:105300000CF4ABC00E9433050091290310912A03CD
:1053100020912B0330912C03DC01CB01801B910BDE
:10532000A20BB30B81369A4EA105B10508F474C1E6
:1053300088E090E090933B0380933A036FEA72E039
:105340008FE593E00E947403E0913A03F0913B03F0
:10535000EE0FFF1FE55CFE4F808191810E94250BBF
:105360000E943305DC01CB0186509F4FAF4FBF4FEA
:1053700080932D0390932E03A0932F03B0933003BB
:1053800061E086E00E94D80347C10E94330586167B
:105390009706A806B90620F460E086E00E94D803CC
:1053A0008090DB039090DC03A090DD03B090DE03DF
:1053B0004090D3035090D4036090D5037090D603EF
:1053C00020E030E040E050E4C301B2010E94293007
:1053D0009B01AC01C501B4010E94463187FD11C09B
:1053E00020E030E040E050E4C301B2010E942A30E6
:1053F0009B01AC01C501B4010E94373118160CF0B5
:105400000BC147E050E050933B0340933A036BEAF3
:1054100072E08FE593E00E947403E0913A03F0910B
:105420003B03EE0FFF1FE55CFE4F808191810E94E0
:10543000250B0E943305DC01CB0186509F4FAF4FF7
:10544000BF4F80932D0390932E03A0932F03B0930F
:10545000300361E086E00E94D8030E943305609328
:10546000290370932A0380932B0390932C03D4C0B9
:105470002091D3033091D4034091D5035091D603AA
:105480006091DB037091DC038091DD039091DE037A
:105490000E94463187FFC0C010923B0310923A032E
:1054A00010920A0310920903B7C00E9433058616B2
:1054B0009706A806B90620F460E086E00E94D803AB
:1054C00080912703909128038130910521F0029764
:1054D00009F476C0A1C04090DB035090DC036090DB
:1054E000DD037090DE0320E030E44CE156E4C301BC
:1054F000B2010E9446318823A1F020E034E44CE15F
:1055000056E4C301B2010E944631882351F020E0E5
:1055100038E44CE156E4C301B2010E9446318111E6
:1055200031C010920803109207038AE090E0909334
:105530003B0380933A0310920A03109209030E94DE
:10554000330558EE850E53E0951EA11CB11C86163E
:105550009706A806B90608F05FC00E9433050E94AE
:105560004B3120E030E84BE354E40E942A300E94A3
:10557000083160932D0370932E0380932F03909333
:105580003003FECE8091090390910A03019709F040
:1055900043C0109208031092070310923B0310922D
:1055A0003A03109228031092270310920A031092D4
:1055B000090360E086E00E94D80367EA72E01CC03D
:1055C0008091090390910A03019731F51092080325
:1055D0001092070310923B0310923A031092280393
:1055E0001092270310920A031092090360E086E0EC
:1055F0000E94D80363EA72E08FE593E00E9474038F
:10560000E0913A03F0913B03EE0FFF1FE55CFE4F84
:10561000808191810E94250B8091090390910A035A
:10562000892BB1F48091070390910803019781F4CD
:10563000109208031092070310923B0310923A0352
:1056400082EE92E00E949F0B109239031092380371
:105650008091070390910803019709F059C10E94B6
:1056600033056FA778AB89AB9AAB80911704882379
:1056700009F401C10E9433056BAB7CAB8DAB9EABD3
:105680008091FF0390910004A0910104B091020465
:105690004BA95CA96DA97EA9481B590B6A0B7B0B12
:1056A00080910B0490910C04A0910D04B0910E0414
:1056B000481759076A077B0708F4DDC0E091F90332
:1056C000F091FA034080518062807380E091FD0385
:1056D000F091FE03A3019201608171818281938127
:1056E0000E9429306FAB78AF89AF9AAF2091EF035A
:1056F0003091F0034091F1035091F2030E94AC31DC
:105700002091030430910404409105045091060453
:105710000E942A304B015C016093030470930404DF
:105720008093050490930604E0901304F090140411
:1057300000911504109116049701A8010E943731B9
:1057400018165CF4C701D8018093030490930404F5
:10575000A0930504B093060420C080910F0490919B
:105760001004A0911104B09112048BAF9CAFADAFA7
:10577000BEAF9C01AD01C501B4010E94463187FF57
:105780000CC02BAD3CAD4DAD5EAD2093030430930A
:10579000040440930504509306042091EB033091D8
:1057A000EC034091ED035091EE036FA978AD89AD04
:1057B0009AAD0E94AC3120910304309104044091D1
:1057C0000504509106040E942A304B015C0120918F
:1057D0000704309108044091090450910A04C30160
:1057E000B2010E9429302091F3033091F4034091DB
:1057F000F5035091F6030E94AC319B01AC01C50149
:10580000B4010E9429304B015C019701A8010E945C
:105810003731181694F0E0900F04F09010040091C6
:105820001104109112049701A801B401C5010E944E
:10583000463187FD02C074018501E091FB03F091C0
:10584000FC03C701D80180839183A283B383409274
:105850000704509208046092090470920A048BA90C
:105860009CA9ADA9BEA98093FF0390930004A093C7
:105870000104B09302048091340390913503A09108
:105880003603B09137034091320350913303052E14
:10589000000C660B770B0FA518A929A93AA9081BBC
:1058A000190B2A0B3B0B401751076207730760F473
:1058B000840F951FA61FB71F809334039093350361
:1058C000A0933603B093370380913403909135034E
:1058D000A0913603B09137032FA538A949A95AA939
:1058E000281B390B4A0B5B0BCA01B9010E944B31D3
:1058F0009B01AC016091D7037091D8038091D903CB
:105900009091DA030E943731181614F461E001C057
:1059100060E085E00E94D80380913103882309F478
:105920008AC08091070390910803019709F50E94AE
:105930003305009103031091040320910503309176
:1059400006034B015C01801A910AA20AB30A209156
:105950001601309117014091180150911901A8EEDC
:10596000B3E00E9492329B01AC01A091F40220C0EE
:105970000E94330500910303109104032091050355
:10598000309106034B015C01801A910AA20AB30A06
:105990002091160130911701409118015091190181
:1059A000A8EEB3E00E9492329B01AC01A091F302F9
:1059B000B0E00E949232681579058A059B0560F473
:1059C0000E9416130E94330560930303709304032F
:1059D000809305039093060381E48093D50280EBC6
:1059E00093E00E94FD02882331F161E082E00E9491
:1059F000D8038091CE028A31D1F481E08093CD0228
:105A00008AE1E0E9F2E0AFECB2E001900D928A9514
:105A1000E1F780918F02882329F080918E028F3FD9
:105A200009F0E2C08091CD0281110E94051260E070
:105A300082E00E94D80380E090E0892B11F40C945E
:105A4000D51B0E9400000C94D21B0E943305DC0180
:105A5000CB0188199909AA09BB09C297A105B1050B
:105A600010F00C94971B10E0F701E10FF11DE10F0E
:105A7000F11D60816F3F11F40C94601B418180EB3C
:105A800093E00E94AD061F5FEFCF0E943305DC015B
:105A9000CB0188199909AA09BB09C297A105B105CB
:105AA00010F40C94801B0C94891B10928D02809131
:105AB000B4038530B0F5E82FF0E0EE0FFF1FE050A3
:105AC000FF4F2FE133E0318320838230B1F018F4AF
:105AD000813061F004C08330B9F08430E1F080910E
