:100000000C9479020C9406270C9433270C946027E7
:100010000C948D270C94A1020C94A1020C94BA2785
:100020000C94A1020C94A1020C94D3310C949F3037
:100030000C94A1020C94A1020C94A1020C94A102B4
:100040000C94A1020C94A1020C94A1020C94A102A4
:100050000C94A1020C94A1020C94A1020C94E72729
:100060000C94A1020C94A1020C94A1020C94A10284
:100070000C94A1020C94A1020C94A1020C94A10274
:100080000C94A1020C94A1020C94A1020C94A10264
:100090000C94A1020C94A1020C94A1020C94A10254
:1000A0000C94A1020C94A1020C94A1029C0A2C0BAA
:1000B000B10B3C0CBB0C0B0DC60DC60DC60D390D9E
:1000C0004E0D09121112A015A015A015A0155B1256
:1000D000A015A015A015B012A0155B137213A015E2
:1000E000D51351147414B514A015EB14FF14012981
:1000F0000429F328F728FD28252925292529082959
:100100000C29102916291A292529202954696D65D9
:100110002C536574706F696E742C496E7075742CF5
:100120004F757470757400493A204F56454E2D3EF8
:100130004F4E00493A204F56454E2D3E4F4E0052ED
:1001400045534554204F4B00493A205049442D3ED9
:10015000524553455400493A205245464C4F572D7D
:100160003E524553455400493A2053455454494E54
:1001700047532D3E454550524F4D00453A2053457B
:1001800054504F494E542D3E00493A205345545047
:100190004F494E542D3E00453A205245464C4F574C
:1001A0002D3E534554504F494E543F00453A20533D
:1001B0004F414B2D3E00493A20534F414B2D3E00BD
:1001C000493A205049442D3E524553455400453A42
:1001D000205245464C4F572D3E00493A2052454645
:1001E0004C4F572D3E00493A20502D3E00453A20B5
:1001F000505245484541542D3E00493A2050524501
:10020000484541542D3E00453A204F56454E2D3E1F
:100210003F00453A204D4F44452D3E3F00493A208E
:100220004D4F44452D3E54454D5000493A204D4FC9
:1002300044452D3E5245464C4F5700453A205245C5
:10024000464C4F572D3E493F00493A20442D3E0031
:10025000453A205245464C4F572D3E443F00493ABF
:10026000204D4F44452D3E5245464C4F5700493A8C
:10027000204D4F44452D3E54454D500053657474F8
:10028000696E677300453A20556E6B6E6F776E002E
:10029000453A20546865726D6F636F75706C6520A8
:1002A0004572726F7200453A20546865726D6F63D3
:1002B0006F75706C652053686F727400453A2054F6
:1002C0006865726D6F636F75706C65204F70656ED9
:1002D00000493A204F56454E2D3E4F4646000000FD
:1002E000000200090F0000030401000C00000000E0
:1002F00000000000000000000000000004080201EF
:10030000104080401020408040800802040180405E
:100310002010020110801020404004040404040353
:100320000405020202020403020202020606060695
:100330000606040402020204000000002300260056
:1003400029002C002F0000000000250028002B00B1
:100350002E00310000000000240027002A002D009C
:100360003000080B00020202010009040000010233
:1003700002000005240010010524010101042402EB
:100380000605240600010705810310004009040149
:1003900000020A0000000705020240000007058372
:1003A0000240000000C18081C11201000202000071
:1003B00040412336800001010200011201000200C9
:1003C00000004041233680000101020001417264B7
:1003D00075696E6F204C4C430041726475696E6F95
:1003E000204C656F6E6172646F00040309040000A5
:1003F0000000000000002A2B280000000000000080
:1004000000000000000000000000000000002C9E22
:10041000B4A0A1A2A434A6A7A5AE362D3738271EB6
:100420001F20212223242526B333B62EB7B89F845C
:1004300085868788898A8B8C8D8E8F9091929394F4
:1004400095969798999A9B9C9D2F3130A3AD350432
:1004500005060708090A0B0C0D0E0F1011121314D4
:1004600015161718191A1B1C1DAFB1B0B5000904D9
:1004700002000103000000092101010001226500C2
:100480000705840340000105010902A1010901A13A
:10049000008501050919012903150025019503753A
:1004A00001810295017505810305010930093109B2
:1004B000381581257F750895038106C0C00501099F
:1004C00006A1018502050719E029E7150025017538
:1004D0000195088102950175088103950675081537
:1004E0000025650507190029658100C0AD10812A26
:1004F0007E3311241FBECFEFDAE0DEBFCDBF12E0A6
:10050000A0E0B1E0ECE2FCE602C005900D92A83A52
:10051000B107D9F725E0A8EAB2E001C01D92A032E8
:10052000B207E1F714E0C2EFD4E004C02297FE0165
:100530000E94CE35CC3ED107C9F70E949F2A0C9469
:1005400014360C9400000895FB0195878487DC0124
:1005500019967C936E93189726853785232B31F453
:100560001E968D919C911F9797878687CF0108953E
:10057000CF92DF92EF92FF920F931F93CF93DF936F
:100580008C01EB01209719F1DC019296ED91FC9121
:1005900093976F017B010088F189E02D309719F066
:1005A000C701B6010995EA89FB89309719F0C7019F
:1005B000B6010995D8019496ED91FC9195973097E5
:1005C00019F0C701B6010995F801D3A3C2A3DF91C1
:1005D000CF911F910F91FF90EF90DF90CF900895F2
:1005E000CF93DF93EC018AA19BA1DC015C96ED9196
:1005F000FC915D97309709F00995EAA1FBA1608510
:1006000071856115710529F0DB011F96FC93EE934E
:100610001E97CE01DF91CF910C94B802CF92DF925A
:10062000EF92FF920E943128C0908903D0908A03F4
:10063000E0908B03F0908C03C616D706E806F90607
:1006400008F04BC0D701C60188519C4FAF4FBF4F38
:100650008093890390938A03A0938B03B0938C03B8
:1006600060E070E087E093E00E94BB1C6B017C01BE
:1006700060939B0370939C0380939D0390939E03D0
:1006800020E030E44CE156E40E94F0338823A1F0EE
:1006900020E034E44CE156E4C701B6010E94F03397
:1006A000882351F020E038E44CE156E4C701B6015C
:1006B0000E94F033811111C08AE090E090937203A0
:1006C000809371031092700310926F0310926E0367
:1006D00010926D0381E08093A303FF90EF90DF9071
:1006E000CF9008958091730390917403892B09F042
:1006F0004BC06EE672E08AEB94E00E94222B81E010
:1007000090E0909374038093730380E090E0A0EAFC
:10071000B1E480939F039093A003A093A103B093AF
:10072000A2038AE093E00E94EF1A63E771E08AE097
:1007300093E00E94152B41E060E08AE093E00E9484
:10074000F61A68E771E08AE093E00E94152B22E038
:1007500030E043E353E363E170E48AE093E00E9416
:100760003B2D60E080913D010E945F2964EC79E0BF
:1007700080E090E00E9460288AE093E00E94EF1AF7
:100780008AE093E00C940C1C6EE572E08AEB94E036
:100790000E94222B109274031092730310929F03F5
:1007A0001092A0031092A1031092A2038AE093E09A
:1007B0000E94EF1A6EE771E08AE093E00E94152B29
:1007C00041E060E08AE093E00E94F61A68E771E099
:1007D0008AE093E00E94152B22E030E043E353E3EC
:1007E00063E170E48AE093E00E943B2D60E0809139
:1007F0003D010E945F2964EC79E080E090E00E9476
:1008000060288AE093E00E94EF1A8AE093E00C945B
:10081000051CCF93DF93EC014DE050E060E570E004
:100820000E94EC3588818130C1F040E050E060EA00
:1008300070E449835A836B837C834AE057ED63E21B
:100840007CE34D835E836F83788740E050E060E215
:1008500071E449875A876B877C87DF91CF91089530
:1008600021E0FC0120834DE050E060E570E00C9455
:10087000FC35CF93DF93EC0144E050E064E670E098
:100880000E94EC358881813031F086E9898384EBE0
:100890008A8380EF8B83DF91CF91089521E0FC0163
:1008A000208344E050E064E670E00C94FC35AF92A5
:1008B000BF92CF92DF92EF92FF920F931F93CF934D
:1008C000DF931F92CDB7DEB727E1A22E21E0B22E33
:1008D00036EAC32E33E0D32E0AE111E020E0EE2405
:1008E000E394F12CD8018D918D0129830E949529E3
:1008F000F6018083D5019C9129818917C9F00E9456
:1009000031286093790370937A0380937B039093EB
:100910007C03F6018081D5018C9380916B039091CB
:100920006C03039721F0F0926C03E0926B0321E0DB
:10093000BFEFCB1ADB0AEFEFAE1ABE0AF1E00D31C2
:100940001F0781F600916B0310916C0302301105B3
:10095000F9F00330110509F494C10130110509F0D3
:10096000CFC12111CDC10E943128C0907903D09010
:100970007A03E0907B03F0907C036C197D098E096B
:100980009F09653671058105910508F0D9C1B8C187
:100990008091A6039091A7038111B7C091117BC0EC
:1009A0000E943128C0907503D0907603E0907703C1
:1009B000F09078036C197D098E099F09693B7B4093
:1009C0008105910508F49CC1809173039091740393
:1009D0000297E9F010937403009373038AE093E0A5
:1009E0000E94EF1A6CE772E08AE093E00E94F02A1E
:1009F0008AE093E00E94051C68EE73E080E090E0DE
:100A00000E94602885E394E00E94F00279C188E5A5
:100A100093E00E944E04109274031092730310929C
:100A20009F031092A0031092A1031092A2038AE0E8
:100A300093E00E94EF1A6EE771E08AE093E00E9473
:100A4000152B41E060E08AE093E00E94F61A68E727
:100A500071E08AE093E00E94152B22E030E043E34E
:100A600053E363E170E48AE093E00E943B2D60E091
:100A700080913D010E945F2964EC79E080E090E084
:100A80000E9460288AE093E00E94EF1A8AE093E0D7
:100A90000E94051C35C18091A803811117C00E94D6
:100AA0003128C0907503D0907603E0907703F090E2
:100AB00078036C197D098E099F09693B7B4081058C
:100AC000910508F41DC10E947203D4C08091730384
:100AD0009091740397FDCEC08230910544F0029747
:100AE00009F0C8C085E394E00E94F002C3C0809181
:100AF0006D0390916E03892B09F066C081E090E050
:100B000090936E0380936D03B5C08091A8039111FB
:100B10004CC081110AC080911601813011F48AE025
:100B200001C081E080931601A5C08091730390916C
:100B300074038130910529F08230910509F041C09C
:100B400021C06091160170E080E090E00E948F3437
:100B500020919F033091A0034091A1035091A203E3
:100B60000E948C336B017C0120E030E048E453E4C8
:100B70000E943F3518160CF049C080E090E0A8E4D0
:100B8000B3E451C08091570490915804DC0156960B
:100B9000ED91FC915797309709F00995E091570432
:100BA000F09158046681778159C0811163C08091AA
:100BB0007303909174038130910559F0823091054F
:100BC000D9F1892B09F056C010926E0310926D0373
:100BD00051C06091160170E080E090E00E948F3477
:100BE0009B01AC0160919F037091A0038091A103D0
:100BF0009091A2030E948B336B017C0120E030E0D6
:100C000040EA51E40E94F03387FD09C0C0929F037F
:100C1000D092A003E092A103F092A2032BC080E047
:100C200090E0A0EAB1E480939F039093A003A09387
:100C3000A103B093A2031EC0809157049091580461
:100C4000DC015896ED91FC915997309709F0099580
:100C5000E0915704F0915804628573856115710520
:100C600029F0DB011F96FC93EE931E9785E394E039
:100C70000E94B80283E090E090936C0380936B0332
:100C80003FC087E1E82E81E0F82E06EA13E09AE102
:100C9000A92E91E0B92EDD24D394F50181915F0155
:100CA0000E949529D8018D938D01F70181937F01D1
:100CB00081110BC00E9431286093790370937A03ED
:100CC00080937B0390937C03D12CFDE1AF16F1E080
:100CD000BF0619F7DD20A1F00E943128C0907903EA
:100CE000D0907A03E0907B03F0907C036C197D092F
:100CF0008E099F09653671058105910508F044C08C
:100D00000E94312800918103109182032091830376
:100D100030918403061717072807390708F043C0E6
:100D200060E080913D010F90DF91CF911F910F9175
:100D3000FF90EF90DF90CF90BF90AF900C945F2921
:100D400082E090E090936C0380936B030E943128C3
:100D50006E5C7F4F8F4F9F4F609381037093820330
:100D6000809383039093840361E080913D010E940E
:100D70005F290E94312860937503709376038093F6
:100D8000770390937803BCCF10926C0310926B039F
:100D90000E9431286093790370937A0380937B03D8
:100DA00090937C03ADCF0F90DF91CF911F910F9166
:100DB000FF90EF90DF90CF90BF90AF90089586E9BD
:100DC0008093590384EB80935A0380EF80935B03F5
:100DD00088E593E00E944E0441E060E08AE093E001
:100DE0000E94F61A6FE371E08AE093E00E94F02A15
:100DF00060ED77E080E090E00E946028109274033C
:100E00001092730310929F031092A0031092A103FB
:100E10001092A2038AE093E00E94EF1A6EE771E05D
:100E20008AE093E00E94152B41E060E08AE093E0C5
:100E30000E94F61A68E771E08AE093E00E94152BA1
:100E400022E030E043E353E363E170E48AE093E0BF
:100E50000E943B2D60E080913D010E945F2964EC7F
:100E600079E080E090E00E9460288AE093E00E94B0
:100E7000EF1A8AE093E00C94051CCF93DF93EC010A
:100E80004AE150E060E070E00E94EC3598859F3FB9
:100E9000E1F481E08F832EEF288799879CE39A877E
:100EA0008B871C8683E088838FEF9FEF9A838983EB
:100EB00080E090E0FE01E80FF91F20892F3F09F440
:100EC000108A01968A309105A9F7DF91CF91089594
:100ED0004AE150E060E070E00C94FC3563E174E0BE
:100EE00085E394E00E94A40261EF73E083E194E063
:100EF0000E94A4026FEC73E081EF93E00E94A402D1
:100F00006DEA73E08FEC93E00E94A40263E174E069
:100F10008DEA93E00E94A40287EA95E190932A0467
:100F20008093290490930804809307049093E60328
:100F30008093E5032FED36E03093C4032093C30381
:100F400086E096E190932C0480932B0490930A04FE
:100F5000809309049093E8038093E7033093C603DA
:100F60002093C50308958091BF02813051F098F01D
:100F7000823061F0833079F480E891E5A1E0B0E05F
:100F80000EC08CE390E0A0E0B0E009C080E19EE0FC
:100F9000A0E0B0E004C081E090E0A0E0B0E0809389
:100FA000060190930701A0930801B09309010895E9
:100FB000CF92DF92EF92FF9280910203882309F48F
:100FC000F2C0109202038091D302833449F118F4E5
:100FD000823441F0E0C0833509F452C0853509F40C
:100FE0004FC0D9C02091D4028091D50290E0982FB3
:100FF0008827820F911D2091B4023091B5022F3FB6
:101000003F4F29F08F3F2FEF920709F0C4C0909314
:10101000B5028093B40283EB92E00E946807BBC0E4
:101020008091D4028093BA028091D5028093BB0252
:101030008091D6028093BC028091D7028093BD023A
:101040008091D8028093BE029091D9029093BF0202
:10105000811103C081E08093BE0283EB92E00E9485
:1010600068070E94B3076091BB0288EA92E00E9481
:1010700063226091BC0288EA92E00E9469228BC0E0
:101080008091D4028F34F1F08535D1F18D3409F09F
:101090005FC08091D50281110AC080917303909145
:1010A0007403019709F054C00E94720351C081304B
:1010B00009F04EC08091730390917403892B09F05D
:1010C00047C0F2CF8091D50281110BC080916D0392
:1010D00090916E030197E1F510926E0310926D03EB
:1010E00037C08130A9F580916D0390916E03892BF3
:1010F00079F581E090E090936E0380936D0328C0B2
:10110000E090D602F12CFE2CEE248091D502E80E60
:10111000F11C4AE050E0B7018AEB94E00E943A2CBF
:101120008091730390917403019791F4C7014497E0
:10113000853B910568F4B70180E090E00E948D3412
:1011400060939F037093A0038093A1039093A203E5
:101150000E9431286B017C0120910601309107012A
:101160004091080150910901A8EEB3E00E94D235E8
:101170009B01AC01A091BD02B0E00E94D235C60E29
:10118000D71EE81EF91EC0920303D0920403E0921A
:101190000503F092060388EA92E0FF90EF90DF905B
:1011A000CF900C941C21FF90EF90DF90CF9008958A
:1011B000EF920F9361E080913F010E945F2983E0ED
:1011C0008093E7028091B4029091B5029093E90276
:1011D0008093E8028091EA028F5F8093EA0283E7BE
:1011E0008093EB0260E088EA92E00E948026809380
:1011F000EC0260919F037091A0038091A1039091F4
:10120000A2030E9461346093ED0260919B03709190
:101210009C0380919D0390919E030E946134609392
:10122000EE022DEC3CEC4CEC5DE360919703709189
:1012300098038091990390919A030E9443350E94EC
:1012400061346093EF0280916F038093F00280918C
:1012500073038093F102E2EFF2E08FEF819393E06A
:10126000E130F907D9F774E6E72E00E02AE147EE0E
:1012700052E06091BA0288EA92E00E944421809391
:1012800002030E94D80760E080913F010F91EF9028
:101290000C945F29CF9361E0809141010E9426293F
:1012A00060E0809141010E945F2961E080913D01F1
:1012B0000E94262960E080913D010E945F2961E043
:1012C0008091A9030E94262960E08091A9030E94D1
:1012D0005F2961E0809127010E94262960E08091CA
:1012E00027010E945F2961E0809125010E94262943
:1012F00060E0809125010E945F2961E080912301D7
:101300000E94262960E0809123010E945F295D9858
:1013100061E080913F010E94262960E080913F01B9
:101320000E945F2962E0809121010E94262962E0EB
:1013300080911F010E94262962E080911D010E9478
:10134000262988E593E00E9439048CE593E00E9409
:10135000090461E080913D010E945F2920E042E0A4
:1013600068E08AE093E00E942B1B43E451E060E0D8
:101370008AE093E00E94141C8AE093E00E94EF1A36
:101380006EE771E08AE093E00E94152B41E060E097
:101390008AE093E00E94F61A68E771E08AE093E041
:1013A0000E94152B22E030E043E353E363E170E455
:1013B0008AE093E00E943B2D60E080913D010E9415
:1013C0005F2940E855E260E070E08AEB94E00E941B
:1013D0007B2A44E650E060E070E08AEB94E00E94F3
:1013E000992D0E94312860938D0370938E03809312
:1013F0008F03909390030E94312860938903709328
:101400008A0380938B0390938C030E946E0783EB77
:1014100092E00E943D070E94B30761E080913F0186
:101420000E945F292091BC024091BB026BE288EAD6
:1014300092E00E947E23C82F64EF71E080E090E08C
:101440000E94602860E080913F010E945F29CC23C8
:10145000D1F081E0809301036AEF70E080E090E0DA
:101460000E94602861E080913F010E945F296AEF3D
:1014700070E080E090E00E94602860E080913F0191
:101480000E945F2902C01092010380910103811123
:101490000E94D80860ED77E080E090E00E9460282C
:1014A0008AE093E0CF910C94EF1A81E48093D30209
:1014B00088EA92E00E94FA20882349F161E0809155
:1014C0003F010E945F29809168048A31D9F481E04C
:1014D000809302038AE1EAE6F4E0ADECB2E0019029
:1014E0000D928A95E1F788EA92E00E94972188237D
:1014F00039F040E06AE872E088EA92E00E94E8256C
:101500000E94D80760E080913F010C945F29089504
:10151000CF92DF92EF92FF920F931F93CF93DF93BF
:10152000E0917103F0917203EB30F10508F02EC3E6
:10153000EA5AFF4F0C94CC3510929F031092A003EF
:101540001092A1031092A203109297031092980395
:101550001092990310929A0320E030E048E452E49C
:1015600060919B0370919C0380919D0390919E03D9
:101570000E943F3587FD03C089E090E047C2C091DB
:101580006D03D0916E03C130D10509F0FFC263E352
:1015900071E08AEB94E00E94222B65E871E08AEB0F
:1015A00094E00E94342B10926A031092690380ED3C
:1015B00097E090939603809395030E94312860935F
:1015C000910370939203809393039093940360919B
:1015D000590370E080E090E00E948D3460939F0397
:1015E0007093A0038093A1039093A203C12CD12CEC
:1015F000B0EAEB2EB1E4FB2E0DEC1CEC2CEC3CE342
:1016000040E050E060E272E48FE193E00E94431E0C
:101610006091950370919603882777FD8095982FA8
:101620000E948F348B019C0140E050E0BA018FE1B1
:1016300093E00E94441F68EE73E08FE193E00E9404
:10164000F61E61E070E08FE193E00E940A20D093E3
:101650007203C093710375C060E08091A4030E947F
:101660005F298091A9039091AA039093A503809389
:10167000A4030E94312800918103109182032091DC
:10168000830330918403061717072807390728F4C6
:1016900060E080913D010E945F2981E090E090939D
:1016A000700380936F036091590370E080E090E0D5
:1016B0000E948F349B01AC0160919B0370919C034D
:1016C00080919D0390919E030E943F3587FD39C113
:1016D0000E943128685D7C4D8F4F9F4F609385033A
:1016E000709386038093870390938803C12CD12C39
:1016F000AAE7EA2EA3E4FA2E0DEC1CEC2CE43DE361
:1017000040E050E066E973E48FE193E00E94431EFD
:101710006091590370E06B5F7F4F882777FD80955C
:10172000982F0E948F3460939F037093A00380933F
:10173000A1039093A20382E090E0909372038093C0
:1017400071030E94312866507F4F8F4F9F4F6093E7
:10175000810370938203809383039093840361E0F9
:1017600009C260E08091A4030E945F298091270153
:10177000909128019093A5038093A4030E9431289F
:10178000009181031091820320918303309184039F
:10179000061717072807390728F460E080913D01F4
:1017A0000E945F290E9431280091850310918603D1
:1017B00020918703309188030617170728073907F8
:1017C00008F0BFC00E943128685D7C4D8F4F9F4F4D
:1017D00060938503709386038093870390938803B7
:1017E00020E030E040EA50E460919F037091A00354
:1017F0008091A1039091A2030E948C336B017C0124
:1018000060939F037093A0038093A1039093A2031E
:1018100060915A0370E080E090E00E948F349B0159
:10182000AC01C701B6010E943F3518160CF0AEC1DD
:10183000C12CD12CFFEAEF2EF3E4FF2E0DEC1CECB3
:101840002CE43DE340E050E066E973E48FE193E08F
:101850000E94431E60915B0370E080E090E00E9474
:101860008D3460939F037093A0038093A1039093A2
:10187000A20383E090E061CF60E08091A4030E9426
:101880005F2980912501909126019093A503809373
:10189000A4030E94312800918103109182032091BA
:1018A000830330918403061717072807390728F4A4
:1018B00060E080913D010E945F2960915B0370E0D0
:1018C00065507109882777FD8095982F0E948F3485
:1018D0009B01AC0160919B0370919C0380919D03DF
:1018E00090919E030E943F3587FD2BC0C12CD12CC7
:1018F000EFEAEE2EE3E4FE2E0DEC1CEC2CE43DE3CF
:1019000040E050E066E973E48FE193E00E94431EFB
:1019100080E090E0A8ECB2E480939F039093A00352
:10192000A093A103B093A20384E090E0909372038C
:10193000809371030E9431286854744F8F4F9F4FDA
:1019400006CF8091690390916A03893691400CF427
:101950001DC18AE090E0909372038093710310920E
:10196000700310926F0310926E0310926D0381E06A
:101970008093A303EBC060E08091A4030E945F29E1
:1019800080912301909124019093A5038093A40357
:101990000E943128009181031091820320918303DA
:1019A00030918403061717072807390728F460E0E9
:1019B00080913D010E945F2920E030E048EC52E434
:1019C00060919B0370919C0380919D0390919E0375
:1019D0000E94F03318160CF4D9C00E9431286851C7
:1019E0007C4F8F4F9F4F609381037093820380934E
:1019F00083039093840361E080913D010E945F29FD
:101A00001092700310926F0385E090E09093720340
:101A100080937103BBC00E94312800918103109113
:101A20008203209183033091840306171707280748
:101A3000390708F0ABC060E080913D010E945F294A
:101A4000109272031092710310926E0310926D0344
:101A500010929F031092A0031092A1031092A20370
:101A600010929703109298031092990310929A0380
:101A70008DC020E030E048E452E460919B03709117
:101A80009C0380919D0390919E030E94F03387FFF9
:101A90007DC0109272031092710378C00E943128A9
:101AA000009181031091820320918303309184037C
:101AB000061717072807390728F460E080913D01D1
:101AC0000E945F298091A303813009F05FC0C0901C
:101AD0009B03D0909C03E0909D03F0909E0320E038
:101AE00030E44CE156E4C701B6010E94F03388238C
:101AF000A1F020E034E44CE156E4C701B6010E94B5
:101B0000F033882351F020E038E44CE156E4C7017B
:101B1000B6010E94F033811126C08AE090E09093D4
:101B20007203809371030E94312800918103109108
:101B30008203209183033091840308511C4F2F4F5F
:101B40003F4F061717072807390700F50E9431286D
:101B50000E948D3420E030E84BE354E40E948C3343
:101B60000E946134F4CD10927203109271031092AE
:101B7000A30360E080913D01DF91CF911F910F9110
:101B8000FF90EF90DF90CF900C945F29DF91CF9181
:101B90001F910F91FF90EF90DF90CF900895CF931A
:101BA000DF93EC0163EA71E08AEB94E00E94342B4E
:101BB0006CEA71E08AEB94E00E94152B4AE050E059
:101BC00069818AEB94E00E94162C60EB71E08AEB4D
:101BD00094E00E94152B4AE050E06A818AEB94E081
:101BE0000E94162C60EB71E08AEB94E00E94152BAA
:101BF0004AE050E06B818AEB94E0DF91CF910C9446
:101C00001D2CCF93DF93EC0162EB71E08AEB94E043
:101C10000E94342B6CEA71E08AEB94E00E94152B51
:101C200049815A816B817C8123E030E08AEB94E02A
:101C30000E943B2D60EB71E08AEB94E00E94152B33
:101C40004D815E816F81788523E030E08AEB94E0FE
:101C50000E943B2D60EB71E08AEB94E00E94152B13
:101C600049855A856B857C8523E030E08AEB94E0DA
:101C7000DF91CF910C943D2D8F929F92AF92BF92A6
:101C8000CF92DF92EF92FF920F931F938091710397
:101C9000909172038730910509F4FFC034F40097E6
:101CA00071F0069709F4A3C04DC28930910509F47B
:101CB000BDC10CF452C10A9709F4D1C143C21092BC
:101CC0009703109298031092990310929A0310921E
:101CD0006A031092690320919F033091A003409101
:101CE000A1035091A20360919B0370919C0380918A
:101CF0009D0390919E030E943F3587FD0FC089E0B0
:101D000090E090937203809371031092700310928D
:101D10006F0310926E0310926D0314C280916D03D5
:101D200090916E03019709F00DC280ED97E09093BA
:101D300096038093950367E271E08AEB94E00E943A
:101D4000222B8CE593E00E94010E6CE071E08AEB9F
:101D500094E00E94222B10926A03109269030E9461
:101D6000312860939103709392038093930390932F
:101D70009403C0906503D0906603E0906703F090F1
:101D80006803009161031091620320916303309115
:101D9000640340915D0350915E0360915F03709115
:101DA00060038FE193E00E94431E60919503709160
:101DB0009603882777FD8095982F0E948F348B019A
:101DC0009C0140E050E0BA018FE193E00E94441F83
:101DD00068EE73E08FE193E00E94F61E61E070E030
:101DE0008FE193E00E940A2086E090E0B1C00E945B
:101DF0003128009181031091820320918303309157
:101E00008403061717072807390728F460E0809134
:101E10003D010E945F2981E090E0909370038093E0
:101E20006F0320E030E040E050E460919F03709148
:101E3000A0038091A1039091A2030E948B339B0188
:101E4000AC0160919B0370919C0380919D039091E4
:101E50009E030E943F3587FD75C187E090E0909317
:101E60007203809371030E94312860937D03709305
:101E70007E0380937F03909380030E9431286650F5
:101E80007F4F8F4F9F4F60938103709382038093A6
:101E900083039093840361E047C10E94312800913D
:101EA00081031091820320918303309184030617EC
:101EB00017072807390728F460E080913D010E9448
:101EC0005F29C0909B03D0909C03E0909D03F0900D
:101ED0009E0380909F039090A003A090A103B090D8
:101EE000A20320E030E040E050E4C501B4010E94CC
:101EF0008B339B01AC01C701B6010E943F3587FDC2
:101F00008AC020E030E040E050E4C501B4010E9406
:101F10008C339B01AC01C701B6010E94F033181647
:101F20000CF479C00E94312800917D0310917E034A
:101F300020917F0330918003601B710B820B930B08
:101F400061367A4E8105910508F4FCC088E090E086
:101F5000909372038093710390CF0E943128009177
:101F6000810310918203209183033091840306172B
:101F700017072807390728F460E080913D010E9487
:101F80005F29C0909B03D0909C03E0909D03F0904C
:101F90009E0380909F039090A003A090A103B09017
:101FA000A20320E030E040E050E4C501B4010E940B
:101FB0008B339B01AC01C701B6010E94F03387FD52
:101FC00011C020E030E040E050E4C501B4010E94BF
:101FD0008C339B01AC01C701B6010E943F35181636
:101FE0000CF0B0C087E090E090937203809371038F
:101FF0000E94312866507F4F8F4F9F4F609381031F
:1020000070938203809383039093840361E08091B3
:102010003D010E945F290E94312860937D037093E7
:102020007E0380937F03909380038CC020919F0355
:102030003091A0034091A1035091A20360919B03B2
:1020400070919C0380919D0390919E030E94F033B8
:1020500087FF78C0109272031092710373C00E94C0
:1020600031280091810310918203209183033091E4
:102070008403061717072807390728F460E08091C2
:102080003D010E945F29C0909B03D0909C03E0908B
:102090009D03F0909E0320E030E44CE156E4C7013C
:1020A000B6010E94F0338823A1F020E034E44CE133
:1020B00056E4C701B6010E94F033882351F020E0B6
:1020C00038E44CE156E4C701B6010E94F0338111B7
:1020D00026C08AE090E090937203809371030E947F
:1020E0003128009181031091820320918303309164
:1020F000840308511C4F2F4F3F4F0617170728071F
:10210000390700F50E9431280E948D3420E030E824
:102110004BE354E40E948C330E946134B4CE10929D
:1021200072031092710360E080913D011F910F9145
:10213000FF90EF90DF90CF90BF90AF909F908F90E7
:102140000C945F291F910F91FF90EF90DF90CF903B
:10215000BF90AF909F908F900895AF92BF92CF9213
:10216000DF92EF92FF920F931F93E5E3F4E08BEB86
:1021700091E0918380831092370410924204109270
:1021800041041092400410923F0410923E041092B9
:102190003D0410923C0410923B04109239041092BA
:1021A000380410923A041092560410925504F09399
:1021B0005804E093570485E696E190935A0480937F
:1021C000590483EA92E090935C0480935B0410923C
:1021D0005E0410925D04A3E1B4E084EC91E01196FA
:1021E0009C938E93109215049196FC93EE93909786
:1021F0001092200410921F0410921E0410921D04CD
:1022000010921C0410921B0410921A0410921904CC
:10221000109217041092160410921804A1EFB3E064
:102220008CEC91E011969C938E931092F30391960F
:10223000FC93EE9390971092FE031092FD03109280
:10224000FC031092FB031092FA031092F903109210
:10225000F8031092F7031092F5031092F403109212
:10226000F603AFECB3E08EE791E011969C938E936A
:102270001092D1039196FC93EE9390971092DC0309
:102280001092DB031092DA031092D9031092D80354
:102290001092D7031092D6031092D5031092D30355
:1022A0001092D2031092D403ADEAB3E081ED91E035
:1022B00011969C938E931092AF039196FC93EE939C
:1022C00090971092BA031092B9031092B80310922B
:1022D000B7031092B6031092B5031092B403109294
:1022E000B3031092B1031092B0031092B203809125
:1022F0004101909142019093AC038093AB03A09075
:102300000E01B0900F01C0901001D0901101E0902B
:102310001201F090130100911401109115011F9208
:102320001F9280910D018F9380910C018F9380916A
:102330000B018F9380910A018F932FE933E047E9D6
:1023400053E06BE973E08FE193E00E945C20C09062
:102350002B01E0902D0100912F012091310140913E
:102360003301609135018AE093E00E94DF1B2091E8
:1023700037014091390160913B0187E093E00E9471
:10238000541C8CE592E09093A9028093A80281E10D
:102390008093AA0283E08093AB021092AC0281E0AA
:1023A000809369041092AE028FE18093AF02109285
:1023B000B0020F900F900F900F900F900F901F9101
:1023C0000F91FF90EF90DF90CF90BF90AF90089566
:1023D000CF92DF92EF92FF920F931F938AEB94E0DC
:1023E0000E94E829892B09F4ABC38AEB94E00E9490
:1023F000F829992787FD9095A92FB92FFC01E3545F
:10240000F109E631F10508F09BC3EF59FF4F0C9439
:10241000CC358091730390917403892B09F037C2F6
:1024200003C38091730390917403892B19F460E5C1
:1024300072E049C08AEB94E00E94A02E609365038D
:102440007093660380936703909368030E9431281A
:1024500060939103709392038093930390939403FA
:10246000C0906503D0906603E0906703F090680326
:102470000091610310916203209163033091640322
:1024800040915D0350915E0360915F037091600322
:102490008FE193E00E94431E69E472E08AEB94E0CE
:1024A0000E94F02A40916503509166036091670392
:1024B0007091680352C08091730390917403892BCB
:1024C00061F46BE372E08AEB94E01F910F91FF904F
:1024D000EF90DF90CF900C94222B8AEB94E00E9437
:1024E000A02E6093610370936203809363039093C3
:1024F00064030E9431286093910370939203809348
:10250000930390939403C0906503D0906603E0908A
:102510006703F090680300916103109162032091BA
:1025200063033091640340915D0350915E036091B9
:102530005F03709160038FE193E00E94431E68ED9A
:1025400071E08AEB94E00E94152B40916103509159
:102550006203609163037091640323E030E0D3C2AF
:102560008AEB94E00E940E2E6B017C01CB01009758
:1025700009F04BC06BE272E08AEB94E00E94222BE0
:10258000109274031092730310929F031092A00391
:102590001092A1031092A2038AE093E00E94EF1A26
:1025A0006EE771E08AE093E00E94152B41E060E065
:1025B0008AE093E00E94F61A68E771E08AE093E00F
:1025C0000E94152B22E030E043E353E363E170E423
:1025D0008AE093E00E943B2D60E080913D010E94E3
:1025E0005F2964EC79E080E090E00E9460288AE056
:1025F00093E00E94EF1A8AE093E01F910F91FF9001
:10260000EF90DF90CF900C94051C6130710509F0BC
:102610004FC06DE172E08AEB94E00E94222BD092D1
:102620007403C092730380E090E0A0EAB1E4809369
:102630009F039093A003A093A103B093A2038AE009
:1026400093E00E94EF1A63E771E08AE093E00E9452
:10265000152B41E060E08AE093E00E94F61A68E7FB
:1026600071E08AE093E00E94152B22E030E043E322
:1026700053E363E170E48AE093E00E943B2D60E065
:1026800080913D010E945F2964EC79E080E090E058
:102690000E9460288AE093E00E94EF1A8AE093E0AB
:1026A0001F910F91FF90EF90DF90CF900C940C1C36
:1026B00062E172E008CF8AEB94E00E940E2E611571
:1026C000710529F410926E0310926D0339C26130C6
:1026D000710529F470936E0360936D0331C267E056
:1026E00072E0F1CE80917303909174030097C9F466
:1026F0008AEB94E00E940E2E6B017C01CB01845684
:102700009109C39708F0EAC1C09259036AEF71E0DA
:102710008AEB94E00E94F02A4AE050E0609159036D
:10272000E3C1019709F00CC28AEB94E00E94A02E4D
:1027300060935D0370935E0380935F0390936003E7
:102740000E943128609391037093920380939303C6
:1027500090939403C0906503D0906603E090670364
:10276000F09068030091610310916203209163036C
:102770003091640340915D0350915E0360915F036B
:10278000709160038FE193E00E94431E66EE71E05A
:102790008AEB94E00E94F02A40915D0350915E0321
:1027A00060915F0370916003D8CE80917303909124
:1027B00074030097C9F48AEB94E00E940E2E6B011B
:1027C0007C01CB01885C9109C89708F08AC1C0924E
:1027D0005B036AED71E08AEB94E00E94F02A4AE024
:1027E00050E060915B0380C1019709F0A9C180E0CE
:1027F00090E0A0EAB0E480935D0390935E03A09321
:102800005F03B09360038AE097EDA3E2BCE380939B
:10281000610390936203A0936303B093640380E029
:1028200090E0A0E2B1E48093650390936603A093E7
:102830006703B09368030E943128609391037093FB
:1028400092038093930390939403C0906503D09078
:102850006603E0906703F0906803009161031091B4
:102860006203209163033091640340915D035091B2
:102870005E0360915F03709160038FE193E00E94BB
:10288000431E60EC71E08AEB94E00E94222B8CE501
:1028900093E01F910F91FF90EF90DF90CF900C94F9
:1028A000010E80917303909174030097C9F48AEB31
:1028B00094E00E940E2E6B017C01CB018659910998
:1028C000C39708F01BC1C0925A0366EB71E08AEB14
:1028D00094E00E94F02A4AE050E060915A0304C15B
:1028E000019709F02DC1D3CF6091690370916A03FC
:1028F0004AE050E08AEB94E00E94E92B6FED71E032
:102900008AEB94E00E94152B40919F035091A00305
:102910006091A1037091A20322E030E08AEB94E081
:102920000E943B2D6FED71E08AEB94E00E94152B25
:1029300040919B0350919C0360919D0370919E0375
:1029400022E030E08AEB94E00E943B2D6FED71E0D5
:102950008AEB94E00E94152B4091970350919803C5
:102960006091990370919A03CCC080917303909108
:102970007403009719F467E971E0A5CD019709F098
:10298000DFC08AEB94E00E940E2E6B017C01CB012C
:102990004497853B910508F0C0C0B601882777FDB4
:1029A0008095982F0E948F3460939F037093A003AB
:1029B0008093A1039093A20369E871E08AEB94E00D
:1029C0000E94F02A40919F035091A0036091A103BF
:1029D0007091A20396C08091730390917403009745
:1029E00029F488E593E00E944E0406C0019721F483
:1029F0008CE593E00E94300467E671E064CD80913D
:102A00007303909174030097C9F486E98093590386
:102A100084EB80935A0380EF80935B0366E571E05B
:102A20008AEB94E00E94222B88E593E01F910F919E
:102A3000FF90EF90DF90CF900C94CF0D019709F0AD
:102A40007FC080E090E0A0EAB0E480935D039093C3
:102A50005E03A0935F03B09360038AE097EDA3E267
:102A6000BCE38093610390936203A0936303B093EC
:102A7000640380E090E0A0E2B1E48093650390936A
:102A80006603A0936703B09368030E9431286093A4
:102A90009103709392038093930390939403C09057
:102AA0006503D0906603E0906703F090680300919F
:102AB000610310916203209163033091640340919C
:102AC0005D0350915E0360915F03709160038FE13D
:102AD00093E00E94431E68E471E0D5CE6DEE71E094
:102AE0001EC06EEC71E01BC08AEB94E01F910F9149
:102AF000FF90EF90DF90CF900C941D2C6CEA71E06A
:102B00000EC022E030E08AEB94E01F910F91FF901D
:102B1000EF90DF90CF900C943D2D6BE771E08AEB46
:102B200094E00E94F02A4AE050E0B6018AEB94E07B
:102B30001F910F91FF90EF90DF90CF900C94F12BAD
:102B40001F910F91FF90EF90DF90CF9008950F931A
:102B50001F93CF93DF938C01FC0160817181F1E0C1
:102B6000643C7F0741F4C0915903D0E046E950E04E
:102B700024E630E016C081E06C3C780741F4C09157
:102B80005A03D0E048EC50E026E930E00AC06E5726
:102B9000714039F4C0915B03D0E04FEF50E028EC76
:102BA00030E02196C217D3071CF04C175D070CF4D8
:102BB000E90141E060E08AE093E00E94F61A4AE011
:102BC00050E0BE018AE093E00E94342C60E08AE08D
:102BD00093E00E944E1CF80180819181F1E0843CD9
:102BE0009F0719F4C09359030CC0E1E08C3C9E0789
:102BF00019F4C0935A0305C08E57914011F4C09345
:102C00005B03DF91CF911F910F9108950F931F9355
:102C1000CF93DF938C01FC0160817181F1E0643C12
:102C20007F0741F4C0915903D0E026E930E044E643
:102C300050E016C081E06C3C780741F4C0915A0323
:102C4000D0E028EC30E046E950E00AC06E57714011
:102C500039F4C0915B03D0E02FEF30E048EC50E056
:102C60002197C417D5071CF02C173D070CF4E90178
:102C700041E060E08AE093E00E94F61A4AE050E00A
:102C8000BE018AE093E00E94342C60E08AE093E089
:102C90000E944E1CF80180819181F1E0843C9F07E5
:102CA00019F4C09359030CC0E1E08C3C9E0719F461
:102CB000C0935A0305C08E57914011F4C0935B0333
:102CC000DF91CF911F910F910895CF93DF93EC0186
:102CD0008AE093E00E94EF1A688179818AE093E0AC
:102CE0000E94152B41E060E08AE093E00E94F61A12
:102CF0008881998121E0843C920729F44AE050E0E0
:102D00006091590310C021E08C3C920729F44AE0FD
:102D100050E060915A0307C08E57914041F44AE059
:102D200050E060915B038AE093E00E94162C88815A
:102D30009981815D914039F060E08AE093E0DF9114
:102D4000CF910C944E1CDF91CF910895CF92DF92DA
:102D5000EF92FF9241E060E08AE093E00E94F61A71
:102D6000C0909F03D090A003E090A103F090A20335
:102D700020E030E040E251E4C701B6010E94F033A8
:102D800087FF03C061EE71E00CC020E030E047EC4B
:102D900052E4C701B6010E94F03387FF06C062EE1D
:102DA00071E08AE093E00E94152B40919F035091BF
:102DB000A0036091A1037091A20320E030E08AE0BB
:102DC00093E00E943B2D60E08AE093E00E944E1C5D
:102DD000C0909B03D0909C03E0909D03F0909E03D5
:102DE00020E030E040E251E4C701B6010E94F03338
:102DF00087FF03C061EE71E00CC020E030E047ECDB
:102E000052E4C701B6010E94F03387FF06C062EEAC
:102E100071E08AE093E00E94152B40919B03509152
:102E20009C0360919D0370919E0320E030E08AE056
:102E300093E00E943B2D60E08AE093E0FF90EF90EA
:102E4000DF90CF900C944E1CCF92DF92EF92FF92C6
:102E500041E060E08AE093E00E94F61AC0909F0390
:102E6000D090A003E090A103F090A20320E030E016
:102E700040E251E4C701B6010E94F03387FF03C06E
:102E800061EE71E00CC020E030E047EC52E4C70195
:102E9000B6010E94F03387FF06C062EE71E08AE05F
:102EA00093E00E94152B40919F035091A0036091E5
:102EB000A1037091A20320E030E08AE093E00E9439
:102EC0003B2D60E08AE093E00E944E1CC0909B0383
:102ED000D0909C03E0909D03F0909E0320E030E0B2
:102EE00040E251E4C701B6010E94F03387FF03C0FE
:102EF00061EE71E00CC020E030E047EC52E4C70125
:102F0000B6010E94F03387FF06C062EE71E08AE0EE
:102F100093E00E94152B40919B0350919C0360917C
:102F20009D0370919E0320E030E08AE093E00E94D0
:102F30003B2D60E08AE093E00E944E1C8AE093E023
:102F40000E940C1C8091160141E08A3010F462E06E
:102F500001C061E08AE093E00E94F61A20E030E0D0
:102F600048E452E460919B0370919C0380919D031F
:102F700090919E030E94F4336B017C0120E030E0CD
:102F800040E850E40E943F35181654F460E0809108
:102F9000A4030E945F29809123019091240144C0E1
:102FA00020E030E040E450E4C701B6010E943F3524
:102FB000181654F460E08091A4030E945F29809168
:102FC00025019091260130C020E030E040E050E43F
:102FD000C701B6010E943F35181654F460E0809195
:102FE000A4030E945F2980912701909128011CC0B1
:102FF00020E030E040E85FE3C701B6010E943F35C2
:1030000060E018164CF48091A4030E945F2980911F
:10301000A9039091AA0308C08091A4030E945F298C
:103020008091290190912A019093A5038093A40394
:10303000FF90EF90DF90CF900895CF92DF92EF92C4
:10304000FF920E943128C0908D03D0908E03E090B3
:103050008F03F0909003C616D706E806F90608F02D
:10306000FEC0D701C60188519C4FAF4FBF4F809320
:103070008D0390938E03A0938F03B0939003809160
:103080006F0390917003019709F058C08091A403D9
:103090000E94952961E0892B09F060E08091A403EA
:1030A0000E945F296091690370916A036F5F7F4F8F
:1030B00070936A03609369034AE050E08AEB94E0FE
:1030C0000E94E92B6FED71E08AEB94E00E94152BD2
:1030D00040919F035091A0036091A1037091A203BE
:1030E00022E030E08AEB94E00E943B2D6FED71E02E
:1030F0008AEB94E00E94152B40919B0350919C0316
:1031000060919D0370919E0322E030E08AEB94E091
:103110000E943B2D6FED71E08AEB94E00E94152B2D
:1031200040919703509198036091990370919A038D
:1031300022E030E08AEB94E00E943D2D8AE093E0AB
:103140000E94EF1AE0917103F0917203EE0FFF1FDE
:10315000E55BFE4F608171818AE093E00E94152B50
:1031600041E060E08AE093E00E94F61A80917103EA
:10317000909172030A97A9F0809173039091740360
:10318000009749F0019709F06AC0FF90EF90DF9037
:10319000CF900C942417FF90EF90DF90CF900C9479
:1031A000A6168091A303813009F045C08AE093E020
:1031B0000E94051CC0909B03D0909C03E0909D034F
:1031C000F0909E0320E030E44CE156E4C701B601E4
:1031D0000E94F033811109C064EE71E08AE093E04F
:1031E0000E94152B6CEB72E032C020E034E44CE11D
:1031F00056E4C701B6010E94F033882351F020E065
:1032000038E44CE156E4C701B6010E94F033811165
:1032100009C06CEE71E08AE093E00E94152B66EA2B
:1032200072E015C065EF71E08AE093E00E94152B13
:1032300060E972E00CC08AE093E00E94051C6EEF2A
:1032400071E08AE093E00E94152B65E872E08AEB5A
:1032500094E0FF90EF90DF90CF900C94222BFF90A2
:10326000EF90DF90CF900895CF92DF92EF92FF9290
:103270000F931F938091730390917403029731F021
:103280000E940E030E941D180E94E8110E9457041C
:1032900080916B0390916C03892B09F088C0809119
:1032A000730390917403009729F0019729F40E9409
:1032B0003C0E02C00E94880A80916D0390916E03BB
:1032C000892BC1F480916F0390917003019791F461
:1032D0001092700310926F03109272031092710398
:1032E00061ED72E08AEB94E00E94222B10926A0357
:1032F0001092690380916F0390917003019709F018
:1033000051C00E9431286B017C018FE193E00E9443
:10331000231D8091910390919203A0919303B0910A
:1033200094034091950350919603662757FD60954D
:10333000762F97018601081B190B2A0B3B0B4017B0
:1033400051076207730760F4840F951FA61FB71F0C
:103350008093910390939203A0939303B09394036B
:103360008091910390919203A0919303B091940363
:10337000A7019601281B390B4A0B5B0BCA01B90147
:103380000E948D349B01AC0160919703709198036A
:103390008091990390919A030E943F35181614F476
:1033A00061E001C060E0809141010E945F2980914D
:1033B0000103882309F463C080916F039091700327
:1033C000019709F50E9431286B017C01809103036C
:1033D00090910403A0910503B0910603C81AD90A7D
:1033E000EA0AFB0A20910601309107014091080189
:1033F00050910901A8EEB3E00E94D2359B01AC01C7
:10340000A091BE0220C00E9431286B017C018091F6
:10341000030390910403A0910503B0910603C81A19
:10342000D90AEA0AFB0A209106013091070140916E
:10343000080150910901A8EEB3E00E94D2359B012A
:10344000AC01A091BD02B0E00E94D2356C157D05A3
:103450008E059F0560F40E94D8080E943128609371
:1034600003037093040380930503909306031F9155
:103470000F91FF90EF90DF90CF900C94550A1F9121
:103480000F91FF90EF90DF90CF900895CF93DF934F
:10349000EC0160E08E810E945F2981E090E00E9453
:1034A000882861E08E810E945F2981E090E00E947F
:1034B000882860E08E810E945F2984E690E0DF9199
:1034C000CF910C948828CF92DF92EF92FF920F93C6
:1034D0001F93CF93DF937C01C0E0D0E0C62ED12CA8
:1034E00087010C0F1D1F61E0F80187810E942629CA
:1034F000B6010C2E02C0759567950A94E2F76170CB
:10350000F80187810E945F292196C430D10541F7D7
:10351000C701DF91CF911F910F91FF90EF90DF9046
:10352000CF900C94461ACF92DF92EF92FF920F93B6
:103530001F93CF93DF937C01C0E0D0E0C62ED12C47
:1035400087010C0F1D1F61E0F80187810E94262969
:10355000B6010C2E02C0759567950A94E2F761706A
:10356000F80187810E945F292196C830D10541F773
:10357000C701DF91CF911F910F91FF90EF90DF90E6
:10358000CF900C94461A1F93CF93DF93EC01162F24
:10359000642F8C810E945F298D818F3F19F060E03C
:1035A0000E945F298F85612F84FF06C0CE01DF91C5
:1035B000CF911F910C94931A70E084E075956795F4
:1035C0008A95E1F7CE010E94631A612FCE01DF9147
:1035D000CF911F910C94631A40E00C94C31A61E0E0
:1035E0000E94EC1A80ED97E00C948828CF93DF932B
:1035F000CDB7DEB728970FB6F894DEBF0FBECDBFAC
:1036000028E0EBE6F1E0DE01119601900D922A959B
:10361000E1F7FC012389421710F04FEF420FFE0142
:103620003196E40FF11DE40FF11D2081260F206873
:10363000622F28960FB6F894DEBF0FBECDBFDF9184
:10364000CF910C94EC1AFC016089262F2460208B0A
:103650006C600C94EC1ACF93DF93EC01423018F0BD
:103660008F8588608F874B8B1C8A222329F04130FD
:1036700019F48F8584608F8780E593EC0E948828F9
:1036800060E08C810E945F2960E08E810E945F294A
:103690008D818F3F19F060E00E945F296F8564FD86
:1036A0001DC063E0CE010E94631A84E991E10E948B
:1036B000882863E0CE010E94631A84E991E10E94A8
:1036C000882863E0CE010E94631A86E990E00E9498
:1036D000882862E0CE010E94631A16C06062CE01A3
:1036E0000E94EC1A84E991E10E9488286F8560624B
:1036F000CE010E94EC1A86E990E00E9488286F852E
:103700006062CE010E94EC1A6F856062CE010E9459
:10371000EC1A84E0888BCE010E94231BCE010E940C
:10372000EF1A82E0898B66E0CE01DF91CF910C9495
:10373000EC1A6F927F928F92AF92CF92EF920F938B
:103740001F93CF93DF93CDB7DEB73C01162F842FA5
:103750005D854E853F859889F301848325830683A3
:10376000E782C086A18682865387448735879687FD
:1037700061E00E942629F30185818F3F19F061E005
:103780000E94262961E0F30186810E9426291123E7
:1037900019F0F301178603C080E1F301878720E069
:1037A00041E060E1C301DF91CF911F910F91EF9054
:1037B000CF90AF908F907F906F900C942B1B8F9237
:1037C000AF92CF92EF920F93DC0113961C921E9250
:1037D0001297E4E4F2E0ED93FC931F921F921F9284
:1037E0001F928C2CAE2CC02EE22E042F2FEF462FD2
:1037F00061E00E94991B0F900F900F900F900F9116
:10380000EF90CF90AF908F900895FC0160896D7F0D
:10381000608B68600C94EC1AFC016089262F226092
:10382000208B6A600C94EC1ACF92DF92EF92FF9299
:103830000F931F93CF93DF9300D0CDB7DEB78C01EA
:10384000677088E0689FB00111246064C8014983F3
:103850005A830E94EC1A4981C42E5A81D52EE12C3C
:10386000F12CD6016D916D01D801ED91FC91019083
:10387000F081E02DC8010995BFEFEB1AFB0AE8E0E3
:10388000EE16F10471F70F900F90DF91CF911F9119
:103890000F91FF90EF90DF90CF90089541E00E944C
:1038A000C31A81E090E00895CF93DF93EC01862F57
:1038B000688349832A8360E00E94262961E0898128
:1038C0000E94262961E08A810E94262961E089817F
:1038D0000E945F2960E08A81DF91CF910C945F297B
:1038E0008F929F92AF92BF92CF92DF92EF92FF9210
:1038F0000F931F93CF93DF93EC0160E089810E94C7
:103900005F29C12CD12C76010FE110E0812C912C84
:103910005401839461E08A810E945F2988810E941A
:103920009529892B71F0D501C401002E04C0880FA0
:10393000991FAA1FBB1F0A94D2F7C82AD92AEA2ABC
:10394000FB2A60E08A810E945F290150110910F76B
:1039500061E089810E945F29C701B601DF91CF91A3
:103960001F910F91FF90EF90DF90CF90BF90AF909D
:103970009F908F900895CF93DF93EB010E94701C6E
:1039800080FF1BC0DC01CB0187709927AA27BB27CA
:103990000197A109B10984309105A105B10508F08D
:1039A0004CC0FC01EE0FFF1FEE0FFF1FE85BFD4F49
:1039B000608171818281938143C0DC01CB0122E16E
:1039C000B695A795979587952A95D1F795FD08C047
:1039D000BC01CD017F71882799270E948D3412C0C8
:1039E000BC01CD0160957095809590957F71882779
:1039F00099270E948D3420E030E040E85FE30E9488
:103A00008C33905820E030E040E85EE30E9443357C
:103A10002197B1F420E030E040E151E40E944335C9
:103A200020E030E040EA50E40E94F43320E030E04F
:103A300040E052E40E948C3303C060E070E0CB01B0
:103A4000DF91CF9108952F923F924F925F926F92A4
:103A50007F928F929F92AF92BF92CF92DF92EF921E
:103A6000FF920F931F93CF93DF93CDB7DEB72B97C2
:103A70000FB6F894DEBF0FBECDBF9B878A87DC01EF
:103A8000D896BC91B983B11102C01982E2C00E94DC
:103A900031286A837B838C839D83EA85FB8580A1A3
:103AA00091A1A2A1B3A14A815B816C817D81481B58
:103AB000590B6A0B7B0B84A595A5A6A5B7A548173E
:103AC00059076A077B0708F3028CF38DE02D80808D
:103AD0009180A280B380AA85BB855E96ED91FC9112
:103AE0005F97A501940160817181828193810E9419
:103AF0008B332B013C01EA85FB8520893189428982
:103B000053890E944335AA85BB8594962D913D919A
:103B10004D915C9197970E948C336B017C01EA85F3
:103B2000FB8564A375A386A397A324A835A806A93B
:103B300017A99101A8010E943F3518161CF4C10174
:103B4000D80118C0AA85BB85D0968D919D910D9006
:103B5000BC91A02D8E839F83A887B9879C01AD015E
:103B6000C701B6010E94F03387FF0AC08E819F8192
:103B7000A885B985EA85FB8584A395A3A6A3B7A3E9
:103B8000AA85BB851C962D913D914D915C911F9707
:103B9000C301B2010E944335EA85FB8524A135A10A
:103BA00046A157A10E948C336B017C01AA85BB857D
:103BB00098962D913D914D915C919B97C501B401D3
:103BC0000E948B33EA85FB8524893589468957898C
:103BD0000E9443359B01AC01C701B6010E948B33A3
:103BE0006B017C019101A8010E943F351816BCF0C1
:103BF000AA85BB85D0962C90D097D1963C90D19732
:103C0000D2960C91D297D3961C919101A801B6013E
:103C1000C7010E94F03387FD02C016018701AA8503
:103C2000BB855C96ED91FC915D97C101D8018083C5
:103C30009183A283B383EA85FB8580A691A6A2A681
:103C4000B3A68A819B81AC81BD8180A391A3A2A3ED
:103C5000B3A389812B960FB6F894DEBF0FBECDBFFC
:103C6000DF91CF911F910F91FF90EF90DF90CF9058
:103C7000BF90AF909F908F907F906F905F904F908C
:103C80003F902F9008952F923F924F925F926F92A4
:103C90007F928F929F92AF92BF92CF92DF92EF92DC
:103CA000FF920F931F93CF93DF9300D000D0CDB737
:103CB000DEB71C012A013B014801590120E030E038
:103CC000A901C301B2010E94F03387FD78C020E052
:103CD00030E0A901C501B4010E94F03387FD6FC037
:103CE00020E030E0A901C701B6010E94F03387FD52
:103CF00066C0F10140825182628273828482958221
:103D0000A682B782C086D186E286F38664A575A5B1
:103D100086A597A50E948D3420E030E04AE754E460
:103D20000E94F43369837A838B839C83F1014486F8
:103D30005586668677869B01AC01C501B4010E9459
:103D400043354B015C01F101608B718B828B938B4E
:103D500029813A814B815C81C701B6010E94F4330D
:103D60006B017C01F101648B758B868B978B808D49
:103D7000918D019721F5A301920160E070E0CB01E4
:103D80000E948B33F1016487758786879787A50129
:103D9000940160E070E0CB010E948B33F101608BF5
:103DA000718B828B938BA701960160E070E0CB0151
:103DB0000E948B33F101648B758B868B978B0F90F0
:103DC0000F900F900F90DF91CF911F910F91FF9067
:103DD000EF90DF90CF90BF90AF909F908F907F90AB
:103DE0006F905F904F903F902F9008958F929F9289
:103DF000AF92BF92CF92DF92EF92FF92CF93DF9379
:103E0000EC0116161706ACF56B01EE24D7FCE09416
:103E1000FE2CC701B6010E948F344B015C016CA5DA
:103E20007DA58EA59FA50E948D349B01AC01C50187
:103E3000B4010E94F4334B015C019B01AC01688921
:103E400079898A899B890E944335688B798B8A8B13
:103E50009B8BA50194016C897D898E899F890E9425
:103E6000F4336C8B7D8B8E8B9F8BCCA6DDA6EEA660
:103E7000FFA6DF91CF91FF90EF90DF90CF90BF90A2
:103E8000AF909F908F9008952F923F924F925F92A4
:103E90006F927F928F929F92AF92BF92CF92DF925A
:103EA000EF92FF920F931F93CF93DF93EC016A0180
:103EB0007B0148015901A9019801C701B6010E947F
:103EC0003F3587FF4EC0C8AAD9AAEAAAFBAA8CAA86
:103ED0009DAAAEAABFAA88AD882309F442C02C8C43
:103EE0003D8CF1014080518062807380A501940176
:103EF000C301B2010E943F35181634F4F1018082EB
:103F00009182A282B3820DC0A7019601C301B201C2
:103F10000E94F03387FF05C0F101C082D182E282A6
:103F2000F3828CA09DA0AEA0BFA0CCA8DDA8EEA877
:103F3000FFA8A7019601C501B4010E943F351816DC
:103F400064F0C8A8D9A8EAA8FBA8A7019601C501F2
:103F5000B4010E94F03387FF04C0CCA2DDA2EEA220
:103F6000FFA2DF91CF911F910F91FF90EF90DF9013
:103F7000CF90BF90AF909F908F907F906F905F9009
:103F80004F903F902F9008958F929F92AF92BF9243
:103F9000CF92DF92EF92FF92CF93DF93EC01EC8D03
:103FA000FD8DC080D180E280F380CCA2DDA2EEA2A4
:103FB000FFA2EA8DFB8D80819181A281B38188A7C8
:103FC00099A7AAA7BBA78CA89DA8AEA8BFA8A50122
:103FD0009401C701B6010E943F35181664F088A805
:103FE00099A8AAA8BBA8A5019401C701B6010E947F
:103FF000F03387FF04C08CA29DA2AEA2BFA2DF91C6
:10400000CF91FF90EF90DF90CF90BF90AF909F90B7
:104010008F9008951F93CF93DF93EC0111E06130EF
:10402000710509F010E088AD91E08927181303C0ED
:10403000CE010E94C41F18AFDF91CF911F91089548
:104040000F931F93CF93DF93EC018B0188AD8823EF
:1040500061F1888D998D6817790739F12C853D8537
:104060004E855F8560E070E0CB010E948B336C87EA
:104070007D878E879F87288939894A895B8960E097
:1040800070E0CB010E948B33688B798B8A8B9B8B82
:104090002C893D894E895F8960E070E0CB010E94E8
:1040A0008B336C8B7D8B8E8B9F8B198F088FDF9161
:1040B000CF911F910F9108954F925F926F927F92CF
:1040C0008F929F92AF92BF92CF92DF92EF92FF9228
:1040D0000F931F93CF93DF9300D000D0CDB7DEB7FF
:1040E0004C0127013801A982BA82CB82DC82FC0113
:1040F000558F448F738F628F378F268F10AE10AA23
:1041000011AA12AA13AA80E090E0AFE7B3E484AB4F
:1041100095ABA6ABB7AB84E690E0A0E0B0E084A797
:1041200095A7A6A7B7A76B8D7C8DC4010E94202000
:10413000CF88D88CE98CFA8C09811A812B813C813B
:10414000B301A201C4010E94431E0E943128F40160
:1041500044A455A466A477A464197509860997092F
:1041600060A371A382A393A30F900F900F900F9061
:10417000DF91CF911F910F91FF90EF90DF90CF9043
:10418000BF90AF909F908F907F906F905F904F9077
:104190000895089580915F0490916004DC01ED9191
:1041A000FC910484F585E02D0994FC01F8948CB50C
:1041B00081878DB582878CB5837F8CBD8CB58F7DD3
:1041C0008CBD8CB58C7F8CBD8DB58E7F8DBD60E038
:1041D00082810C945F29CF93DF93EC0161E08A81A7
:1041E0000E945F2989858CBD8A858DBD7894DF9179
:1041F000CF910895F89420916904233021F42091FF
:10420000650421110FC020916904233011F47894C2
:1042100007C0DC01ED91FC910288F389E02D09953E
:1042200080E00895DC01ED91FC910488F589E02D92
:1042300061E0099581E00895DC01ED91FC9104882D
:10424000F589E02D60E00994CF93DF931F92CDB7FD
:10425000DEB7DC01ED91FC910480F581E02D6983EE
:1042600009956981882359F080916704861711F0B8
:104270006F3F29F49091630481E0911101C080E0C7
:104280000F90DF91CF9108952F923F924F925F92BE
:104290007F928F929F92AF92BF92CF92DF92EF92D6
:1042A000FF920F931F93CF93DF93EC01962E5A0149
:1042B000722E802E10E0CE2CD12CE12CF12CE88136
:1042C000F9810190F081E02D01E0272DA501692DF4
:1042D000CE0109950E9431281B012C010E94312832
:1042E00062197309840995096C157D058E059F0572
:1042F00040F4692DCE010E942421882379F381E0C6
:1043000004C01F5F8116D8F680E0DF91CF911F9126
:104310000F91FF90EF90DF90CF90BF90AF909F9064
:104320008F907F905F904F903F902F900895809155
:104330006404882329F09091660481E09F3F09F48A
:1043400080E00895EF92FF921F93CF93DF931F9227
:10435000CDB7DEB77C01DC01ED91FC91008CF18DD5
:10436000E02D698309956981862F8F770E94B02699
:1043700080E00E94B026182FD701ED91FC91028CAD
:10438000F38DE02DC7010995812F0F90DF91CF911B
:104390001F91FF90EF9008950F931F93CF93DF939A
:1043A00000D0CDB7DEB78C01DC01ED91FC91008C23
:1043B000F18DE02D4A83698309956981862F806894
:1043C0000E94B0264A81842F0E94B026D801ED9128
:1043D000FC91028CF38DE02DC8010F900F90DF91BE
:1043E000CF911F910F9109941F93CF93DF93EC010D
:1043F000162F80916904681709F461C0623009F4CE
:1044000040C070F4662309F444C0613009F057C01D
:1044100061E0CE010E94A221482F437E44603FC04C
:104420006330C1F0643009F04AC061E0CE010E94FF
:10443000A221482F437E4C6061E0CE010E94CC2136
:104440008885882381F1E881F9810688F789E02D44
:1044500061E014C061E0CE010E94A221482F437E9A
:10446000406161E0CE010E94CC2188858823D9F08B
:10447000E881F9810688F789E02D60E0CE01099591
:1044800012C061E0CE010E94A221482F437E486005
:1044900006C061E0CE010E94A221482F437E61E068
:1044A000CE010E94CC2180916904811106C067E28F
:1044B000CE010E94A22187FFF6CF10936904DF91FD
:1044C000CF911F910895462FFC01658369E30C94F9
:1044D000CC21462F60E30C94CC21CF93DF93EC01E9
:1044E000603208F06FE16F838885882311F066954C
:1044F0006F8361E1CE010E94A221482F407E8F810F
:10450000482B61E1CE01DF91CF910C94CC21CF9269
:10451000DF92EF92FF920F931F93CF93DF93EC0103
:10452000F62ED42EC52E122FE881F9810488F58944
:10453000E02D61E0099567E2CE010E94A22187FF8C
:10454000FACF40E065E2CE010E94CC211E3308F094
:104550001DE3E11004C0002319F000E401C000E8ED
:10456000E881F981008CF18DE02DCE01099580E87C
:104570000E94B02683E0810F0E94B0268F2D0E94FA
:10458000B0268D810E94B026802F0E94B0260D2D6E
:10459000ED2CFC2C8E2D801B811730F4F7018191BE
:1045A0007F010E94B026F6CFE881F981028CF38D5D
:1045B000E02DCE010995E881F9810488F589E02D87
:1045C00064E0CE0109950E9431286B017C018B814A
:1045D0000E949529892B81F0E881F9810488F58969
:1045E000E02D61E0CE01DF91CF911F910F91FF90FF
:1045F000EF90DF90CF9009940E9431286C197D09CB
:104600008E099F09683E73408105910528F7DFCF29
:10461000CF93DF93EC01109268041092670410921C
:104620006604109265041092640410926304109260
:1046300062041092610468E20E94A22182FF0AC013
:104640006DE3CE010E94A221482F44606DE3CE01AC
:104650000E94CC2140E465E2CE010E94CC21E88199
:10466000F9810488F589E02D63E0CE01DF91CF91D7
:104670000994DF92EF92FF920F931F93CF93DF93F2
:10468000EC018B01E881F9810488F589E02D61E076
:10469000099501151105E1F0E881F981008CF18D92
:1046A000E02DCE0109958EEB0E94B0267801D12C29
:1046B000F70181917F010E94B026D394F0E1DF12CF
:1046C000F7CFE881F981028CF38DE02DCE010995B9
:1046D0006DE3CE010E94A2218E7F91E0012B09F4AF
:1046E00090E0482F492B6DE3CE01DF91CF911F91D0
:1046F0000F91FF90EF90DF900C94CC218F929F92BE
:10470000AF92BF92DF92EF92FF920F931F93CF93DE
:10471000DF93CDB7DEB7AE970FB6F894DEBF0FBE0E
:10472000CDBF7C01D42E8EE28E010F5F1F4FD801CA
:10473000E82F1D92EA95E9F791E0998334E03A83F6
:1047400042E04B8393E09D834E833F8340E4488760
:1047500035E039879A8796E09B8793E39C8737E01B
:104760003D8798E09F8799E0998B99E19B8B92E434
:104770009C8B55E25D8B4E8B46E24F8B388F38E237
:10478000398F30E13A8F39E23B8F3CED3C8F8D8F92
:1047900088E88E8F8FE28F8F8DE288A380E389A3D4
:1047A00037E33BA330E93CA338E33DA39EA39CE35E
:1047B0009FA39FE898A79DE399A792E19AA79FE6F8
:1047C0009BA78CA78FEF8DA76F3131F06B3231F043
:1047D000663531F489ED05C08EE403C08CE601C076
:1047E00084EE8E876F3141F06B3221F0663521F413
:1047F00080E003C080E401C080EC888B2AA361E0E4
:10480000D70112968C910E945F2961E0F7018281A5
:104810000E9426290E94A2260E9431284B015C0199
:104820004AEA6FE2C7010E94CC216FE2C7010E94F1
:10483000A2218A3A59F00E943128681979098A0917
:104840009B09623371058105910550F30E9431285F
:104850004B015C0145E56FE2C7010E94CC216FE28C
:10486000C7010E94A221853559F00E94312868199C
:1048700079098A099B09623371058105910550F315
:10488000B12CF801EB0DF11DEB0DF11D60816F3FB7
:1048900031F04181C7010E94CC21B394F2CF60E096
:1048A00070E0C7010E943923D701ED91FC91119767
:1048B0000084F185E02D18966C91C7010995D70108
:1048C000ED91FC910488F589E02D61E0C70109951F
:1048D0000E9431284B015C0167E2C7010E94A221BE
:1048E00087FD0BC00E943128681979098A099B0944
:1048F000623371058105910578F30E9431286819AA
:1049000079098A099B09623371058105910588F44B
:1049100043E050E06AEC70E2F70184810E94B62621
:10492000F0926004E0925F04D7011596DC9281E07A
:1049300001C080E0AE960FB6F894DEBF0FBECDBFCB
:10494000DF91CF911F910F91FF90EF90DF90BF907B
:10495000AF909F908F900895CF93DF93EC016111FA
:104960000DC064E2CE010E94A22190E09195819554
:10497000910995958795DF91CF91089541E063E284
:104980000E94CC2163E2CE010E94A22181FFFACFD6
:10499000E8CFCF93DF93EC01809169048330A9F4D1
:1049A00080916504811111C060E0CE010E94AC24A9
:1049B000863A9F4F54F4E881F9810488F589E02D07
:1049C00061E0CE01099581E001C080E0DF91CF91E7
:1049D0000895FF920F931F93CF93DF93EC01809183
:1049E0006904833001F568E2CE010E94A22182FDB4
:1049F00028C019C0809168048D3330F4E0916804B8
:104A0000F0E0E659FB4F1082E881F981028CF38DCA
:104A1000E02DCE010995E881F9810488F589E02D22
:104A200063E0CE01099560E0CE010E94AC24909332
:104A3000620480936104DF91CF911F910F91FF90E9
:104A40000895E881F9810488F589E02D61E0CE01BF
:104A50000995E881F981008CF18DE02DCE01099551
:104A600080E00E94B02680E00E94B026809365041A
:104A7000809165048334D0F480916504809365044B
:104A800080E00E94B026809366048E81811109C067
:104A9000909166048D81981721F0809166048F3F74
:104AA00039F480916504833018F017C082E4E6CFB2
:104AB00010926504E881F981028CF38DE02DCE011E
:104AC0000995E881F9810288F389E02DCE01DF9113
:104AD000CF911F910F91FF900994809165048350AD
:104AE0008093680480E00E94B0268093670480E091
:104AF0000E94B026982F907890936304982F90741A
:104B000090936404E881F9810684F785E02D682F8D
:104B1000CE010995F12C80916804F81608F06ACF4F
:104B20000F2D10E080E00E94B026F801E659FB4FFF
:104B30008083F394F0CF4F925F926F927F929F9217
:104B4000AF92BF92EF920F931F93CF93DF93EC013D
:104B5000162F5A01922E6DE30E94A221482F446025
:104B60006DE3CE010E94CC210E9431282B013C0133
:104B7000CE010E94C9248823C1F0E881F981008810
:104B8000F189E02DE12C292DA501612FCE01099598
:104B9000DF91CF911F910F91EF90BF90AF909F90B9
:104BA0007F906F905F904F9008950E943128641914
:104BB000750986099709683E734081059105E8F6F5
:104BC000E881F9810480F581E02DCE010995D0CFEF
:104BD0004F925F926F927F929F92AF92BF92CF92CD
:104BE000DF92EF92FF920F93CF93DF93EC015B0183
:104BF000942E10926404F0906704C0906104D090E9
:104C000062046DE30E94A221482F44606DE3CE014F
:104C10000E94CC210E9431282B013C01CE010E9430
:104C2000C924882301F1E881F9810088F189E02D08
:104C3000EE24E39400E0292DA5016F2DCE01099506
:104C4000D0926204C0926104DF91CF910F91FF90E6
:104C5000EF90DF90CF90BF90AF909F907F906F903C
:104C60005F904F9008950E94312864197509860954
:104C70009709683E734081059105A8F6E881F9819E
:104C80000480F581E02DCE010995C8CFCF93DF9345
:104C9000EC016887662311F04FE001C04AE163E14F
:104CA000CE010E94CC218885882341F061E1CE01AC
:104CB0000E94A221482F4F71406602C04F81406878
:104CC00061E1CE01DF91CF910C94CC211F93CF9362
:104CD000DF93EC01162F662311F04DE501C045E589
:104CE0006AE5CE010E94CC21112311F04CE701C0EE
:104CF00040E76CE5CE01DF91CF911F910C94CC2160
:104D00001F93CF93DF93EC01162FE881F98104887C
:104D1000F589E02D61E0099548E06EE4CE010E943E
:104D2000CC216EE4CE010E94A22182FDFACF6FE475
:104D3000CE010E94A2211B55181B812FDF91CF911C
:104D40001F9108958CB580618CBD8CB580648CBD3D
:104D500061E08FE00E94262961E080E10C94262921
:104D60008EBD0DB407FEFDCF8EB50895853008F0D9
:104D70004CC0E82FF0E0EE0FFF1FE955FB4F7183A9
:104D800060838230E1F018F4813069F004C0833030
:104D900019F1843071F1809169008C7F842B8093AC
:104DA0006900E89A089580916900440F551F440FE7
:104DB000551F837F842B80936900E99A0895809121
:104DC000690034E0440F551F3A95E1F78F7C842B3E
:104DD00080936900EA9A08958091690026E0440F63
:104DE000551F2A95E1F78F73842B80936900EB9A06
:104DF000089580916A0094E0440F551F9A95E1F759
:104E00008F7C842B80936A00EE9A08951F920F92F4
:104E10000FB60F9211242F933F934F935F936F938D
:104E20007F938F939F93AF93BF93EF93FF93809163
:104E3000A7049091A804892B29F0E091A704F09190
:104E4000A8040995FF91EF91BF91AF919F918F9128
:104E50007F916F915F914F913F912F910F900FBE76
:104E60000F901F9018951F920F920FB60F9211245A
:104E70002F933F934F935F936F937F938F939F9362
:104E8000AF93BF93EF93FF938091A9049091AA04ED
:104E9000892B29F0E091A904F091AA040995FF91CA
:104EA000EF91BF91AF919F918F917F916F915F91A2
:104EB0004F913F912F910F900FBE0F901F9018951B
:104EC0001F920F920FB60F9211242F933F934F937F
:104ED0005F936F937F938F939F93AF93BF93EF9362
:104EE000FF938091AB049091AC04892B29F0E09161
:104EF000AB04F091AC040995FF91EF91BF91AF9194
:104F00009F918F917F916F915F914F913F912F91E1
:104F10000F900FBE0F901F9018951F920F920FB613
:104F20000F9211242F933F934F935F936F937F932F
:104F30008F939F93AF93BF93EF93FF938091AD04B3
:104F40009091AE04892B29F0E091AD04F091AE046C
:104F50000995FF91EF91BF91AF919F918F917F91B3
:104F60006F915F914F913F912F910F900FBE0F90D6
:104F70001F9018951F920F920FB60F9211242F9326
:104F80003F934F935F936F937F938F939F93AF93D1
:104F9000BF93EF93FF938091AF049091B004892B5E
:104FA00029F0E091AF04F091B0040995FF91EF91E1
:104FB000BF91AF919F918F917F916F915F914F9131
:104FC0003F912F910F900FBE0F901F9018951F9239
:104FD0000F920FB60F9211242F933F938F939F93AD
:104FE000AF93BF938091B2049091B304A091B404A5
:104FF000B091B5043091B10423E0230F2D3720F494
:105000000196A11DB11D05C026E8230F0296A11D22
:10501000B11D2093B1048093B2049093B304A09384
:10502000B404B093B5048091B6049091B704A091F4
:10503000B804B091B9040196A11DB11D8093B604C6
:105040009093B704A093B804B093B904BF91AF9103
:105050009F918F913F912F910F900FBE0F901F90B6
:1050600018952FB7F8946091B2047091B3048091B1
:10507000B4049091B5042FBF08953FB7F894809180
:10508000B6049091B704A091B804B091B90426B5C4
:10509000A89B05C02F3F19F00196A11DB11D3FBF70
:1050A0006627782F892F9A2F620F711D811D911D00
:1050B00042E0660F771F881F991F4A95D1F7089520
:1050C000CF92DF92EF92FF92CF93DF936B017C013F
:1050D0000E943D28EB01C114D104E104F10489F0E0
:1050E0000E9447320E943D286C1B7D0B683E734036
:1050F00090F381E0C81AD108E108F108C851DC4FEB
:10510000EACFDF91CF91FF90EF90DF90CF9008959D
:105110008230910538F0880F991F880F991F0597E5
:105120000197F1F70895789484B5826084BD84B5C1
:10513000816084BD85B5826085BD85B5816085BD92
:10514000EEE6F0E0808181608083E1E8F0E01082AB
:10515000808182608083808181608083E0E8F0E0EC
:10516000808181608083E1E9F0E0808182608083DA
:10517000808181608083E0E9F0E0808181608083CC
:10518000E1ECF0E0808184608083808182608083B4
:10519000808181608083E3ECF0E0808181608083A6
:1051A000E0ECF0E0808182608083E2ECF0E08081DE
:1051B00081608083EAE7F0E0808184608083808181
:1051C0008260808380818160808380818068808329
:1051D000089590E0FC013197EF30F105B0F5E95802
:1051E000FF4F0C94CC35809180008F7703C0809165
:1051F00080008F7D80938000089580918000877F5C
:10520000F9CF84B58F7702C084B58F7D84BD0895B2
:10521000809190008F7707C0809190008F7D03C0B0
:1052200080919000877F8093900008958091C000C6
:105230008F7703C08091C0008F7D8093C000089558
:105240008091C200877F8093C2000895CF93DF933F
:1052500090E0FC01E450FD4F2491FC01E65EFC4F20
:105260008491882349F190E0880F991FFC01EC5A42
:10527000FC4FA591B4918A5B9C4FFC01C591D491E0
:105280009FB7611108C0F8948C91209582238C936C
:10529000888182230AC0623051F4F8948C91322FB5
:1052A000309583238C938881822B888304C0F89463
:1052B0008C91822B8C939FBFDF91CF9108950F9398
:1052C0001F93CF93DF931F92CDB7DEB7282F30E027
:1052D000F901E252FD4F8491F901E450FD4F149120
:1052E000F901E65EFC4F04910023C9F0882321F008
:1052F00069830E94E9286981E02FF0E0EE0FFF1F2B
:10530000EA5BFC4FA591B4919FB7F8948C91611121
:1053100003C01095812301C0812B8C939FBF0F90F8
:10532000DF91CF911F910F910895CF93DF93282F95
:1053300030E0F901E252FD4F8491F901E450FD4F54
:10534000D491F901E65EFC4FC491CC2391F0811118
:105350000E94E928EC2FF0E0EE0FFF1FE85CFC4F05
:10536000A591B4912C912D2381E090E021F480E06F
:1053700002C080E090E0DF91CF910895CF93DF935A
:105380001F92CDB7DEB76983DC01ED91FC910280FD
:10539000F381E02D41E050E0BE016F5F7F4F099542
:1053A0000F90DF91CF910895CF93DF93EC018C851F
:1053B0009D8597FF05C082E00E94742F9D878C8792
:1053C0008C859D85DF91CF91089583E00C94C93140
:1053D000FC018485958597FD06C082E00E941C2F04
:1053E00090E00196089582E00E941C2F90E00895BD
:1053F000FC018485958597FD05C02FEF3FEF35872C
:105400002487089582E00C94742FCF93DF93EC01EE
:1054100080916801882331F083E00E94A52F18163F
:10542000190634F081E090E09B838A8380E090E06D
:10543000DF91CF910895FC0120812E5F208342E40B
:1054400050E062E673E080E80C944030FC0181811A
:105450009081913A59F4813209F03CC047E050E024
:1054600061E671E080E00E94403043C0913291F5E6
:10547000803239F467E070E081E691E00E9471309B
:1054800006C0823209F035C0828180936801809124
:10549000610190916201A0916301B0916401803B30
:1054A0009440A105B105C1F48091680180FD14C04C
:1054B00087E797E790930108809300082BE088E145
:1054C00090E00FB6F894A895809360000FBE2093EB
:1054D00060000FC080E0089588E10FB6F8948093D3
:1054E0006000109260000FBEA89510920108109203
:1054F000000881E008952FEF3FEFFC0135872487F6
:1055000008951092BD041092BC0488EE93E0A0E0D0
:10551000B0E08093BE049093BF04A093C004B09306
:10552000C1048CE792E09093BB048093BA048FEFA0
:105530009FEF9093C7048093C604089508950E9436
:1055400093280E949E2A8AE095E00E9429320E94B8
:105550004A09C0E0D0E00E9434192097E1F30E948C
:105560000000F9CFCF92DF92EF92FF920F931F933B
:10557000CF93DF936C017A01EB01E60EF71E00E09A
:1055800010E0CE15DF0561F06991D601ED91FC9137
:105590000190F081E02DC6010995080F191FF1CF88
:1055A000C801DF91CF911F910F91FF90EF90DF9095
:1055B000CF9008956115710581F0DB010D900020F9
:1055C000E9F7AD0141505109461B570BDC01ED9144
:1055D000FC910280F381E02D099480E090E0089531
:1055E000EF92FF920F931F93CF93DF938C01FB01F8
:1055F000C0E0D0E064917F018FEFE81AF80A6623DB
:1056000061F0D801ED91FC910190F081E02DC8018D
:105610000995C80FD91FF701EDCFCE01DF91CF91CA
:105620001F910F91FF90EF9008950C94DA2ADC01FE
:10563000ED91FC910190F081E02D099468E872E011
:105640000C94DA2A0F931F93CF93DF93EC010E94FF
:10565000F02A8C01CE010E941E2B800F911FDF913A
:10566000CF911F910F9108950F931F93CF93DF93C5
:10567000EC010E94DA2A8C01CE010E941E2B800FC1
:10568000911FDF91CF911F910F9108958F929F925B
:10569000AF92BF92CF92DF92EF92FF920F931F9340
:1056A000CF93DF93CDB7DEB7A1970FB6F894DEBFE7
:1056B0000FBECDBF7C01C42EE52FCB01D22E19A287
:1056C00021E02D1510F02AE0D22E8E010F5D1F4F24
:1056D0008D2C912CA12CB12C6C2D7E2FA501940129
:1056E0000E94AA358C2DD29E8019112401501109D7
:1056F0008A3014F4805D01C0895CF8018083211533
:1057000031054105510521F0C22EE32FCA01E4CF36
:10571000B801C7010E94DA2AA1960FB6F894DEBF3D
:105720000FBECDBFDF91CF911F910F91FF90EF90F2
:10573000DF90CF90BF90AF909F908F900895CF92C1
:10574000DF92EF92FF920F931F93CF93DF93EC01C1
:105750006A017B012115310579F4E881F981019015
:10576000F081E02D642FDF91CF911F910F91FF9079
:10577000EF90DF90CF9009942A303105E9F477FF5C
:105780001AC06DE20E94172B8C0144275527BA01DD
:105790004C195D096E097F092AE0CE010E94462B53
:1057A000800F911FDF91CF911F910F91FF90EF908C
:1057B000DF90CF9008952AE0B701A601CE01DF91D6
:1057C000CF911F910F91FF90EF90DF90CF900C94AD
:1057D000462B9A01AB01662757FD6095762F0C94F6
:1057E0009F2B0F931F93CF93DF93EC019A01AB0193
:1057F000662757FD6095762F0E949F2B8C01CE0166
:105800000E941E2B800F911FDF91CF911F910F914E
:1058100008952115310541F4DC01ED91FC910190D1
:10582000F081E02D642F09940C94462B9A01462FA9
:1058300050E060E070E00C94092C0F931F93CF931D
:10584000DF93EC019A01462F50E060E070E00E9487
:10585000092C8C01CE010E941E2B800F911FDF911D
:10586000CF911F910F9108959A01AB0160E070E014
:105870000C94092C0F931F93CF93DF93EC019A01A3
:10588000AB0160E070E00E94092C8C01CE010E9407
:105890001E2B800F911FDF91CF911F910F910895C3
:1058A0004F925F926F927F928F929F92AF92BF9230
:1058B000CF92DF92EF92FF920F931F93CF93DF93DC
:1058C000EC016A017B01B22E9A01AB01C701B6015E
:1058D0000E94A635882319F06BE872E027C02601E4
:1058E0003701E89477F82FEF3FEF4FE75FE7C30109
:1058F000B2010E94A63581110DC02FEF3FEF4FE797
:105900005FE7C301B2010E94F03318161CF46FE880
:1059100072E00CC02FEF3FEF4FE75FE4C701B60125
:105920000E943F351816ACF463E972E0CE01DF91B6
:10593000CF911F910F91FF90EF90DF90CF90BF908C
:10594000AF909F908F907F906F905F904F900C944E
:10595000DA2A2FEF3FEF4FE75FECC701B6010E9455
:10596000F03387FDE1CF20E030E0A901C701B601A7
:105970000E94F03387FF0AC06DE2CE010E94172B10
:105980008C01F7FAF094F7F8F09402C000E010E010
:10599000A12C60E070E080E09FE3AB1441F020E0D8
:1059A00030E040E251E40E94F433A394F6CF9B012F
:1059B000AC01C701B6010E948C336B017C010E94CF
:1059C00061342B013C010E948D349B01AC01C70165
:1059D000B6010E948B336B017C012AE0B301A20166
:1059E000CE010E94462B080F191FBB2039F067E932
:1059F00072E0CE010E94DA2A080F191F7B2C772053
:105A000041F120E030E040E251E4C701B6010E94DC
:105A100043356B017C010E945C344B01AA2497FC46
:105A2000A094BA2C2AE030E0B501A401CE010E9476
:105A30009F2B080F191FC501B4010E948F349B01D1
:105A4000AC01C701B6010E948B336B017C017A94D3
:105A5000D6CFC801DF91CF911F910F91FF90EF90AA
:105A6000DF90CF90BF90AF909F908F907F906F907E
:105A70005F904F9008950C94502C0F931F93CF93E9
:105A8000DF93EC010E94502C8C01CE010E941E2B52
:105A9000800F911FDF91CF911F910F9108950F9368
:105AA0001F93CF93DF93EC010E9431286887798799
:105AB0008A879B87E881F9810084F185E02DCE01FA
:105AC000099597FF15C00E943128088519852A85F8
:105AD0003B85601B710B820B930B0C811D812E810A
